:020000040800F2
:10000000881E002071020008290900082B09000839
:100010002F09000833090008370900080000000014
:10002000000000000000000000000000CD010008FA
:100030003B09000800000000110200083D0900080B
:100040008B0200088B0200088B0200088B0200085C
:100050008B0200088B0200088B0200088B0200084C
:100060008B0200088B020008450900086F09000890
:100070008B0200088B0200088B0200088B0200082C
:100080008F0900089B0900087B0900088B02000803
:100090008B0200088B0200088B0200084F09000841
:1000A0008B0200088B0200088B0200088B020008FC
:1000B000650900088B0200085B0900088B02000834
:1000C0008B0200088B0200088B0200088B020008DC
:1000D0008B0200088B020008850900088B020008CB
:1000E0008B0200088B0200088B0200088B020008BC
:1000F000A70900088B020008B10900088B0200085C
:100100008B0200088B0200088B0200088B0200089B
:100110008B0200088B0200088B0200088B0200088B
:100120008B0200088B0200088B0200088B0200087B
:1001300000F002F800F03AF80AA090E8000C8244BF
:100140008344AAF10107DA4501D100F02FF8AFF29C
:10015000090EBAE80F0013F0010F18BFFB1A43F0A5
:1001600001031847E424010004250100103A24BFCC
:1001700078C878C1FAD8520724BF30C830C144BF0C
:1001800004680C607047000000230024002500264E
:10019000103A28BF78C1FBD8520728BF30C148BFEA
:1001A0000B6070471FB51FBD10B510BD12F01DF8D4
:1001B0001146FFF7F7FF00F051FA12F03BF803B4D5
:1001C000FFF7F2FF03BC12F043F80000204B196860
:1001D0000868B0E8F00F80F30988BFF36F8F4FF025
:1001E000000080F311884EF00D0E704700000000F3
:1001F00006480068006880F3088862B661B6BFF3FD
:100200004F8FBFF36F8F00DF00BF00BF08ED00E02E
:10021000EFF30980BFF36F8F0D4B1A6820E9F00FE1
:10022000106008B54FF0500080F3118802F0DAFA40
:100230004FF0000080F31188BDE808401968086895
:10024000B0E8F00F80F30988BFF36F8F704700BFED
:1002500034000020EFF311804FF0500181F311883A
:10026000704780F311887047EFF3058070470000F6
:100270000948804709480047FEE7FEE7FEE7FEE73A
:10028000FEE7FEE7FEE7FEE7FEE7FEE70448054976
:10029000054A064B70470000350E00083101000882
:1002A00088180020881E0020881A0020881A002044
:1002B00000B58BB003220021012001F0EBFA514977
:1002C00008601422504906A811F05AFF002106A820
:1002D00000F05AFE4D49086014224B49143101A820
:1002E00011F04EFF002101A800F04EFE48490860C1
:1002F0000BB000BD08B500F03DFE009000BF00BF90
:10030000444803F09DFC0121424803F072FD42483D
:10031000007801282ED14148008840F6E441484346
:1003200040F6FF71B0FBF1F03D4908803B48808802
:1003300040F6E441484340F6FF71B0FBF1F0394923
:1003400008803648408840F6E441484340F6FF7153
:10035000B0FBF1F040F29651081A4FF47A7148431D
:1003600041F2CC0190FBF1F019302F4908600020D8
:100370002949087000F012F94FF47A71684601F0CB
:10038000BBF9BDE708B500F0F5FD0090002107209E
:1003900011F00EFE00BF11F01EFE24480078012867
:1003A0002BD100202149087011F087FD802802D050
:1003B000FF280AD104E003F082F811F0B7FB1BE03C
:1003C0000021072011F0F4FD16E011F0A4FD001249
:1003D000C72148431649488011F09DFDC0B2C7218E
:1003E00048431349888011F0B4FD0021072011F023
:1003F000DFFD11F0CAFD00BF00BF0A21684601F011
:100400007BF9C8E7180000206022010804000020E2
:1004100008000020A40100202C0000201C00002067
:100420002200002024000020280000209D00002041
:100430000C00002000B585B000BF8148806940F005
:1004400020007F4988610846806900F02000009004
:1004500000BF00BF00BF0846806940F0040088610B
:100460000846806900F00400009000BF00BF00BF94
:100470000846806940F0080088610846806900F0FD
:100480000800009000BF00BF00BF0846806940F030
:10049000100088610846806900F01000009000BFDD
:1004A00000BF0220049080030190002002900120F0
:1004B000039001A9634807F0D9FE4FF480600190D2
:1004C000002002900120039001A95F4807F0CEFEB2
:1004D0004FF400600190002002900120039001A9D8
:1004E000594807F0C3FE4FF480500190002002905D
:1004F0000120039001A9544807F0B8FE04200190A0
:10050000002002900120039001A9504807F0AEFEA0
:1005100020200190002002900120039001A94C4866
:1005200007F0A4FE4020019001200290039001A951
:10053000444807F09BFE102001904648029002209C
:10054000039001A9424807F091FE4FF4807001909A
:10055000404802900220039001A93D4807F086FE22
:10056000002201210A2005F02AFA0A2005F073FA78
:1005700000220121172005F022FA172005F06BFA5E
:100580004FF400700190012002900390022004902B
:1005900001A92F4807F06AFE05B000BD10B5402143
:1005A000284808F02DF910BD10B50122402125483A
:1005B00008F00BF910BD10B500224021214808F0C9
:1005C00004F910BD10B501225102214808F0FDF8D0
:1005D00010BD10B500224FF400711D4808F0F5F869
:1005E00010BD10B54FF40061174808F0DBF808B9EA
:1005F000012000E0002084004FF48061124808F0E0
:10060000D1F808B9012000E0002044EA40044FF48A
:1006100000410C4808F0C6F808B9012000E00020AD
:100620002043401C10BD10B50446102C01D1FFF72B
:10063000B5FFB4F5807F01D1FFF7B0FF10BD00001A
:100640000010024000080140001001400014014069
:10065000000C01400000111000BFFEE703F007F896
:1006600000F0BFF8FFF724FEFFF7E4FEFFF7B9FF45
:100670003349087011F034FA11F054FB314811F08D
:1006800068FB00F0EBFA304800F025FB00F014FAAC
:1006900004212E480AF0A1FE04212C480FF0DBFBB8
:1006A00008212A480AF099FE082128480FF0D3FBB8
:1006B000254804F02BFA08B1FFF7CEFF03222449A6
:1006C000214803F0D9FD08B1FFF7C6FF00F044FC54
:1006D00000BFFEE710B504461E492068884201D1DC
:1006E00002F0E6FF10BD01211B4A117070477047F0
:1006F000FFF7B2FF1549884220D1017E09291CD29B
:10070000DFE801F01A05091B0F1B1B1B1500002158
:10071000124A116011E012494988104A121D1160F5
:100720000BE00F4989880D4A0832116005E000216D
:100730000A4A0C32116000E000BF00BF70477047EA
:10074000B000002078170020A401002068010020DC
:100750001C000020000800402C0000203434014020
:100760000C00002008B500BF4248806940F001003D
:10077000404988610846806900F00100009000BF90
:1007800000BF032005F0F8F8002211466FF00B00BF
:1007900005F015F9002211466FF00A0005F00FF977
:1007A000002211466FF0090005F009F900221146F8
:1007B000501F05F004F900221146101F05F0FFF844
:1007C00000220F21901E05F0FAF800220F21501E82
:1007D00005F0F5F82848406820F0E06026494860B8
:1007E00008BD10B596B009200C904FF480300D90E4
:1007F00000200E9001201090129002201390C1034F
:1008000014914FF4E01115910CA808F026FA08B1E4
:10081000FFF722FF0F200790022008900020099088
:100820004FF480600A9000200B90022107A808F086
:1008300067FF08B1FFF710FF01200190400202900E
:1008400001A809F08FFA08B1FFF706FF09F09FF938
:100850004FF47A71B0FBF1F4204605F046F904201C
:1008600005F0F6F900220F21501E05F0A8F816B089
:1008700010BD0000001002400000014070B588B0BB
:10088000044600250026002221461E2005F097F888
:100890001E2005F0E0F800BF1F48C06940F00400CA
:1008A0001D49C8610846C06900F00400019000BFFE
:1008B00000BF02A903A809F013FA09F06BF945007B
:1008C0001648B5FBF0F0461E15481649086040F280
:1008D000E7311448C160466000210161816009F080
:1008E0007CFC20B90F4809F09BFD08B070BD0120C9
:1008F000FBE70C480068C06820F00100094909685E
:10090000C860704707480068C06840F001000549AA
:100910000968C860704700000010024040420F00A4
:1009200000080040B4000020704700BFFEE700BF91
:10093000FEE700BFFEE700BFFEE7704710B500F01E
:10094000ABFE10BD10B5102007F0A5FF10BD10B50F
:100950004FF4807007F09FFF10BD10B517480CF0E2
:100960000BFA10BD10B516480CF006FA10BD10B504
:100970001449086A06F055F910BD10B5114803F086
:10098000A1FD10BD10B5104810F030FF10BD10B51E
:100990000D49486B06F045F910BD10B50A49086BC2
:1009A00006F03FF910BD10B508480CF0E5F910BD90
:1009B00010B506480CF0E0F910BD0000B4000020AE
:1009C0002C010020A40100207817002068010020DD
:1009D00000B58BB098489949086000204860002114
:1009E00096488160C1600161416109F0F6FB08B180
:1009F000FFF732FE91480AF0C8FF08B1FFF72CFE5E
:100A00000420069040200790002008900F200A90B4
:100A100006A98A480EF0CFFA08B1FFF71DFE0020A4
:100A20000490059004A985480FF0C0FE08B1FFF7B7
:100A300013FE0220009001200190002002900F2060
:100A40000390002269467D480CF05AFD08B1FFF77B
:100A500003FE0422694679480CF052FD08B1FFF705
:100A6000FBFD0BB000BD00B587B04FF0804074496E
:100A700008604720486000217148816044F6206189
:100A8000C160002101610AF0F6FA08B1FFF7E4FD48
:100A90006020009042F210700190002002900490BB
:100AA000039006900822694665480CF048FE08B19C
:100AB000FFF7D2FD07B000BD00B58FB061486249B5
:100AC00008604720486000215F48816044F61F614C
:100AD000C1600021416101610AF0CDFA08B1FFF760
:100AE000BBFD6020089000200A900B904FF48070AE
:100AF0000D9000200E900C9042F21070099004228C
:100B000008A951480CF01BFE08B1FFF7A5FD08220B
:100B100008A94D480CF013FE08B1FFF79DFD002019
:100B20000590FF2004904FF4006001904010029067
:100B3000002003904FF4005006904000079001A958
:100B400041480FF0A2FD08B1FFF786FD0FB000BDD0
:100B500010B586B004462068B0F1804F21D100BFA7
:100B60003A48C06940F001003849C8610846C06988
:100B700000F00100019000BF00BF0420029002209D
:100B80000390012004900220059002A9304807F04C
:100B90006DFB002211461C2004F011FF1C2004F004
:100BA0005AFF28492068884243D100BF27488069FE
:100BB00040F40050254988610846806900F40050DF
:100BC000019000BF00BF0F2200212E2004F0F7FE8D
:100BD0002E2004F040FF00BF1C48806940F0080050
:100BE0001A4988610846806900F00800019000BF3A
:100BF00000BF00BF0846806940F0100088610846C9
:100C0000806900F01000019000BF00BF0320029037
:100C100002200390059002A90E4807F027FB4FF42D
:100C2000C070029002200390059002A90A4807F0C4
:100C30001DFB06B010BD0000002C0140F00000209C
:100C40002C01002000340140680100200010024007
:100C500000080140000C0140001001400EB56F4833
:100C60006F490860002048604FF480716C488160D3
:100C70000021C160032101610121416181614FF4C3
:100C80006021C16102F0ACFD08B1FFF7E5FC0C206A
:100C9000009001200190062002906946604803F010
:100CA000CAFC08B1FFF7D8FC102000900220019088
:100CB00069465B4803F0BFFC08B1FFF7CDFC0D208F
:100CC0000090032001906946554803F0B4FC08B138
:100CD000FFF7C2FC0EBD10B58CB0044600BF5148F2
:100CE000806940F010004F4988610846806900F033
:100CF0001000019000BF00BF00BF0846806940F0AF
:100D0000100088610846806900F01000019000BF63
:100D100000BF00BF0846806940F400708861084643
:100D2000806900F40070019000BF00BF02200290B3
:100D30008003049002A809F015F800BF3948406903
:100D400040F00100374948610846406900F0010061
:100D5000019000BF00BF04200890032009900020EC
:100D60000A9008A9304807F081FA0820089003206B
:100D7000099000200A9008A92B4807F077FA2B4821
:100D80002B490860002048600021294881608021AB
:100D9000C160490001618900416120218161002118
:100DA000C16105F052F8224804F088FF00BF2048D6
:100DB0002062446200BF002203210B2004F0FFFDEB
:100DC0000B2004F048FE00220321122004F0F7FD5E
:100DD000122004F040FE0CB010BD10B504461148BE
:100DE000C06840F400700F49C8600846C06820F42D
:100DF0000070C86004210C4807F00BFC08210A4869
:100E000007F007FC206A10B1206A05F01EF80B20DD
:100E100004F037FE122004F034FE10BD002401401F
:100E2000A401002000100240001001400800024010
:100E3000D40100203448006840F0010032490860C5
:100E400008464068314908402F4948600846006814
:100E50002F4908402C4908600846006820F480208B
:100E600008600846406820F4FE0048604FF41F0008
:100E70008860C80327490860704710B5002100202A
:100E80000022214B5B6803F00C0121B1042906D03C
:100E9000082928D107E0204B204C236027E01E4B77
:100EA0001E4C236023E0184B5B6803F47010164B54
:100EB0005B6803F48032022303EB904022B9184BA5
:100EC0004343164C23600DE00F4B5B6803F4003383
:100ED00023B1134B4343114C236003E00E4B4343B8
:100EE0000E4C236003E00C4B0C4C236000BF00BF92
:100EF000054B5B68C3F303130A4CE15C074B1B68AB
:100F0000CB40064C236010BD001002400000FFF8EB
:100F1000FFFFF6FE08ED00E000127A00300000202E
:100F200000093D008822010801460020842901D0E3
:100F3000CA1C10447047014684200A46062A02D87B
:100F40000A46D21E10B2704700BFEFF3058008B109
:100F5000012070470020FCE710B501F0BCFD002027
:100F600010BD10B501F046FF012801D1002010BDD1
:100F70000120FCE710B5FFF7E7FF10B101F0DAFD43
:100F800010BD01F0D4FDFBE770B586B004460D46F8
:100F9000B4F90800FFF7C8FF0646002005AACDE90E
:100FA000012000960390238A9AB22B46D4E90010C0
:100FB00001F0CDF8012802D0002006B070BD0598E0
:100FC000FBE710B501F013FF10BD10B50446204635
:100FD00001F05FF9002010BD10B502F066FA0020A4
:100FE00010BD70B505460C462046FFF79DFF06462E
:100FF0003146284601F081FB002070BD70B50446E3
:10100000FFF7A2FF30B1204601F062FB0546FFF773
:1010100092FF70BD204601F04CFB0546FFF78BFFA9
:10102000F7E770B5044625460DB1294600E00121D9
:10103000084601F00FFB002070BD034600207047FA
:1010400002460020FF20704701460020FF20704725
:1010500001460020FF2070477CB504460D46002065
:101060000190FFF771FF90B101A8002301222946EA
:101070000090204602F0AFF8012801D0FF207CBD8F
:10108000019870B14FF08050FB49086009E00023DF
:1010900001222946204602F027F8012801D0FF202E
:1010A000EDE70020EBE7FEB506460F4614460020AC
:1010B00001900025601C08B96D1E03E014B125469F
:1010C00005B90125FFF740FF10B18220009016E01E
:1010D0002B4601AA3946002001F0A4FF012806D0C2
:1010E00015B9002000900AE04020009007E0019828
:1010F000002802DA8620009001E0082000909DE898
:10110000070086E80700FEBD10B50446012000F088
:1011100023FD10BDF8B506460C46002000900EB920
:101120008020F8BD0025601C08B96D1E03E014B1D5
:10113000254605B90125FFF707FF78B16A4600216A
:10114000304600F09CFE012801D0FF20E9E700981E
:1011500070B14FF08050C849086009E000232A466A
:101160001946304600F0DEFD012801D0FF20D8E707
:101170000020D6E738B50446002500200090FFF790
:10118000E3FE70B16946204600F060FD012801D001
:10119000FF2038BD009868B14FF08050B649086014
:1011A00008E000231A461946204600F034FC0128C6
:1011B00000D0FF252846ECE710B50446FFF7C4FE33
:1011C00008B1822010BD204600F010FF0020F9E792
:1011D00070B506460D46012D0ED1032200210120D7
:1011E00000F058FB04462CB100231A46194620464D
:1011F00000F011FC204670BD0020FCE7F8B5064663
:101200000C46002000900EB98020F8BD0025601C1F
:1012100008B96D1E03E014B1254605B90125FFF795
:1012200093FE78B16A460021304600F028FE01287E
:1012300001D0FF20E9E7009870B14FF080508E494F
:10124000086009E000232A461946304600F06AFD8E
:10125000012801D0FF20D8E70020D6E738B50446A2
:10126000002500200090FFF76FFE70B16946204610
:1012700000F0ECFC012801D0FF2038BD009868B1D7
:101280004FF080507C49086008E000231A46194658
:10129000204600F0C0FB012800D0FF252846ECE7DF
:1012A00010B50446FFF750FE08B1822010BD20465D
:1012B00000F09CFE0020F9E72DE9F0410546686842
:1012C000C01C80088700142002F070F904461CB38B
:1012D0002868A060E76000202061286802F066F9B5
:1012E00060606068C8B1296801FB07F002F05EF930
:1012F0002060206848B1002603E00020616888551E
:10130000761C2868B042F8D80BE0606802F07FF9DC
:10131000204602F07CF9002403E0204602F077F931
:1013200000242046BDE8F0812DE9F0410446002765
:10133000B846FFF709FE18B1FEF78CFF074601E03B
:1013400002F0BDF8002612E020698519A068A842C5
:1013500000D800256068405D40B9012061684855AB
:10136000E168206805FB0108256103E0761CA068A0
:10137000B042E9D800BFFFF7E7FD18B13846FEF7E5
:1013800070FF01E002F0B9F84046BDE8F08170B5A9
:1013900005462846FFF7C8FF04460CB10020206030
:1013A000204670BD10B502460B460AB9802010BD1C
:1013B0000BB98020FBE71068984201D98020F6E73E
:1013C0001068191AD068B1FBF0F400FB141008B1D2
:1013D0008020ECE7D068B1FBF0F19068884201D83A
:1013E0008020E4E700205468605400BFDFE770B558
:1013F00004460D460022D4E9000100F04BFA70BD0E
:1014000077B581B00646144600200090254605B900
:101410000125FFF799FD88B100236A4602A93046ED
:1014200000F0BEFB012802D0FF2004B070BD009880
:1014300070B14FF080501049086009E000232A463F
:1014400002A9304600F0E7FA012801D0FF20ECE7BE
:101450000020EAE72DE9FF4107460D4614460295B4
:101460000020019055B9802000909DE8070087E892
:101470000700BDE8FF81000004ED00E000200390BC
:101480000026601C08B9761E03E014B1264606B992
:101490000126FFF759FD90B103AA01A9284600F0E3
:1014A000EEFC012802D11020009001E00020009005
:1014B0000398A0B14FF08050B24908600FE00023BC
:1014C000324601A9284600F02DFC012802D1102047
:1014D000009004E00EB9002000E0402000909DE85C
:1014E000070087E8070000BFC3E73EB504460D4686
:1014F00000200090019002902068009060680190A8
:101500000C2002F053F8A1680860A068006808B9D0
:1015100000203EBDA068006804600022042120680D
:1015200000F0B8F9A16809684860A06800684068E0
:1015300028B9A168086802F06AF80020E9E768465F
:10154000FFF7BAFEA16809688860A0680068806833
:1015500028B9A168086802F05AF80020D9E7A06805
:101560000068D6E770B504460E460CB9002070BD81
:10157000A068FFF7D9FE05462846F8E72DE9F041B7
:1015800006460F4639463046FFF7ECFF054635B1B3
:10159000002402E000202855641C042CFAD32846BD
:1015A000BDE8F08113B582B0044614B9802004B0C0
:1015B00010BD00200190FFF7C7FC80B1002301AAF5
:1015C00003A9606800F0ECFA012801D0FF20EEE7E3
:1015D000019870B14FF080506A49086009E000231B
:1015E0001A4603A9606800F016FA012801D0FF200E
:1015F000DDE70020DBE72DE9FF4107460C461546F5
:1016000002943CB9802000909DE8070087E807001D
:10161000BDE8FF81002003900026681C08B9761EF3
:1016200003E015B12E4606B90126FFF78DFC90B1F7
:1016300003AA01A9606800F022FC012802D1202041
:10164000009001E0002000900398A0B14FF080507E
:101650004C4908600FE00023324601A9606800F0A1
:1016600061FB012802D12020009004E00EB9002087
:1016700000E0402000909DE8070087E8070000BFD9
:10168000C6E730B504460D460CB9802030BD29466A
:10169000A068FFF787FEF9E710B501F0ABFB012862
:1016A00001D001F03EFF10BD10B50446204601F008
:1016B000CEF8002010BD10B50446FFF745FC40B140
:1016C000204601F08BF9012806D100072D4908605A
:1016D00002E0204601F04EF9002010BD10B500F0E8
:1016E0005BFF002010BD10B500F0ABFE012801D15A
:1016F000002010BDFF20FCE770B505460C462646CD
:101700000EB1304600E001200146284600F04AFFB5
:10171000002070BD014600207047FEB507460D460B
:101720001446029535B9802000909DE8070087E8AF
:101730000700FEBD0026601C08B9761E03E014B148
:10174000264606B901260123324601A9284600F0A3
:10175000E9FA012802D11020009004E00EB900201F
:1017600000E0402000909DE8070087E8070000BFE8
:10177000DFE701460020704701468120704702469E
:101780008120704704ED00E000F1080141604FF056
:10179000FF31816000F10801C16001610021016039
:1017A000704700210161704742684A6093688B600E
:1017B000936859609160086103685B1C036070471F
:1017C00010B502460B685C1C0CB9106907E002F109
:1017D000080000E04068446824689C42FAD94468E4
:1017E0004C604C68A160886041600A611468641CA8
:1017F000146010BD01460A69D1E901309860D1E951
:10180000010358605068884201D188685060002008
:1018100008611068401E10601068704770B505467A
:101820000E462C461CB9FEF715FD00BFFEE701F081
:1018300046FED4E90F12206801FB02006060002020
:10184000A0632068A060E06B401E226C216800FB52
:101850000210E0604FF0FF306064A06476B9206948
:1018600008B9012000E0002080B904F1100001F067
:10187000DDF901280AD101F018FE07E004F110009B
:10188000FFF782FF04F12400FFF77EFF01F035FE31
:10189000012070BD2DE9F04706460D4691464FF0F8
:1018A00000080EB1012000E0002018B9FEF7D2FCBC
:1018B00000BFFEE70DB9002702E006FB05F0471C5C
:1018C00007F14C0001F072FE044664B10DB92460CA
:1018D00002E004F14C002060E6632564012120460B
:1018E000FFF79CFFA046B8F1000F03D1FEF7B2FC52
:1018F00000BFFEE74046BDE8F08710B5044601F0A2
:10190000DEFD11E0606A08B9012000E0002038B96E
:1019100004F1240001F08AF918B101F064FA00E042
:1019200005E0A06C401EA064A06C0028EADC00BFAB
:101930004FF0FF30A06401F0E0FD01F0C0FD11E0C8
:10194000206908B9012000E0002050B904F110001E
:1019500001F06CF908B101F046FA606C401E606459
:1019600000E002E0606C0028EADC00BF4FF0FF30CE
:10197000606401F0C2FD10BD70B5054601F09FFD29
:10198000A86BE96B884201D1012400E0002401F03A
:10199000B4FD204670BD2DE9F04104460E461546C3
:1019A0000027206C40B9206878BB606801F080FA9D
:1019B00007460020606028E07DB93146226CA068AF
:1019C00010F099FB216CA0680844A060D4E90110D4
:1019D00088421AD32068A06017E03146226CE06884
:1019E00010F089FB216CE068401AE0602168E06833
:1019F000884203D2216C6068401AE060022D04D155
:101A0000A06B10B1A06B401EA063A06B401CA06334
:101A10003846BDE8F0812DE9FF4383B0064688468D
:101A20001D464FF0000934461CB9FEF713FC00BFF9
:101A3000FEE7B8F1000F01D1206C08B9012000E0E9
:101A4000002018B9FEF706FC00BFFEE7022D02D108
:101A5000E06B012801D1012000E0002018B9FEF759
:101A6000F9FB00BFFEE701F0C5F908B9059808B910
:101A7000012000E0002018B9FEF7ECFB00BFFEE7F4
:101A800000BF01F01CFDA06BE16B884201D3022D69
:101A90001DD12A4641462046FFF77DFF0746606A72
:101AA00008B9012000E0002040B904F1240001F051
:101AB000BDF8012805D101F0F8FC02E00FB101F0FA
:101AC000F4FC01F01AFD012007B0BDE8F083059891
:101AD00018B901F012FD0020F6E7B9F1000F04D1AA
:101AE00001A801F03CF94FF0010901F006FD00F0FA
:101AF00053FD01F0E4FC606C401C08B900206064F8
:101B0000A06C401C08B90020A06401F0F6FC05A9F7
:101B100001A801F032F9C0B92046FFF72DFF70B1DE
:101B200004F11000059901F010F82046FFF7E5FEDA
:101B300000F087FC0028A4D101F0B7FCA1E7204603
:101B4000FFF7DBFE00F07DFC9BE72046FFF7D5FEAC
:101B500000F077FC0020B7E770B505464C2001F097
:101B600025FD0446D4B1002060602060A060E060E4
:101B7000A0630120E06300202064401E6064A06434
:101B800004F11000FFF700FE04F12400FFF7FCFD54
:101B900000231A4619462046FFF73DFF204670BD38
:101BA0002DE9F0470646894617461D4634461CB9BE
:101BB000FEF750FB00BFFEE7B9F1000F01D1206C2A
:101BC00008B9012000E0002018B9FEF743FB00BF70
:101BD000FEE7022D02D1E06B012801D1012000E0D7
:101BE000002018B9FEF736FB00BFFEE701F0A8FCA5
:101BF000FEF730FB8246A06BE16B884201D3022DD9
:101C00001CD12A4649462046FFF7C5FEA06C401C61
:101C100070B9606A08B9012000E0002058B904F1E9
:101C2000240001F003F830B12FB10120386002E048
:101C3000A06C401CA0644FF0010801E04FF00008C8
:101C40005046FEF70EFB4046BDE8F0872DE9F04117
:101C500005460E462C461CB9FEF7FCFA00BFFEE70F
:101C6000206C08B9012000E0002018B9FEF7F2FA54
:101C700000BFFEE7206808B9606808B9012000E0ED
:101C8000002018B9FEF7E6FA00BFFEE701F058FCA5
:101C9000FEF7E0FA8046A06BE16B884219D2A06B98
:101CA000401CA063A06C401C70B9606A08B9012098
:101CB00000E0002058B904F1240000F0B7FF30B173
:101CC0002EB10120306002E0A06C401CA06401270E
:101CD00000E000274046FEF7C4FA3846BDE8F08130
:101CE00070B5054601F0EBFBA86B08B9012400E0D4
:101CF000002401F002FC204670BD70B504460D467C
:101D0000206C70B1216CE0680844E0606168E068B4
:101D1000884201D32068E0602846226CE16810F018
:101D2000EAF970BD2DE9FF4383B005460E461F4614
:101D30004FF000092C461CB9FEF78CFA00BFFEE7F5
:101D40000EB9206C08B9012000E0002018B9FEF798
:101D500081FA00BFFEE701F04DF808B9059808B90F
:101D6000012000E0002018B9FEF774FA00BFFEE77A
:101D700000BF01F0A4FBA06B90B3D4F80C803146F7
:101D80002046FFF7BAFFB7B9A06B401EA0632068DA
:101D900010B901F0E9F86060206908B9012000E09D
:101DA0000020B8B904F1100000F040FF012811D163
:101DB00001F07BFB0EE0C4F80C80606A08B90120DA
:101DC00000E0002030B904F1240000F02FFF08B13A
:101DD00001F06BFB01F091FB012007B0BDE8F0833F
:101DE000FFE7059818B901F088FB0020F5E7B9F185
:101DF000000F04D101A800F0B2FF4FF0010901F07B
:101E00007CFB00F0C9FB01F05AFB606C401C08B978
:101E100000206064A06C401C08B90020A06401F0A0
:101E20006CFB05A901A800F0A8FF08BB2046FFF73E
:101E300057FFB8B1206830B901F041FB606800F08D
:101E4000E5FF01F05AFB04F12400059900F07DFE46
:101E50002046FFF752FD00F0F4FA002889D101F086
:101E600024FB86E72046FFF748FD00F0EAFA80E70A
:101E70002046FFF742FD00F0E4FA0020ADE72DE92F
:101E8000F0470546884616462C461CB9FEF7E2F98F
:101E900000BFFEE7B8F1000F01D1206C08B90120A6
:101EA00000E0002018B9FEF7D5F900BFFEE701F009
:101EB00047FBFEF7CFF98146A06BE8B141462046CB
:101EC000FFF71BFFA06B401EA063606C401C70B945
:101ED000206908B9012000E0002058B904F1100081
:101EE00000F0A4FE30B12EB10120306002E0606C41
:101EF000401C6064012700E000274846FEF7B1F966
:101F00003846BDE8F0872DE9F04705460F462C46D8
:101F10001CB9FEF79FF900BFFEE70FB9206C08B9A6
:101F2000012000E0002018B9FEF794F900BFFEE799
:101F3000206C08B1012000E0002018B9FEF78AF9F2
:101F400000BFFEE701F0FCFAFEF784F98146A06BC2
:101F500048B1D4F80C8039462046FFF7CEFEC4F8CD
:101F60000C80012600E000264846FEF77AF930464C
:101F7000BDE8F08770B504461CB9FEF76BF900BFE9
:101F8000FEE701F09CFAA56B01F0B7FA284670BD98
:101F900070B5044625461DB9FEF75CF900BFFEE7A3
:101FA00001F08DFAD5E90E10461A01F0A6FA304676
:101FB00070BD70B504461CB9FEF74CF900BFFEE7D2
:101FC000A56B284670BD014600200BE0274A02EBB6
:101FD000C00252688A4204D10022244B43F83020C8
:101FE00002E0401C0828F1D300BF704770B50446DA
:101FF00025461DB9FEF72EF900BFFEE72846FFF77C
:10200000E2FF284601F003FB70BD70B505461DB91F
:10201000FEF720F900BFFEE7A86B08B9012400E035
:102020000024204670BD70B504461CB9FEF712F9B5
:1020300000BFFEE7A06BE16B884201D1012500E003
:102040000025284670BD024600200BE0074B53F8E0
:10205000303033B9054B43F8301003EBC0035A60FE
:1020600002E0401C0828F1D300BF70470C0200209A
:1020700010B5002407E004EB8401FE4A02EB810066
:10208000FFF782FB641C072CF5D3FB48FFF77CFBB2
:10209000FA48FFF779FBFA48FFF776FBF948FFF7B4
:1020A00073FBF948FFF770FBF348F8490860F34801
:1020B000F749086010BD2DE9F04704460F46154664
:1020C0009946DDF82080002607E0B95D04F1340070
:1020D0008155B85D00B902E0761C102EF5D300BF23
:1020E000002143200155072D00D30625E5626564D4
:1020F0000020A064201DFFF754FB04F11800FFF737
:1021000050FB2461C5F10700A06164620020E06417
:1021100084F85000BDE8F0872DE9F04106460F46EF
:102120001FB9B00001F042FA00E03846054655B14B
:10213000542001F03BFA04460CB1256304E0284624
:1021400001F065FA00E000242046BDE8F0812DE9A9
:10215000FF4F81B0804616469A46DDE90E5BB8F126
:10216000000F03D1FEF776F800BFFEE7072D01D27E
:10217000012000E0002018B9FEF76CF800BFFEE770
:1021800030461099FFF7C8FF0446002C5AD0701E45
:10219000216B01EB800929F0070909F0070008B954
:1021A000012000E0002018B9FEF754F800BFFEE758
:1021B00000962A462046119B0299FFF77CFF524663
:1021C0004146484601F002F92060BBF1000F01D002
:1021D000CBF8004001F073F9AE480068401CAD49EF
:1021E0000860AD48006840B9AB4804600846006824
:1021F00001280CD1FFF73CFF09E0A848006830B97E
:10220000A5480068C06AA84201D8A3480460A44851
:102210000068401CA249086094F82C1001208840F6
:10222000A049096808439F490860E16A01EB810100
:10223000904A02EB8100211DFFF7B6FA012701F059
:102240005CF901E04FF0FF37012F09D19348006896
:1022500030B191480068C06AA84201D201F025F966
:10226000384605B0BDE8F08F88490968096809B9A2
:10227000012100E0002121B14FF0FF318A4A1160B5
:1022800006E082490968C968C868874A41681160E0
:10229000704770B5054601F012F915B97E4800681F
:1022A00000E028460446201DFFF7A4FA78B9E06A4A
:1022B00000EB80006F4951F8200040B994F82C10D1
:1022C0000120884077490968814376480160A06A07
:1022D00018B104F11800FFF78DFA211D6948FFF7C6
:1022E00063FA72480068401C704908606C480068D6
:1022F000401C6B49086001F000F968480068B8B1FB
:102300006548006884420DD16948006808B9012019
:1023100000E0002018B9FDF79DFF00BFFEE701F0C7
:10232000C4F805E001F0CBF8FFF79EFF01F0E5F8F7
:1023300070BD2DE9F0414FF000085D4800680028AD
:1023400072D15C480068401C5A490860084606681B
:10235000DEB94E480068006808B9012000E000209E
:1023600018B9FDF777FF00BFFEE7484807684848FF
:10237000006846490860464807604F480068401CAE
:102380004D490860FFF770FF00BF4748006886426C
:102390003CD300BF3D480068006808B9012000E058
:1023A000002020B14FF0FF303F4908602DE0374852
:1023B0000068C068C4686568AE4202D23A480560E9
:1023C00023E0201DFFF716FAA06A18B104F11800E7
:1023D000FFF710FA94F82C10012088403149096861
:1023E000084330490860E16A01EB8101214A02EBB0
:1023F0008100211DFFF7D8F92749E06A0968C96AF9
:102400008842C7D34FF00108C4E700BF22480068E4
:10241000C06A00EB8000174951F82000012808D954
:102420004FF0010805E0FFE724480068401C2349FD
:1024300008602348006808B14FF001084046BDE835
:10244000F08170B500251A48006818B9FDF702FF41
:1024500000BFFEE701F033F815480068401E14493C
:10246000086008460068002873D10A480068002800
:102470006FD04CE04C020020D8020020EC0200207B
:10248000000300201403002028030020380000204F
:102490003C000020440000203400002050000020B8
:1024A000600000204C00002064000020400000205C
:1024B00068000020480000205C000020540000203C
:1024C00058000020FD48C068C46804F11800FFF7F8
:1024D00091F9201DFFF78EF994F82C100120884007
:1024E000F74909680843F6490860E16A01EB810190
:1024F000F44A02EB8100211DFFF756F9F249E06A28
:102500000968C96A884202D30120F0490860EB4893
:10251000006808B9012000E000200028D2D0EC4873
:10252000006878B10AE0FFF704FF10B10120E74925
:102530000860E7480068401EE5490860E448006814
:102540000028F0D1E1480068012802D1012500F0FF
:10255000ACFF00F0D2FF284670BD10B50446DA4843
:1025600000684460DB480068844207D2D6480168AE
:10257000091DD9480068FFF723F90CE0D24801682B
:10258000091DD6480068FFF71BF9D548006884424A
:1025900001D2D348046010BDD2480068401CD14924
:1025A000086070472DE9F04704460E464FF00009D9
:1025B0001CB9FDF74FFE00BFFEE70EB1012000E0A1
:1025C000002018B9FDF746FE00BFFEE7C5480068C9
:1025D00008B9012000E0002018B9FDF73BFE00BF5C
:1025E000FEE7FFF7D9FFBB48D0F8008020688519C7
:1025F0002068404507D92068A8420BD9454509D92C
:102600004FF0010906E02068A84201D8454501D9EC
:102610004FF001092560B9F1000F13D0AA480068F6
:10262000001DFFF7E7F850B9A748006890F82C1094
:1026300001208840A24909688143A14801602846D9
:10264000FFF78BFFFFF7FDFE07460FB900F02DFFE8
:10265000BDE8F08770B50446002634B3A148006891
:1026600008B9012000E0002018B9FDF7F3FD00BF14
:10267000FEE7FFF791FF9748006805199248006848
:10268000001DFFF7B7F850B98F48006890F82C107C
:10269000012088408A4909688143894801602846A9
:1026A000FFF75BFFFFF7CDFE06460EB900F0FDFE1B
:1026B00070BD70B5044600F002FF14B9824800688E
:1026C00000E020460646F56A00F017FF284670BD78
:1026D0002DE9F041044600F033FFFDF7BBFD06464F
:1026E00014B97948006800E020460746FD6A304684
:1026F000FDF7B7FD2846BDE8F0812DE9F04780469B
:102700000D464FF00009072D01D2012000E0002006
:1027100018B9FDF79FFD00BFFEE7072D00D3062582
:1027200000F0CDFEB8F1000F02D16748006800E06C
:1027300040460446666CAE4250D0B5420BD9624862
:10274000006884420DD060480068C06AA84208D87A
:102750004FF0010905E05C480068844201D14FF068
:102760000109E76AE16A606C884200D1E56265644C
:10277000A06900F0004010B9C5F10700A06107EBA7
:102780008701504A02EB81016069884201D1012032
:1027900000E00020E0B1201DFFF72CF830B9012047
:1027A000B8404749096881434548016094F82C10B6
:1027B0000120884042490968084341490860E16AAC
:1027C00001EB81013F4A02EB8100211DFEF7ECFF86
:1027D000B9F1010F01D100F068FE00BF00F08DFEDD
:1027E000BDE8F08710B53F48006818B101203749AF
:1027F00008602BE000203549086031480068B0FAD5
:1028000080F0C0F11F0404EB84002E4951F8200031
:1028100008B1012000E0002018B9FDF71BFD00BF42
:10282000FEE704EB8401274A02EB81004168496816
:10283000416000F1080142688A4202D1416849685A
:1028400041604168C968204A116000BF10BD70B581
:10285000054600F034FE15B91B48006800E0284624
:102860000446201DFEF7C6FF78B9E06A00EB800041
:10287000144951F8200040B994F82C1001208840E8
:102880000F49096881430E480160A06A18B104F13C
:102890001800FEF7AFFF211D1348FEF785FF00F07B
:1028A0002CFE09480068844238D11048006820B1E5
:1028B0000C480068E0B901201BE022E00003002082
:1028C0004C0000204C020020340000205800002062
:1028D00054000020480000203C0000203800002068
:1028E0006400002068000020280300205000002021
:1028F000002018B9FDF7AEFC00BFFEE700F0D5FDE3
:1029000015E0FE480068FE490968884203D10020AE
:10291000FC4908600BE0FFF765FF08E0FA48006833
:1029200028B100F0CCFDFFF79FFC00F0E6FD70BD84
:1029300070B5054600262C461DB9FDF78BFC00BF7F
:10294000FEE7EE496069884201D1012000E00020E5
:1029500070B1EE49A06A884201D1012000E0002058
:1029600030B9A06A08B9012000E0002000B10126BA
:10297000304670BD70B505462C461DB9FDF76AFCA2
:1029800000BFFEE74CB3DF480068844225D000F06A
:1029900096FD2046FFF7CCFF01281CD1201DFEF735
:1029A00029FF94F82C1001208840D9490968084370
:1029B000D7490860E16A01EB8101D64A02EB810048
:1029C000211DFEF7F1FECF49E06A0968C96A884215
:1029D00001D300F06AFD00F090FD70BD2DE9F041DB
:1029E000054600262C461DB9FDF734FC00BFFEE766
:1029F00000F0A6FDFDF72EFC07462046FFF798FFE6
:102A0000012824D1C4480068E0B9BE49E06A0968D9
:102A1000C96A884200D30126201DFEF7EBFE94F818
:102A20002C1001208840BA4909680843B849086059
:102A3000E16A01EB8101B74A02EB8100211DFEF73B
:102A4000B3FE04E004F11801B048FEF7ADFE3846CD
:102A5000FDF707FC3046BDE8F08110B50446206B59
:102A600000F0D5FD204600F0D2FD10BD70B523E08A
:102A7000FFF792FDA948006808B9012000E0002096
:102A80000546FFF7DEFCBDB900F019FDA348C0689C
:102A9000C468201DFEF7AEFE99480068401E9849A4
:102AA00008609F480068401E9D49086000F025FDB1
:102AB0002046FFF7D2FF00BF994800680028D7D111
:102AC00070BD00BFFFF7D2FF924800680128F9D916
:102AD00000F0EBFCF6E71FB500200090019002909B
:102AE000034680228FA103909048FFF730FB0446F5
:102AF000012C0DD1FDF7AEFBA01E8D490860012011
:102B00008149086000208B49086000F079FC04E0EE
:102B10001CB9FDF79FFB00BFFEE71FBD10B5FDF719
:102B200099FB00207849086000F0B0FC10BD814995
:102B30000868704770B500F003FD00257D48046803
:102B4000204670BD6E480068704770B505460C465B
:102B50001DB9FDF77FFB00BFFEE76A480168183129
:102B60002846FEF72DFE67480068001DFEF742FE6E
:102B700050B96448006890F82C10012088406449DE
:102B80000968814362480160601C30B95D48016892
:102B9000091D5A48FEF708FE05E066480068061958
:102BA0003046FFF7DAFC70BD2DE9F04105460E46D0
:102BB00014461DB9FDF74EFB00BFFEE756480068FE
:102BC00008B1012000E0002018B9FDF743FB00BF69
:102BD000FEE746F000404B490968886149480168B2
:102BE00018312846FEF7E0FD46480068001DFEF754
:102BF00001FE50B94348006890F82C10012088402D
:102C000043490968814342480160601C30B93D482E
:102C10000168091D3948FEF7C7FD05E04548006811
:102C200007193846FFF799FCBDE8F08170B50646F4
:102C3000F068C4681CB9FDF70DFB00BFFEE704F1A6
:102C40001800FEF7D7FD34480068A8B9201DFEF72C
:102C5000D1FD94F82C10012088402D4909680843C3
:102C60002B490860E16A01EB81012A4A02EB8100ED
:102C7000211DFEF799FD04E004F118012348FEF739
:102C800093FD2049E06A0968C96A884204D9012590
:102C900001202949086000E00025284670BD2DE983
:102CA000F04105460F461C48006808B1012000E0CD
:102CB000002018B9FDF7CEFA00BFFEE747F000404C
:102CC0002860EC681CB9FDF7C5FA00BFFEE728468E
:102CD000FEF790FD201DFEF78DFD94F82C100120CD
:102CE00088400B490968084309490860E16A01EB1B
:102CF0008101084A02EB8100211D1FE0280300200A
:102D00004400002034000020500000200003002078
:102D10004C0000204C02002068000020140300201A
:102D20004000002049444C4500000000C32A000830
:102D3000640000204800002058000020FEF734FD09
:102D4000FC49E06A0968C96A884204D90126012061
:102D5000F949086000E000263046BDE8F08110B572
:102D600004461CB9FDF776FA00BFFEE7F348006899
:102D70002060F3480068606010BD2DE9F041044612
:102D80000D461CB9FDF766FA00BFFEE71DB9FDF759
:102D900061FA00BFFEE700F092FBE9480768286887
:102DA000401C08B9002619E0E449206809688842F7
:102DB00004D06068B84201D801260FE06068381A74
:102DC0002968884209D228686168791A401A2860FF
:102DD0002046FFF7C4FF002600E0012600F08DFB2F
:102DE0003046BDE8F0810120D34908607047D149E1
:102DF00008687047D349096809B9012005E0D2493C
:102E0000096809B9022000E00020704770B5054646
:102E10002C46002D4BD0C749E06A0968C96A884230
:102E200045D2A06900F0004028B9C2480068C06AD5
:102E3000C0F10700A061E16A01EB8101C34A02EB26
:102E400081016069884201D1012000E0002050B377
:102E5000201DFEF7CFFC78B9E06A00EB8000BB498B
:102E600051F8200040B994F82C1001208840B8494E
:102E700009688143B6480160AE480068C06AE062F4
:102E800094F82C1001208840B14909680843B049E2
:102E90000860E16A01EB8101AC4A02EB8100211D6F
:102EA000FEF782FC03E0A3480068C06AE06270BDE0
:102EB00070B505462C460026002D47D09D48006879
:102EC000844201D1012000E0002018B9FDF7C2F9C9
:102ED00000BFFEE7A06C18B9FDF7BCF900BFFEE724
:102EE000A06C401EA064616CE06A88422ED0A06C89
:102EF00060BB201DFEF77EFC78B9E06A00EB800025
:102F0000924951F8200040B994F82C1001208840D3
:102F10008F49096881438E480160606CE062E06A15
:102F2000C0F10700A06194F82C1001208840884966
:102F30000968084386490860E16A01EB8101834A18
:102F400002EB8100211DFEF72FFC0126304670BDEB
:102F500078490968886977490968C96AC1F1070130
:102F6000744A1268916170477248006830B17149C3
:102F7000096801F14800896C491C01606D480068CE
:102F800070472DE9F04106460C4600F098FA694872
:102F90000068C06C38BB01206649096881F85000A0
:102FA0000CB364480068001DFEF724FC50B961486A
:102FB000006890F82C100120884065490968814319
:102FC00063480160601C30B95A480168091D6148B6
:102FD000FEF7EAFB05E05A48006807193846FFF794
:102FE000BCFA00F062FA00F088FA00F068FA514882
:102FF0000068C56C65B126B100204E490968C864F7
:1030000006E04C49096801F14C00C96C491E016099
:1030100000204849096881F8500000F06EFA2846FF
:10302000BDE8F0812DE9F0470746884615461C4665
:1030300000F045FA3F48006890F8500002282FD071
:103040003C49096801F14C00C96CB9430160012099
:103050003849096881F8500014B336480068001DEB
:10306000FEF7C8FB50B93348006890F82C100120D7
:10307000884037490968814335480160601C30B990
:103080002C480168091D3348FEF78EFB06E02C48EA
:10309000006800EB04094846FFF75FFA00F005FA04
:1030A00000F02BFA00F00BFA1DB122480068C06C4A
:1030B00028602048006890F85000012801D10026BF
:1030C00008E01C49096801F14C00C96C21EA0801BB
:1030D0000160012600201749096881F8500000F0BE
:1030E0000CFA3046BDE8F0872DE9F04706460D465C
:1030F000174698464FF0010A1EB9FDF7ABF800BF1E
:10310000FEE7344600F0DBF9B8F1000F02D0E06CC6
:10311000C8F8000094F85090022084F85000052F61
:1031200029D2DFE807F02703191D1F00E06C2843B0
:10313000E06420E034000020580000205C00002003
:103140004800002050000020680000204C020020B1
:103150004C00002028030020E06C401CE0640AE0E2
:10316000E56408E0B9F1020F01D0E56401E04FF039
:10317000000A00E000BF00BFB9F1010F26D1201DF9
:10318000FEF738FB94F82C1001208840824909682A
:10319000084381490860E16A01EB81017F4A02EB43
:1031A0008100211DFEF700FBA06A08B9012000E0A4
:1031B000002018B9FDF74EF800BFFEE77849E06A35
:1031C0000968C96A884201D900F06FF900F095F9E1
:1031D0005046BDE8F0872DE9F84F06460D461746E4
:1031E0009846DDF828A04FF0010B1EB9FDF732F824
:1031F00000BFFEE700F0A4F93446FDF72BF800907D
:10320000B8F1000F02D0E06CC8F8000094F85090BC
:10321000022084F85000052F17D2DFE807F01503CD
:10322000070B0D00E06C2843E0640EE0E06C401CEE
:10323000E0640AE0E56408E0B9F1020F01D0E5645A
:1032400001E04FF0000B00E000BF00BFB9F1010F3B
:1032500033D1A06A08B9012000E0002018B9FCF7BA
:10326000F9FF00BFFEE74F480068A8B9201DFEF730
:10327000C1FA94F82C100120884047490968084396
:1032800045490860E16A01EB8101444A02EB810093
:10329000211DFEF789FA04E004F118014248FEF707
:1032A00083FA3F49E06A0968C96A884205D9BAF1D8
:1032B000000F02D00120CAF800000098FCF7D1FFEF
:1032C0005846BDE8F88F2DE9F04105460E461DB978
:1032D000FCF7C0FF00BFFEE700F032F92C46FCF718
:1032E000B9FF804694F85070022084F85000E06CDA
:1032F000401CE064012F30D1A06A08B9012000E031
:10330000002018B9FCF7A6FF00BFFEE725480068BB
:10331000A8B9201DFEF76EFA94F82C100120884001
:103320001D49096808431C490860E16A01EB8101F5
:103330001A4A02EB8100211DFEF736FA04E004F17F
:1033400018011948FEF730FA1549E06A0968C96A98
:10335000884202D90EB1012030604046FCF781FF5F
:10336000BDE8F08170B50446264616B90C480068E1
:1033700000E03046064600F0A2F896F85000022819
:1033800004D1002086F85000012500E0002500F05F
:10339000B4F8284670BD00004C0000204C0200200C
:1033A00034000020680000200003002078480068F6
:1033B000401C08B9012000E0002018B9FCF74AFFC2
:1033C00000BFFEE7FCF746FF00BFFEE7001F4FF01F
:1033D00080730360001F0160001F6E4B0360143890
:1033E0000260203870476C4800684FF47A71B0FB77
:1033F000F1F0401E4FF0E02148610720086170475E
:103400001CB56648014609780191FF2102461170FA
:103410000146097800919DF8001001F05001604AC2
:10342000117007215F4A116009E05E490968491E71
:103430005C4A11609DF800104906090E00919DF844
:10344000001001F080018029EFD056490968090277
:10345000544A11601146098801F4E06111604F4A35
:10346000019911705048006840F470004E4908609E
:103470000846006840F070400860FFF7B4FF002085
:1034800043490860FCF7B4FE00201CBD10B540485D
:103490000068B0F57A7F01D1012000E0002018B962
:1034A000FCF7D8FE00BFFEE710BD4FF080503E494C
:1034B0001C390860BFF34F8FBFF36F8F704710B593
:1034C000FCF7C8FE32480068401C31490860BFF371
:1034D0004F8FBFF36F8F0846006801280CD1324828
:1034E0001C380068C0B208B9012000E0002018B9FB
:1034F000FCF7B0FE00BFFEE710BD10B52448006821
:1035000018B9FCF7A7FE00BFFEE721480068401E7F
:103510001F4908600846006810B90020FCF7A1FEAA
:1035200010BD10B5FCF796FEFEF703FF20B14FF07B
:1035300080501D491C3908600020FCF792FE10BD28
:1035400070B5FCF791FE0546102D0FD305F1E02074
:1035500090F8F04312480078844201DB012000E03B
:10356000002018B9FCF776FE00BFFEE70E481438BD
:10357000006800F4E0600B490968884201D8012026
:1035800000E0002018B9FCF765FE00BFFEE770BD43
:103590006C000020AD3300083000002000E400E0A3
:1035A000700000207400002020ED00E070B504469B
:1035B000002504F0070020B104F00700C0F1080066
:1035C0000444FEF7E9FF1D48006820B91C4820F0BC
:1035D00007001A4908601B480068204440F6F8318B
:1035E000884210D21748006820441649096888426A
:1035F00009D912480068134909684518114800683C
:10360000204410490860FEF71CFF284670BD10B525
:1036100004460CB9012000E0002018B9FCF71AFE9E
:1036200000BFFEE710BD002006490860704705484E
:10363000006840F6F831081A704700007C0000204E
:103640004403002078000020704770B5044606F05F
:103650009EFA4FF47A71B0FBF1F5284602F045FA74
:1036600000222146501E02F0AAF9002070BD10B5BC
:103670004048006840F010003E490860032002F016
:103680007BF90020FDF7FAF8FDF76CF8002010BD7B
:10369000704710B54FF0FF303749C860002008610F
:1036A000401EC8600020C860FFF7F2FF002010BD78
:1036B00032480068401C3149086070472F48006854
:1036C000704731B50024FFF7F9FF044600BFFFF74C
:1036D000F5FF001B00998842F9D338BD4FF0E02078
:1036E000006920F002004FF0E021086170474FF0C0
:1036F000E020006940F002004FF0E02108617047CF
:103700001F4870471F4800681F4991FAA1F1B1FA9C
:1037100081F1C84070471B480068C0F30B00704738
:103720001848406840F00100164948607047154845
:10373000406820F001001349486070471148406814
:1037400040F002000F49486070470E48406820F082
:1037500002000C49486070470A48406840F0040085
:103760000849486070470748406820F00400054950
:103770004860704700200240001002408000002096
:1037800000040001002004E00000FFFF70B50446C3
:1037900000252068806800F00100F0B12068806892
:1037A00020F0010021688860FFF788FF05460EE0E1
:1037B000FFF784FF401B022809D9A06A40F01000DF
:1037C000A062E06A40F00100E062012070BD206864
:1037D000806800F001000028EAD10020F6E7704779
:1037E0002DE9F0410446002700250026A84614B91B
:1037F0000120BDE8F081FA492068884207D0F949E4
:103800002068884203D0F8492068884200D104E04B
:103810004FF4C271F548FCF792FF606818B1606818
:10382000B0F5006F00D104E040F28511EF48FCF7DD
:1038300086FFA06818B1A068B0F5807F00D104E0D1
:103840004FF4C371E948FCF77AFFE06810B1E06813
:10385000012800D104E040F28711E448FCF76FFF33
:10386000E06988B3E069B0F5003F2DD0E069B0F5BC
:10387000C02F29D0E069B0F5002F25D0E069B0F560
:10388000202F21D0E069B0F5402F1DD0E069D8B1DC
:10389000E069B0F5003F17D0E069B0F5C02F13D054
:1038A000E069B0F5202F0FD0E069B0F5402F0BD0C4
:1038B000E069B0F5802F07D0E069B0F5402F03D064
:1038C000E069B0F5602F00D104E04FF4C471C7483F
:1038D000FCF735FFA06810B3206918B120691028E3
:1038E00000D804E04FF4C671C048FCF728FF6069B7
:1038F00010B16069012800D104E040F28D11BB488D
:10390000FCF71DFF606950B1A06918B1A0690828D3
:1039100000D804E04FF4C871B448FCF710FFA06A67
:1039200030B90020E06284F824002046FDF7D3F986
:103930002046FFF72BFF0746A06A00F01000002882
:103940007ED1002F7CD1A06A20F4885040F0020084
:10395000A062A54AD4E90001904208D1E069B0F51F
:10396000402F02D14FF4002002E0E06900E0E0695E
:103970000843022292FAA2F2B2FA82F2E16891407E
:1039800008430643A068B0F5807F02D0A0680128F4
:1039900002D14FF4807000E00020054360690128E7
:1039A00016D1E06860B9A069401E4FF4604191FAF9
:1039B000A1F1B1FA81F1884040F40060054307E0CD
:1039C000A06A40F02000A062E06A40F00100E062DE
:1039D0002068406820F469402843216848602068D6
:1039E000806883490840304321688860A068B0F54A
:1039F000807F02D0A068012802D14FF4807000E0DF
:103A00000020B0F5807F09D12069401E4FF470017D
:103A100091FAA1F1B1FA81F100FA01F82068C06AC7
:103A200020F4700040EA08002168C86220688068BD
:103A300070490840B0420AD10020E062A06A00E06C
:103A400011E020F0020040F00100A06210E0A06A46
:103A500020F0020040F01000A062E06A40F0010097
:103A6000E062012704E0A06A40F01000A062012794
:103A70003846BEE6704770B5044600250CB90120F3
:103A800070BD57492068884207D05649206888424F
:103A900003D055492068884200D104E040F24A2111
:103AA0005248FCF74CFEA06A40F00200A06220469B
:103AB000FFF76CFE0546002D69D16FF01F002168ED
:103AC0000860206840684C490840216848602068C8
:103AD00080684A490840216888602068C06800F012
:103AE0007F402168C8602068006900F0404021687C
:103AF0000861206840696FF30B0021684861206805
:103B000080696FF30B00216888612068C0696FF3DA
:103B10000B002168C8612068006A6FF30B00216800
:103B200008622068406A6FF30B00216848622068D1
:103B3000806A6FF30B00216888622068C06A00F019
:103B40007F402168C8622068C06A00F07F40216819
:103B5000C8622068006B00F040402168086320685C
:103B6000406B00F04040216848632068806B6FF331
:103B70001500216888632068806B6FF31500216849
:103B800088632046FDF729F90020E062A06200BFAB
:103B9000002084F8240000BF284671E738B50446A9
:103BA0000025002000902068806800F00100B0B976
:103BB0002068806840F00100216888601048006833
:103BC0001049B0FBF1F0009002E00098401E009018
:103BD00000980028F9D1FFF771FD054628E02DE097
:103BE0000024014000280140003C0140C02201089F
:103BF000FDF7E1FFFE0E1FFF00003FFFF00601FF93
:103C00003000002040420F00FFF758FD401B022803
:103C10000ED9A06A40F01000A062E06A40F00100F6
:103C2000E06200BF002084F8240000BF012038BDFE
:103C30002068806800F001000028E5D00020F6E749
:103C400070B504460025F9492068884207D0F84934
:103C50002068884203D0F7492068884200D104E0F8
:103C600040F20531F448FCF76AFD00BF94F82400E7
:103C7000012801D1022070BD012084F8240000BF7A
:103C80002046FFF78BFF0546002D79D1A06A40F250
:103C90000121884340F48070A062E5492068884291
:103CA00009D1E248001D006800F4702008B9012025
:103CB00002E0002000E0012078B1A06A20F480102A
:103CC000A0622068406800F4806000B3A06A20F41D
:103CD000005040F48050A06219E0A06A40F48010C7
:103CE000A062D2492068884203D0D1492068884226
:103CF00005D1CE48001D006800F4806000E000207F
:103D000028B1A06A20F4005040F48050A062A06A5C
:103D100000F4805020B1E06A20F00600E06201E08B
:103D20000020E06200BF002084F8240000BFC01E15
:103D3000216808602068806800F46020B0F5602F7A
:103D400017D1BB492068884209D1B848001D0068D6
:103D500000F4702008B9012002E0002000E00120FA
:103D600038B12068806840F4A000216888600CE0C9
:103D700006E02068806840F480102168886004E0D4
:103D800000BF002084F8240000BF284673E770B508
:103D900004460025A5492068884207D0A449206828
:103DA000884203D0A3492068884200D104E040F251
:103DB0007631A148FCF7C3FC00BF94F82400012829
:103DC00001D1022070BD012084F8240000BF2046EC
:103DD000FFF7DCFC05462DB9A06A20F4885040F0BE
:103DE0000100A06200BF002084F8240000BF284624
:103DF000E8E7F8B504460D460026002000900027AD
:103E00008A492068884207D089492068884203D0BF
:103E100088492068884200D104E040F2A7318648F2
:103E2000FCF78DFCFFF74AFC06462068806800F42A
:103E3000807050B1A06A40F02000A06200BF002056
:103E400084F8240000BF0120F8BD2068406800F419
:103E50008070F8B92068C06A00F47000D0B912E030
:103E6000681C80B125B1FFF729FC801BA8420AD944
:103E7000A06A40F00400A06200BF002084F8240083
:103E800000BF0320E0E72068006800F0020000287F
:103E9000E6D050E0022006F090F868490968B1FBCE
:103EA000F0F021680969664A114091B92168C96832
:103EB0009211114069B921680969624A114031B90A
:103EC0002168C9689211114009B9142117E029210C
:103ED00015E0216809695B4A114021B92168C96868
:103EE0009211114041B121680969574A114029B91D
:103EF0002168C968114009B9542100E0FC2100FB88
:103F000001F715E0681C80B125B1FFF7D7FB801BD6
:103F1000A8420AD9A06A40F00400A06200BF0020B5
:103F200084F8240000BF03208EE70098401C009016
:103F30000098B842E6D36FF0120021680860A06ACA
:103F400040F40070A0622068806800F46020B0F542
:103F5000602F0DD1E06858B9A06A20F48070A0628B
:103F6000A06A00F4805018B9A06A40F00100A06275
:103F7000002069E72DE9F04104460D46164600276A
:103F80002A492068884207D029492068884203D0FE
:103F900028492068884200D104E040F225412648A3
:103FA000FCF7CDFB012D00D104E040F22641224870
:103FB000FCF7C5FBFFF782FB074613E0701C88B1D6
:103FC00026B1FFF77BFBC01BB0420BD9A06A40F0C3
:103FD0000400A06200BF002084F8240000BF03207A
:103FE000BDE8F081206800682840A84201D1012086
:103FF00000E000200028E1D0A06A40F48030A062F8
:104000006FF00100216808600020E9E770B5044600
:10401000002506492068884207D005492068884263
:1040200003D004492068884210D114E000240140E4
:1040300000280140003C0140C0220108300000205F
:1040400024499224922449124992240040F2564174
:10405000F948FCF774FB00BF94F82400012801D153
:10406000022070BD012084F8240000BF2046FFF725
:1040700095FD0546002D7DD1A06A40F6016188437B
:1040800040F48070A062ED492068884208D1EC4875
:10409000006800F4702008B9012002E0002000E070
:1040A000012078B1A06A20F48010A06220684068E6
:1040B00000F4806000B3A06A20F4005040F4805007
:1040C000A06219E0A06A40F48010A062DC49091FD8
:1040D0002068884203D0D9492068884204D1D84852
:1040E000006800F4806000E0002028B1A06A20F49D
:1040F000005040F48050A062A06A00F4805020B1CB
:10410000E06A20F00600E06201E00020E06200BF0B
:10411000002084F8240000BFC01E216808602068C9
:10412000406840F02000216848602068806800F402
:104130006020B0F5602F16D1C0492068884208D1B0
:10414000BF48006800F4702008B9012002E0002098
:1041500000E0012038B12068806840F4A0002168A8
:1041600088600CE006E02068806840F480102168D8
:10417000886004E000BF002084F8240000BF2846C7
:104180006FE770B504460025AD49091F20688842D5
:1041900007D0AA492068884203D0AA4920688842EB
:1041A00000D104E040F2C541A348FCF7C8FA00BFC3
:1041B00094F82400012801D1022070BD012084F868
:1041C000240000BF2046FFF7E1FA05465DB92068EC
:1041D000406820F0200021684860A06A20F48850E0
:1041E00040F00100A06200BF002084F8240000BF5E
:1041F0002846E2E7704770B505466C6AA06A40F051
:104200004000A062E06A40F00400E0622046FCF753
:104210006FFA70BD704770B50446656A2846FCF7B2
:1042200066FA70BD704770B505466C6AA06A00F00A
:104230005000E0B9A06A40F40070A0622068806875
:1042400000F46020B0F5602F0DD1E06858B9A06A85
:1042500020F48070A062A06A00F4805018B9A06AAF
:1042600040F00100A0622046FCF73DFA03E0206A1E
:10427000016B2846884770BD2DE9F04104460D4684
:10428000164600276E49091F2068884203D06D49F1
:104290002068884200D104E040F2FE416648FCF705
:1042A0004EFA6749091F2068884203D06349206895
:1042B000884204D16248006800F4702000E00020C9
:1042C00000287DD100BF94F82400012802D10220EB
:1042D000BDE8F081012084F8240000BF2046FFF7EC
:1042E0005DFC0746002F6CD1A06A40F6016188434F
:1042F00040F48070A06251492068884208D150483B
:10430000006800F4702008B9012002E0002000E0FD
:10431000012078B1A06A20F48010A0622068406873
:1043200000F4806000B3A06A20F4005040F4805094
:10433000A06219E0A06A40F48010A0624049091F01
:104340002068884203D03D492068884204D13C4817
:10435000006800F4806000E0002028B1A06A20F42A
:10436000005040F48050A062A06A00F4805020B158
:10437000E06A20F00600E06201E00020E06200BF99
:10438000002084F8240000BFAFF26510216A886223
:10439000AFF27D10216AC862AFF2A510216A0863EE
:1043A0006FF00200216808602068806840F4807027
:1043B00021688860226802F14C0133462A4601E0F8
:1043C0001DE017E0206A01F0F6FF2068806800F425
:1043D0006020B0F5602F06D12068806840F4A0000E
:1043E000216888600CE02068806840F480102168B3
:1043F000886005E000BF002084F8240000E0012769
:10440000384665E770B5044600250D49091F206848
:10441000884203D00B492068884200D104E040F272
:104420008B510548FCF78BF900BF94F82400012854
:104430000AD1022070BD0000C022010800280140FE
:1044400004240140003C0140012084F8240000BF06
:104450002046FFF79BF90546ADB92068806820F437
:10446000807021688860206A01F0EAFF054635B94E
:10447000A06A20F4885040F00100A06203E0A06A26
:1044800040F04000A06200BF002084F8240000BF7C
:104490002846CFE710B50446FE492068884207D079
:1044A000FD492068884203D0FC492068884200D139
:1044B00004E040F2CA51FA48FCF741F92068C06CA8
:1044C00010BD704710B50446F2492068884207D0F5
:1044D000F1492068884203D0F0492068884200D121
:1044E00004E040F2DB51EE48FCF729F9E06810B136
:1044F000E068012800D104E040F2DC51E848FCF714
:104500001EF9206918B12069102800D804E040F293
:10451000DD51E348FCF713F92068406800F0200003
:1045200020282FD12068006800F00200022829D13D
:10453000A06A00F0100018B9A06A40F40070A062F0
:104540002068806800F46020B0F5602F13D1E06827
:1045500088B92068406820F0200021684860A06A7F
:1045600020F48070A062A06A00F4805018B9A06A9C
:1045700040F00100A0622046FCF7B5F86FF0120091
:10458000216808602068406800F0800080283BD1E6
:104590002068006800F00400042835D1A06A00F00B
:1045A000100018B9A06A40F40050A062206880682A
:1045B00000F4E040B0F5E04F0DD02068406800F412
:1045C0008060D0B92068806800F46020B0F5602F6A
:1045D00013D1E06888B92068406820F08000216825
:1045E0004860A06A20F48050A062A06A00F4807045
:1045F00018B9A06A40F00100A062204600F0E9FE70
:104600006FF00C00216808602068406800F04000EE
:1046100040280FD12068006800F0010050B1A06A66
:1046200040F48030A0622046FFF74BFF6FF001009E
:104630002168086010BDF8B505460C46002600202C
:10464000009094492868884207D093492868884296
:1046500003D092492868884200D104E040F2AC615E
:104660008F48FCF76CF8206890B3206801282FD0A1
:10467000206802282CD02068032829D0206804282C
:1046800026D02068052823D02068062820D020685E
:1046900007281DD0206808281AD02068092817D0BC
:1046A00020680A2814D020680B2811D020680C2814
:1046B0000ED020680D280BD020680E2808D0206866
:1046C0000F2805D02068102802D02068112800D1BA
:1046D00004E040F2AD617248FCF731F860680128EF
:1046E0002CD06068022829D06068032826D0606832
:1046F000042823D06068052820D0606806281DD0D3
:10470000606807281AD06068082817D060680928F0
:1047100014D060680A2811D060680B280ED0606839
:104720000C280BD060680D2808D060680E2805D0D2
:1047300060680F2802D06068102800D104E040F2C1
:10474000AE615748FBF7FBFFA068A0B1A068012845
:1047500011D0A06802280ED0A06803280BD0A06852
:10476000042808D0A068052805D0A068062802D033
:10477000A068072800D104E040F2AF614848FBF789
:10478000DEFF00BF95F82400012801D10220F8BD0A
:10479000012085F8240000BF606807281DD2286822
:1047A000416B2079401E4FF4787292FAA2F2B2FA6D
:1047B00082F250431F22824021EA02002179491EE1
:1047C0004FF4787393FAA3F3B3FA83F3594322684F
:1047D0008A401043296848633DE060680D281DD277
:1047E0002868016B2079C01F4FF4787292FAA2F208
:1047F000B2FA82F250431F22824021EA020021795C
:10480000C91F4FF4787393FAA3F3B3FA83F35943B0
:1048100022688A401043296808631CE02868C16A3E
:1048200020790D384FF4787292FAA2F2B2FA82F23D
:1048300050431F22824021EA020021790D394FF4B2
:10484000787393FAA3F3B3FA83F3594322688A4047
:1048500010432968C86220680A2823D32868C168E1
:1048600020780A38382292FAA2F2B2FA82F2504341
:104870000722824021EA020021780A39382393FA7C
:10488000A3F3B3FA83F35943A2688A40104329681B
:10489000C8601FE00024014000280140003C0140A6
:1048A000C0220108286800692178382292FAA2F211
:1048B000B2FA82F2514307228A4090432278382389
:1048C00093FAA3F3B3FA83F35A43A16891400843E0
:1048D000296808612068102802D02068112827D193
:1048E0008049286888421ED12868806800F400004A
:1048F000F0B92868806840F4000029688860206862
:10490000102815D1784800687849B0FBF1F000EB29
:1049100080004000009002E00098401E0090009847
:104920000028F9D104E0A86A40F02000A86201261E
:1049300000BF002085F8240000BF304627E770B58F
:1049400005460C4667492868884207D068492868A8
:10495000884203D067492868884200D104E040F2C9
:1049600017716548FBF7EBFE2068B8B16349206812
:10497000884213D06249206888420FD0614920687C
:1049800088420BD02068B0F5000F07D02068B0F542
:10499000800F03D02068B0F5400F00D104E04FF441
:1049A000E3615548FBF7CBFEA06810B1A068012871
:1049B00000D104E040F219714F48FBF7C0FEE068F7
:1049C000B0F5805F00D204E040F21A714A48FBF76C
:1049D000B6FE2069B0F5805F00D204E040F21B71A2
:1049E0004548FBF7ACFE45492068884207D044495A
:1049F0002068884203D04349206888423AD16068E1
:104A000090B3606801282FD0606802282CD06068BD
:104A1000032829D06068042826D06068052823D0A0
:104A20006068062820D0606807281DD060680828C4
:104A30001AD06068092817D060680A2814D0606806
:104A40000B2811D060680C280ED060680D280BD0A0
:104A500060680E2808D060680F2805D060681028AC
:104A600002D06068112800D104E040F22171224890
:104A7000FBF765FE00BF95F82400012801D1022054
:104A800070BD012085F8240000BFA068012806D170
:104A90002868406840F040002968486005E02868C0
:104AA000406820F0400029684860D4E900010843CC
:104AB00029684968144A1140084329684860E06839
:104AC0002968486220692968886200BF002085F84B
:104AD000240000BF00BFD3E70146886A7047014643
:104AE000C86A7047002401403000002040420F0097
:104AF00000280140003C0140C02201080002800063
:104B0000000240000002C000E0FD3FFFF8B504468F
:104B1000002600200090FE492068884207D0FD4909
:104B20002068884203D0FC492068884200D103E015
:104B30009721FA48FBF703FE00BF94F824000128F0
:104B400001D10220F8BD012084F8240000BF2046D6
:104B5000FEF71CFE0646002E62D1A06A20F48850A3
:104B600040F00200A062022005F027FAEC49096833
:104B7000B1FBF0F04000009002E00098401E009071
:104B800000980028F9D12046FFF708F820688068CF
:104B900040F0080021688860FEF790FD054611E0AE
:104BA000FEF78CFD401B0A280CD9A06A20F00200F9
:104BB00040F01000A06200BF002084F8240000BF75
:104BC0000120BFE72068806800F008000028E7D1D6
:104BD0002068806840F0040021688860FEF76EFD60
:104BE000054611E0FEF76AFD401B0A280CD9A06AB1
:104BF00020F0020040F01000A06200BF002084F806
:104C0000240000BF01209DE72068806800F00400B8
:104C10000028E7D1A06A20F0020040F00100A06265
:104C200000BF002084F8240000BF30468AE770B53A
:104C300004460025B6492068884207D0B549206857
:104C4000884203D0B4492068884200D103E0FF21A4
:104C5000B248FBF774FD00BF94F82400012801D18D
:104C6000022070BD012084F8240000BF2046FEF71A
:104C700095FF0546002D57D1A06A42F201018843F5
:104C800040F48050A062A3492068884209D1A0481E
:104C9000001D006800F4702008B9012002E0002027
:104CA00000E0012020B1A06A20F48010A06203E09F
:104CB000A06A40F48010A062A06A00F4807008B975
:104CC0000020E06200BF002084F8240000BF401FE5
:104CD000216808602068406800F4806018BB206884
:104CE000806800F4E040B0F5E04F16D189492068B3
:104CF000884209D18648001D006800F4702008B978
:104D0000012002E0002000E0012030B1206880682E
:104D100040F40210216888600BE02068806840F44D
:104D200000402168886004E000BF002084F824006F
:104D300000BF284695E770B50446002574492068F1
:104D4000884207D073492068884203D0724920689E
:104D5000884200D104E04FF4B1717048FBF7EFFCDA
:104D600000BF94F82400012801D1022070BD012069
:104D700084F8240000BFA06A00F4807080B9206825
:104D8000406800F4806058B92046FEF7FFFC0546F5
:104D90005DB9A06A20F4885040F00100A06204E0F0
:104DA000A06A40F02000A062012500BF002084F826
:104DB000240000BF2846D9E7F8B504460D46002078
:104DC0000090002752492068884207D05149206846
:104DD000884203D050492068884200D104E04FF453
:104DE000CE714E48FBF7ABFCFEF768FC0646206828
:104DF000806B00F44010D0B912E0681C80B125B17E
:104E0000FEF75CFC801BA8420AD9A06A40F00400AF
:104E1000A06200BF002084F8240000BF0320F8BD7A
:104E20002068006800F004000028E6D050E002206E
:104E300005F0C3F83A490968B1FBF0F02168096947
:104E4000384A114091B92168C9689211114069B975
:104E500021680969344A114031B92168C968921141
:104E6000114009B9142117E0292115E021680969C9
:104E70002D4A114021B92168C9689211114041B1F0
:104E800021680969294A114029B92168C968114076
:104E900009B9542100E0FC2100FB01F715E0681C72
:104EA00080B125B1FEF70AFC801BA8420AD9A06A8E
:104EB00040F00400A06200BF002084F8240000BF7E
:104EC0000320ACE70098401C00900098B842E6D35D
:104ED0006FF00E0021680860A06A40F40050A062E4
:104EE0002068806800F4E040B0F5E04F0DD0206805
:104EF000406800F4806030BB2068806800F4602067
:104F0000B0F5602F1FD1E068E8B9A06A10E000009A
:104F10000024014000280140003C01400423010816
:104F200030000020244992249224491249922400FE
:104F300020F48050A062A06A00F4807018B9A06AC2
:104F400040F00100A062002069E770B5044600252A
:104F5000FA492068884207D0F9492068884203D07E
:104F6000F8492068884200D104E040F20D21F6485B
:104F7000FBF7E5FB00BF94F82400012801D10220D3
:104F800070BD012084F8240000BF2046FEF706FE15
:104F90000546002D5DD1A06A42F20101884340F42C
:104FA0008050A062E6492068884209D1E348001D8C
:104FB000006800F4702008B9012002E0002000E041
:104FC000012020B1A06A20F48010A06203E0A06A52
:104FD00040F48010A062A06A00F4807008B900203C
:104FE000E06200BF002084F8240000BF401F216859
:104FF00008602068406840F08000216848602068B0
:10500000406800F4806018BB2068806800F4E040CD
:10501000B0F5E04F16D1CA492068884209D1C74887
:10502000001D006800F4702008B9012002E0002093
:1050300000E0012030B12068806840F4021021684F
:1050400088600BE02068806840F400402168886038
:1050500004E000BF002084F8240000BF28468FE74A
:1050600070B504460025B5492068884207D0B44988
:105070002068884203D0B3492068884200D104E008
:105080004FF41C71B048FBF75AFB00BF94F82400A2
:10509000012801D1022070BD012084F8240000BF46
:1050A000A06A00F48070B0B92068406800F48060A5
:1050B00088B92046FEF76AFB05468DB9206840682E
:1050C00020F0800021684860A06A20F4885040F0F9
:1050D0000100A06204E0A06A40F02000A062012567
:1050E00000BF002084F8240000BF2846D3E7F0B5B5
:1050F0008DB004460E461746002590492068884228
:1051000000D104E040F2B6218F48FBF718FBE068BD
:1051100010B1E068012800D104E040F2B7218A48CC
:10512000FBF70DFB00BF94F82400012802D10220F8
:105130000DB0F0BD012084F8240000BF804801902C
:10514000019830B10198806800F46020B0F5602FBC
:105150000AD0A06A40F02000A06200BF002084F8BE
:10516000240000BF0120E3E72046FEF717FD0546B7
:105170001DB901A8FEF712FD0546002D46D1A06A13
:105180007249084040F48070A0622068406800F4D2
:10519000806028B1A06A20F4005040F48050A062E2
:1051A00000BF002084F8240000BFE0626848216A44
:1051B00088626848216AC8626748216A08636FF09C
:1051C0000200216808602068806840F480702168CF
:1051D0008860226802F14C013B463246206A01F0A9
:1051E000EAF82068806800F46020B0F5602F06D1EE
:1051F0002068806840F4A000216888600BE0206887
:10520000806840F480102168886004E000BF0020BE
:1052100084F8240000BF28468AE730B58DB00446E4
:10522000002546492068884200D104E040F235312B
:105230004548FBF784FA00BF94F82400012802D106
:1052400002200DB030BD012084F8240000BF2046AC
:10525000FEF79CFA0546ADBB39480190019850B95C
:10526000A06A40F04000A06200BF002084F8240043
:1052700000BF0120E5E701A8FEF788FA054655B111
:10528000A06A40F01000A06200BF002084F8240053
:1052900000BF0120D5E72068806820F48070216875
:1052A00088602068406820F4702021684860206A87
:1052B00001F0C6F8054635B9A06A20F4885040F0E0
:1052C0000100A06203E0A06A40F04000A06200BFBD
:1052D000002084F8240000BF2846B2E770B50446D9
:1052E0000D46002615492068884207D014492068D9
:1052F000884203D013492068884200D104E04FF46B
:1053000069711148FBF71BFA012D05D0022D03D05E
:10531000032D01D0042D00D104E040F2A5310A484C
:10532000FBF70DFA012D20D0022D1AD0032D15D038
:10533000042D19D12068866C1AE000000024014079
:1053400000280140003C014004230108FEFDEFFF5E
:105350002742000817420008F74100082068466C01
:1053600006E02068066C03E000BF2068C66B00BF43
:1053700000BF304670BD70B504460025FE49206868
:10538000884200D104E040F2C931FC48FBF7D7F96C
:10539000F9492068884207D0F9492068884203D03B
:1053A000F8492068884200D104E04FF47371F34853
:1053B000FBF7C5F92068C56CEF480830006800F4B9
:1053C000807020B9EE484C30006845EA0045284618
:1053D00070BD7047F8B505460C46002600200090C9
:1053E000E5492868884207D0E5492868884203D003
:1053F000E4492868884200D104E040F21441DF48C3
:10540000FBF79DF9206890B3206801282FD0206811
:1054100002282CD02068032829D02068042826D010
:105420002068052823D02068062820D02068072877
:105430001DD0206808281AD02068092817D02068B5
:105440000A2814D020680B2811D020680C280ED010
:1054500020680D280BD020680E2808D020680F285F
:1054600005D02068102802D02068112800D104E05F
:1054700040F21541C148FBF762F9A068A0B1A068ED
:10548000012811D0A06802280ED0A06803280BD0F4
:10549000A068042808D0A068052805D0A0680628C0
:1054A00002D0A068072800D104E040F21641B348BA
:1054B000FBF745F9A06910B1A069012800D104E00B
:1054C00040F21741AD48FBF73AF9E069B0F5005FEB
:1054D00031D0E069B0F5405F2DD0E069B0F5804F84
:1054E00029D0E069B0F5A04F25D0E069B0F5C04FF4
:1054F00021D0E069B0F5C04F1DD0E069B0F5005F84
:1055000019D0E069B0F5405F15D0E069B0F5A04F63
:1055100011D0E069B0F5C04F0DD0E069B0F5805F03
:1055200009D0E06938B1E069B0F5C04F03D0E06957
:10553000B0F5E04F00D104E04FF483618F48FBF7F2
:10554000FEF8E068B0F5805F00D204E040F2194157
:105550008A48FBF7F4F8A86808B36068012808D007
:105560006068022805D06068032802D060680428BB
:1055700000D104E040F21D418048FBF7E0F82069CB
:1055800018B12069042800D804E040F21E417B488D
:10559000FBF7D5F8606910B16069012800D104E01B
:1055A00040F21F417548FBF7CAF800BF95F8240088
:1055B000012801D10220F8BD012085F8240000BF98
:1055C000A868D0B96068012811D14FF4787191FAB8
:1055D000A1F1B1FA81F101EB41012068884029680D
:1055E000896B6FF315010843296888634EE0A86A48
:1055F00040F02000A862012648E0216960688842E6
:105600002FD861682069401AC0F103004FF4787107
:1056100091FAA1F1B1FA81F148431F21814041F48F
:1056200040112868806B884362682169891AC1F13A
:1056300003014FF4787292FAA2F2B2FA82F2514365
:10564000226802FA01F12269521E4FF4401393FAC4
:10565000A3F3B3FA83F39A4011430843296888639C
:1056600014E061682069401AC0F103004FF47871BA
:1056700091FAA1F1B1FA81F148431F21814041F42F
:1056800040112868806B884329688863286880688F
:1056900000F00100A8B92868806847F2010188433A
:1056A000384A2968914208D1E169B1F5C04F02D169
:1056B0004FF4804102E0E16900E0E16908432968B4
:1056C0008860A06901280FD1E069B0F5E04F06D1EC
:1056D0002868406840F480602968486004E0A86A4F
:1056E00040F02000A8620126606901280DD1A06960
:1056F00030B92868406840F480502968486004E068
:10570000A86A40F02000A862012620680A281BD35E
:105710002868C16820780A38382292FAA2F2B2FAD0
:1057200082F250430722824021EA020021780A399E
:10573000382393FAA3F3B3FA83F35943A2688A4058
:1057400010432968C86020E0286800692178382261
:1057500092FAA2F2B2FA82F2514307228A409043AF
:105760002278382393FAA3F3B3FA83F35A43A16858
:1057700091400843296807E0002401400423010800
:1057800000280140003C014008612068102802D038
:105790002068112805D12868806840F40000296835
:1057A00088606068012806D002280DD0032814D034
:1057B00004281BD11BE0286840696FF30B00E168E7
:1057C0000843296848611BE0286880696FF30B0073
:1057D000E16808432968886112E02868C0696FF3AE
:1057E0000B00E16808432968C86109E000BF286828
:1057F000006A6FF30B00E16808432968086200BF84
:1058000000BF2068102802D02068112827D14D49F8
:10581000286888421ED12868806800F40000F0B92A
:105820002868806840F40000296888602068102893
:1058300015D1454800684549B0FBF1F000EB800008
:105840004000009002E00098401E00900098002860
:10585000F9D104E0A86A40F02000A862012600BF48
:10586000002085F8240000BF3046A4E670B58CB057
:1058700005460C46002633492868884200D104E0DA
:1058800040F219513248FAF75AFF206818B32068DD
:10589000B0F5803F1FD02068B0F5003F1BD02068D6
:1058A000B0F5403F17D02068B0F5802F13D02068A6
:1058B000B0F5A02F0FD02068B0F5C02F0BD0206816
:1058C000B0F5E02F07D02068B0F5002F03D0206896
:1058D000B0F5102F00D104E040F21A511C48FAF73D
:1058E0002EFF00BF95F82400012802D102200CB041
:1058F00070BD012085F8240000BF1648009028687C
:10590000806800F0010088B90098806800F001000C
:1059100060B90C492868884208D12868406820F49A
:105920007020216808432968486004E0A86A40F0B4
:105930002000A862012600BF002085F8240000BFD7
:105940003046D4E7002401403000002040420F00E0
:10595000042301080028014010B5002807DA0A07CF
:10596000140ED04A00F00F031B1FD45403E00A07A3
:10597000130ECD4A135410BD10B50446072C07D0A2
:10598000062C05D0052C03D0042C01D0032C00D10B
:1059900003E0BA21C548FAF7D2FE00BF04F00701C0
:1059A000C04A0C3A10684FF6FF021040C04A02434A
:1059B00042EA0120BB4A0C3A106000BF10BD2DE93D
:1059C000F05F80460C4615460027102D00D203E0FC
:1059D000D221B648FAF7B3FE102C00D203E0D3214F
:1059E000B248FAF7ACFE00F057F9074639462246AE
:1059F0002B4601F00700C0F1070ABAF1040F02D9E3
:105A00004FF0040A01E0C0F1070AD14600F1040A90
:105A1000BAF1070F02D24FF0000A01E0A0F1030A29
:105A2000D4464FF0010A0AFA09FAAAF1010A0AEA71
:105A3000020A0AFA0CFA4FF0010B0BFA0CFBABF15D
:105A4000010B0BEA030B4AEA0B0631464046FFF70F
:105A500083FFBDE8F09F10B50446002C00DB03E097
:105A6000E6219248FAF76BFE00BF04F01F01012007
:105A700088406109890001F1E021C1F8000100BFFF
:105A800010BD10B50446002C00DB03E0F62187486A
:105A9000FAF755FE00BF04F01F0101208840854938
:105AA000620941F8220000BF10BD00BF00BF00BF67
:105AB00000BF00BFBFF34F8F00BF00BF00BF7948DA
:105AC0000C38006800F4E06079490843001D75490E
:105AD0000C39086000BF00BF00BFBFF34F8F00BF8D
