:020000040800F2
:10640000A827002071660008697100086B710008F8
:106410006F710008737100087771000800000000B8
:10642000000000000000000000000000CD65000832
:106430007B71000800000000116600087D710008F3
:106440008B6600088B6600088B6600088B66000868
:106450008B6600088B6600088B6600088B66000858
:106460008B6600088B66000885710008A57100081E
:106470008B6600088B6600088B6600088B66000838
:10648000C5710008D1710008B17100088B66000861
:106490008B6600088B6600088B6600088F71000809
:1064A0008B660008FB7100088B6600080572000807
:1064B000DD7100088B6600089B7100088B66000880
:1064C0008B6600088B6600088B6600088B660008E8
:1064D0008B6600088B660008BB7100088B6600089D
:1064E0008B6600088B6600088B6600088B660008C8
:1064F000E77100088B660008F17100088B660008E0
:106500008B6600088B6600088B6600088B660008A7
:106510008B6600088B6600088B6600088B66000897
:106520008B6600088B6600088B6600088B66000887
:1065300000F002F800F03AF80AA090E8000C82445B
:106540008344AAF10107DA4501D100F02FF8AFF238
:10655000090EBAE80F0013F0010F18BFFB1A43F041
:106560000103184744E4000064E40000103A24BF2B
:1065700078C878C1FAD8520724BF30C830C144BFA8
:1065800004680C60704700000023002400250026EA
:10659000103A28BF78C1FBD8520728BF30C148BF86
:1065A0000B6070471FB51FBD10B510BD0EF093F9FD
:1065B0001146FFF7F7FF00F091FB0EF0B1F903B4BD
:1065C000FFF7F2FF03BC0EF0B9F90000204B196889
:1065D0000868B0E8F00F80F30988BFF36F8F4FF0C1
:1065E000000080F311884EF00D0E7047000000008F
:1065F00006480068006880F3088862B661B6BFF399
:106600004F8FBFF36F8F00DF00BF00BF08ED00E0CA
:10661000EFF30980BFF36F8F0D4B1A6820E9F00F7D
:10662000106008B54FF0500080F3118802F0BEFEF4
:106630004FF0000080F31188BDE808401968086831
:10664000B0E8F00F80F30988BFF36F8F704700BF89
:1066500070000020EFF311804FF0500181F311889A
:10666000704780F311887047EFF305807047000092
:106670000948804709480047FEE7FEE7FEE7FEE7D6
:10668000FEE7FEE7FEE7FEE7FEE7FEE70448054912
:10669000054A064B70470000917B000831650008F1
:1066A000A8210020A8270020A8230020A82300203C
:1066B00010B50446B34801F013F9B34801F010F9DE
:1066C00010BD10B5044600224FF40071AF4808F029
:1066D00092F8052001F055FB01225102AB4808F069
:1066E0008AF810BD10B50446A64801F0F1F910BDB6
:1066F000F8B506460020A6490860A648007801289B
:106700004ED10020A34908700DF029FF802802D047
:10671000FF280AD104E003F0EFFD0DF003FD3EE099
:10672000002107200DF09EFF39E00DF045FF051216
:106730002946944801F0C0F80DF03EFFC5B2294645
:10674000914801F0B9F80DF037FF934908700846F9
:1067500000784FF226514843FF2190FBF1F04FF6AD
:10676000FF71081A8D4908808648007C8649097C9B
:1067700040EA4100C4B2844D0094AB78814DAA78C0
:10678000874D2D88A9B2874D2D88A8B20DF036FF10
:10679000002107200DF066FF0DF051FF00BF03E060
:1067A0000DF027FF0DF019FF02F07BFF04460020DB
:1067B00003462246022100907B48006803F074FBE8
:1067C000F8BD10B58CB003220021012001F07FFF3D
:1067D0007649086003220021012001F078FF744906
:1067E00008601422734907A80EF040F8002107A89A
:1067F00001F07AFA7049086014226E49143102A837
:106800000EF034F8002102A801F06EFA6B4908601E
:10681000AFF2231000231A460321009068A003F072
:10682000CFFC69490860AFF2431000231A464FF4C9
:106830007A71009065A003F0C3FC6749086002F01C
:1068400030FF0446002003462246012100906248A2
:10685000006803F029FBAFF2951000231A461421BB
:1068600000905EA003F0ACFC60490860AFF2BF107E
:1068700000231A464FF4FA6100905DA003F0A0FCDB
:10688000494908600CB010BD08B501F023FA00902A
:1068900000BF5A48007801282ED15948008840F698
:1068A000E441484340F6FF71B0FBF1F055490880E0
:1068B0005348408840F6E441484340F6FF71B0FB3E
:1068C000F1F0514908804E48008940F6E4414843C0
:1068D00040F6FF71B0FBF1F040F29651081A4FF408
:1068E0007A71484341F2CC0190FBF1F019304749ED
:1068F000086000204149087045480078012813D1FC
:106900000020434908703E490888424A424900F045
:1069100039FF424908803A4948883E4A121D404999
:1069200000F030FF3D4948800A21684601F005FE2D
:10693000AFE708B501F0CEF90090002400BF00F0E9
:106940004DF9601CC4B2012C02D0022C10D100E021
:1069500010E0344804F0EEFC08B100F0BDF9052267
:106960002749304804F02AFA08B100F0B5F901E0EF
:10697000032400BF00BF4FF47A71684601F0DDFDCB
:10698000DDE70000880100209A010020000C014092
:1069900030000020E900002010000020120000203C
:1069A00044000020480000202C0000201800002097
:1069B0001C0000204C4901080000002008000020B5
:1069C00074696D657200000020000020564D41740E
:1069D000696D65720000000024000020564D415290
:1069E0006573657454696D657200000028000020AD
:1069F0005561727454696D656F75740040000020B4
:106A000004010020380000203A0000203C00002053
:106A10004E00002024010020380100200E0100203B
:106A20004C0100209C02002000B585B000BF9F48AB
:106A3000806940F020009D4988610846806900F027
:106A40002000009000BF00BF00BF0846806940F0F2
:106A5000040088610846806900F00400009000BFCF
:106A600000BF00BF0846806940F008008861084602
:106A7000806900F00800009000BF00BF00BF08461A
:106A8000806940F0100088610846806900F01000BD
:106A9000009000BF00BF02200490800301900020FE
:106AA00002900120039001A9814807F075FC4FF482
:106AB00080600190002002900120039001A97D4890
:106AC00007F06AFC4FF40060019000200290012062
:106AD000039001A9774807F05FFC4FF480500190C4
:106AE000002002900120039001A9724807F054FC95
:106AF00004200190002002900120039001A96E481B
:106B000007F04AFC20200190002002900120039011
:106B100001A96A4807F040FC402001900120029042
:106B2000039001A9624807F037FC102001906448E7
:106B300002900220039001A9604807F02DFC4FF459
:106B4000807001905F4802900120039001A95B488A
:106B500007F022FC8020019001200290039001A9FF
:106B6000534807F019FC2020019001200290039067
:106B700001A9504807F010FC4FF40050019001208B
:106B80000290039001A94D4807F006FC4FF48040A5
:106B9000019001200290039001A9484807F0FCFBF6
:106BA0004FF40040019001200290039001A9434856
:106BB00007F0F2FB4FF400700190112002900020CA
:106BC00003900220049001A93C4807F0E5FB012254
:106BD00051023A4807F00FFE05B000BD10B5402144
:106BE000334807F00EFE10BD10B501224021304899
:106BF00007F001FE10BD10B5002240212C4807F01F
:106C0000FAFD10BD10B5012251022C4807F0F3FD2A
:106C100010BD10B500224FF40071284807F0EBFDBD
:106C200010BD10B54FF40061224807F0DCFD08B933
:106C3000012000E0002084004FF480611D4807F02F
:106C4000D2FD08B9012000E0002044EA40044FF4DE
:106C50000041174807F0C7FD08B9012000E00020F7
:106C60002043401C10BD38B50446102C1DD1002017
:106C700015490860154800F02EFF02F015FD054685
:106C80000020114B2A46072100901148006803F0AC
:106C90000BF902F009FD054600200B4B2A4607219F
:106CA00000900C48006803F0FFF838BD0010024067
:106CB000000801400010014000140140000C014098
:106CC0000000111000002110340000208801002075
:106CD000240000202800002000BFFEE703F093FB03
:106CE00000F09FF9FFF76DFDFFF79EFEFFF799FF9C
:106CF000964908700DF0FDF90DF066FB94480DF013
:106D00007AFB002107200DF0ADFC002091490860BE
:106D100048608860C860086100F006FC8E4800F09A
:106D200056FC02218D4800F085FD8C4800F0A6FD40
:106D300003218B4800F07EFD894800F09FFD00F0A4
:106D4000E3FE40F6FF7300221146864805F0DFFAA5
:106D500008B1FFF7C1FF0021824805F0A3F908B18F
:106D6000FFF7BAFF00F0A8FF00BFFEE710B504462A
:106D70007D492068884201D103F066FB2068B0F1AC
:106D8000804F07D1754800F0B2FD784800884FF079
:106D90008041C86210BD10B50446012074490870D6
:106DA00074490870744988886A4A0832734900F047
:106DB000E9FC734988807049C888664A0C32714979
:106DC00000F0E0FC6E49C8806F4800780A2809D1BD
:106DD000084680886D4988806948C088C88001203D
:106DE0006B49087068480078401C6749087068481B
:106DF0000078012832D1002008706148C0886349BA
:106E0000C988401A45F6C05148436049C98840F6D0
:106E1000FF72511AB0FBF1F05E4908605848808853
:106E20005A498988401A4FF47A61484357498988FA
:106E3000511AB0FBF1F05849086056480068B0F5A7
:106E40007A6F02D90020534908605348006845F61C
:106E5000C051884202D900204F49086010BD10B5CA
:106E60004D48006840F6B831884203D93C4800F0EC
:106E700015FE02E03A4800F073FD10BD10B545481C
:106E8000006842F21071884203D9344800F006FECF
:106E900002E0324800F064FD10BD10B504463F49E1
:106EA0002068884232D1207E09282ED2DFE800F007
:106EB0002C05062D162D2D2D270026E02848807B39
:106EC00038B9FFF7CCFF2648C0883449383108600C
:106ED00003E0002031493831086016E02048807B0B
:106EE000012807D1FFF7BBFF1D48C0882B493C3163
:106EF000086003E0002029493C31086005E00020DB
:106F000026494031086000E000BF00BF24492068E6
:106F1000884216D1207E092812D2DFE800F0100541
:106F20000D110E1111110F00FFF7A8FF0B48C088BB
:106F30001B493431086003E002E001E000E000BFDB
:106F400000BF10BD7047FFF7C7FE0000FC00002027
:106F500094200020240100209C02002088010020B1
:106F60009A010020040300200008004012000020C5
:106F7000400000204E00002004010020600100209D
:106F80000E010020740100204C0000201801002098
:106F90004D00002048000020440000200034014043
:106FA000002C014008B500BF4248806940F0010054
:106FB000404988610846806900F00100009000BFE8
:106FC00000BF032004F0F4FE002211466FF00B0016
:106FD00004F000FF002211466FF00A0004F0FAFEF0
:106FE000002211466FF0090004F0F4FE0022114661
:106FF000501F04F0EFFE00221146101F04F0EAFEBD
:1070000000220F21901E04F0E5FE00220F21501EE9
:1070100004F0E0FE2848406820F0E060264948601F
:1070200008BD10B596B009200C904FF480300D903B
:1070300000200E9001201090129002201390C103A6
:1070400014914FF4E01115910CA807F05EFD08B102
:10705000FFF742FE0F2007900220089000200990C1
:107060004FF480600A9000200B90022107A808F0DE
:10707000D3F908B1FFF730FE0120019040020290E1
:1070800001A808F02FFC08B1FFF726FE08F063FB0B
:107090004FF47A71B0FBF1F4204604F011FF0420A4
:1070A00004F0AEFF00220F21501E04F093FE16B034
:1070B00010BD0000001002400000014070B588B013
:1070C000044600250026002221461E2004F082FEF0
:1070D0001E2004F0BDFE00BF1F48C06940F0040040
:1070E0001D49C8610846C06900F00400019000BF56
:1070F00000BF02A903A808F0BDFB08F02FFB450064
:107100001648B5FBF0F0461E15481649086040F2D7
:10711000E7311448C160466000210161816008F0D8
:10712000B4FD20B90F4808F019FE08B070BD012069
:10713000FBE70C480068C06820F0010009490968B5
:10714000C860704707480068C06840F00100054902
:107150000968C860704700000010024040420F00FC
:1071600000080040AC010020704700BFFEE700BFF0
:10717000FEE700BFFEE700BFFEE7704710B501F075
:10718000ACF910BD10B5102007F057FB10BD10B5BD
:107190004FF4807007F051FB10BD10B51C480AF089
:1071A000A3F810BD10B51B49086A05F08FFF10BD8C
:1071B00010B5184803F0FBFE10BD10B516480CF0D2
:1071C000E6FD10BD10B51449486B05F07FFF10BDFA
:1071D00010B51149086B05F079FF10BD10B50F48C7
:1071E0000AF082F810BD10B50D480AF07DF810BD08
:1071F00010B50B480AF078F810BD10B509480AF030
:1072000073F810BD10B507480AF06EF810BD000005
:10721000AC0100209C0200209420002024020020C9
:1072200060020020E801002010B54FF08040B54911
:107230000860472048600021B24881604FF6FF7126
:10724000C1600021016109F0A1F808B1FFF744FD18
:1072500010BD00B58FB0AC48AC490860472048600D
:10726000C721AA48C160002181604161016109F024
:107270008DF808B1FFF730FD6020089000200A90DB
:107280000B904FF480700D9000200E900C900990A0
:10729000042208A99D480AF00AFB08B1FFF71CFD6B
:1072A000082208A999480AF002FB08B1FFF714FD6B
:1072B00000200590FF2004904FF4006001904010E2
:1072C0000290002003904FF4005006904000079079
:1072D00001A98E480BF0CFFE08B1FFF7FDFC0FB0FF
:1072E00000BD00B587B08A488A49086047204860D9
:1072F00000218848816044F61F61C160002101615E
:1073000009F044F808B1FFF7E7FC6020009040F274
:10731000DC5001900020029004900390069000221F
:1073200069467C480AF0C3FA08B1FFF7D5FC07B0FC
:1073300000BD10B586B004462068B0F1804F15D16D
:1073400000BF7548C06940F001007349C861084634
:10735000C06900F00100019000BF00BF00220A21B7
:107360001C2004F037FD1C2004F072FD68492068E1
:10737000884253D100BF6848806940F004006649E4
:1073800088610846806900F00400019000BF00BFDA
:1073900000BF0846806940F008008861084680699F
:1073A00000F00800019000BF00BF00BF08468069E0
:1073B00040F0100088610846806900F010000190DC
:1073C00000BF00BF00BF0846806940F02000886110
:1073D0000846806900F02000019000BF00BF00BF98
:1073E0000846806940F4006088610846806900F4BE
:1073F0000060019000BF00BF0F2200211B2004F09D
:10740000E9FC1B2004F024FD4FF480700290022060
:107410000390059002A9414806F0BEFF3A49206852
:1074200088426DD100BF3C48806940F004003A4971
:1074300088610846806900F00400019000BF00BF29
:1074400000BF0846806940F00800886108468069EE
:1074500000F00800019000BF00BF00BF084680692F
:1074600040F0100088610846806900F0100001902B
:1074700000BF00BF00BF0846806940F0200088615F
:107480000846806900F02000019000BF00BF00BFE7
:107490000846806940F4005088610846806900F41D
:1074A0000050019000BF00BF002201212E2004F0F7
:1074B00091FC2E2004F0CCFC80200290022003904E
:1074C000059002A9164806F067FF4FF480700290FD
:1074D00002200390059002A9114806F05DFF0120EB
:1074E000029002200390059002A90E4806F054FF76
:1074F000022002900390059002A90A4806F04CFF72
:1075000006B010BD240200200034014060020020BB
:10751000002C0140E801002000100240000801405A
:1075200000100140000C01400EB5904890490860E1
:10753000002048604FF480718D4881600121C16056
:10754000052101610121416181614FF46021C16127
:1075500003F012F808B1FFF7BFFB0A2000900120EA
:107560000190062002906946814803F0B1FD08B100
:10757000FFF7B2FB0B2000900220019069467C4887
:1075800003F0A6FD08B1FFF7A7FB0C200090032035
:1075900001906946764803F09BFD08B1FFF79CFB1C
:1075A0000D200090042001906946714803F090FD81
:1075B00008B1FFF791FB102000900520019069466B
:1075C0006B4803F085FD08B1FFF786FB0EBD10B5D3
:1075D0008CB0044600BF6748806940F010006549E0
:1075E00088610846806900F01000019000BF00BF6C
:1075F00000BF0846806940F0100088610846806935
:1076000000F01000019000BF00BF00BF0846806975
:1076100040F0100088610846806900F01000019079
:1076200000BF00BF00BF0846806940F010008861BD
:107630000846806900F01000019000BF00BF00BF45
:107640000846806940F4007088610846806900F44B
:107650000070019000BF00BF0220029080030490E0
:1076600002A808F03FF900BF4248406940F001001D
:10767000404948610846406900F00100019000BFA0
:1076800000BF012008900320099000200A9008A95B
:10769000394806F081FE022008900320099000205E
:1076A0000A9008A9344806F077FE042008900320C9
:1076B000099000200A9008A92F4806F06DFE0820C6
:1076C00008900320099000200A9008A92A4806F093
:1076D00063FE2A482A4908600020486000212848A3
:1076E00081608021C16049000161890041612021E0
:1076F00081610021C16104F057FE214804F02AFE97
:1077000000BF1F482062446200BF00220F210B20EF
:1077100004F060FB0B2004F09BFB0CB010BD10B517
:1077200004461448C06840F400701249C860084616
:10773000C06820F40070C86001210F4806F0B7FF50
:1077400002210D4806F0B3FF04210B4806F0AFFFFD
:107750000821094806F0ABFF206A10B1206A04F046
:1077600023FE0B2004F081FB10BD0000002401402B
:107770009C0200200010024000100140080002405E
:10778000CC02002010B50346107800F0010040B391
:107790001088C0F3470031F810001468C0EB54247F
:1077A000106864F35F201060106803EB502464F3EA
:1077B0005F2010601088C0F3470021F81030108857
:1077C000C0F34700092804DB106820F4FF70106044
:1077D00028E010884008401C146860F348041460D6
:1077E00020E0106803EB502464F35F2010601088E1
:1077F000C0F3470021F810301088C0F34700092873
:1078000009DB106820F4FF701060106820F00100A0
:10781000401C106006E010884008401C146860F3AB
:10782000480414601068400A0A2490FBF4F080B207
:1078300010BD000070B504460D4600206073A073B3
:107840002080A0702072207401206074002060727B
:10785000A072E572E07A022808D10020E07340F2BD
:10786000DC50A080E080FFF73CFD06E0E07A0328D2
:1078700003D10120E073FFF7ECFC70BD10B50446A6
:10788000E07A022804D10021984808F022FE12E094
:10789000E07A03280FD10421954808F01AFE04214C
:1078A00093480BF002F90821914808F012FE0821D4
:1078B0008F480BF0FAF810BD802905DDC1F5807204
:1078C00082700122827302E081700022827331B9DA
:1078D00000220274C27A032A01D10122C2737047C6
:1078E00000B5034600211846FFF7E6FF00BD10B5BE
:1078F0008048007800EB40007F490A5C4FF400515B
:107900007E4806F078FF7B48007800EB40007A491B
:10791000084442784FF48041784806F06CFF75487F
:10792000007800EB40007449084482784FF400412D
:10793000724806F060FF6F480078401C6D4908707F
:1079400008460078062801D10020087010BDC17AD1
:10795000022903D140F2DC51C18000E000BF704732
:1079600030B50246D07A02284FD190784FF4C871D2
:1079700048437F21B0FBF1F083B2D07B012800D1D6
:1079800000E00020117C09B9012100E0002108403D
:10799000002836D00020D188B1F5C86F01DD012163
:1079A00000E00021D488B4F5AF6F01DA012400E0D3
:1079B0000024214309B10A2000E00A20917B19B973
:1079C00003F2DC51918003E040F2DC51C91A91804E
:1079D0009488D588611B002901DB0C4600E04C42ED
:1079E00084420BDD9188D488A14203DDD188014413
:1079F000D18005E0D188091AD18001E09188D18039
:107A000037E01046FFF7A3FF33E0D07A032830D1E8
:107A10009078C0EB801000EB40007F21B0FBF1F3C9
:107A2000D07B012800D100E00020117C09B90121A0
:107A300000E000210840C8B193809188D488081BD9
:107A4000002801DB014600E041420A290BDD908855
:107A5000D188884203DDD0880A30D08009E0D08800
:107A60000A38D08005E09088D08002E01046FFF709
:107A70006EFF30BD10B5044622462021204806F096
:107A8000BAFE10BD10B504460CB9012000E000207C
:107A9000024680211B4806F0AEFE10BDC17A0229C5
:107AA00015D1C188A1F2DC510A2903DDC1880A3948
:107AB000C1800CE0C18840F2DC52511A0A2903DD72
:107AC000C1880A31C18002E040F2DC51C1807047B8
:107AD0000121C17370470021C17301210174017A32
:107AE000491C01720021417441727047E801002075
:107AF00060020020610000204F000020000C0140C7
:107B0000001001400008014010B51C481C490860E5
:107B1000084604F0A0FA00201A49086048600022D4
:107B2000174804F0C8FB10BD10B586B0044600BF6E
:107B30001548806940F0040013498861084680694F
:107B400000F00400019000BF00BF00BF0846C069FC
:107B500040F00050C8610846C06900F00050019034
:107B600000BF00BF1020029003200390002004906B
:107B700002A9064806F010FC06B010BD00740040D3
:107B800004030020640000200010024000080140AF
:107B90003448006840F001003249086008464068F7
:107BA000314908402F494860084600682F4908407D
:107BB0002C4908600846006820F4802008600846C8
:107BC000406820F4FE0048604FF41F008860284899
:107BD00028490860704710B5002100200022214B81
:107BE0005B6803F00C0121B1042906D0082928D1D3
:107BF00007E0214B214C236027E01F4B1F4C2360E3
:107C000023E0184B5B6803F47010164B5B6803F4B9
:107C10008032022303EB904022B9194B4343174CA7
:107C200023600DE00F4B5B6803F4003323B1144B6A
:107C30004343124C236003E00F4B43430F4C23603C
:107C400003E00D4B0D4C236000BF00BF054B5B688C
:107C5000C3F303130B4CE15C084B1B68CB40074C90
:107C6000236010BD001002400000FFF8FFFFF6FE89
:107C70000064000808ED00E000127A006C000020AB
:107C800000093D007449010801460020842901D003
:107C9000CA1C10447047014684200A46062A02D8AE
:107CA0000A46D21E10B2704700BFEFF3058008B13C
:107CB000012070470020FCE710B501F0C7FC002050
:107CC00010BD10B501F01BFE012801D1002010BD30
:107CD0000120FCE710B5FFF7E7FF10B101F0E4FC6D
:107CE00010BD01F0DEFCFBE770B586B004460D4622
:107CF000B4F90800FFF7C8FF0646002005AACDE941
:107D0000012000960390238A9AB22B46D4E90010F2
:107D100001F06DF8012802D0002006B070BD059872
:107D2000FBE710B501F0E8FD10BD10B50446204694
:107D300001F0E3F8002010BD10B502F0D3FA0020E6
:107D400010BD70B505460C462046FFF79DFF064660
:107D50003146284601F0BFFA002070BD70B50446D8
:107D6000FFF7A2FF30B1204601F0A2FA0546FFF767
:107D700092FF70BD204601F08CFA0546FFF78BFF9D
:107D8000F7E770B5044625460DB1294600E001210C
:107D9000084601F05AFA002070BDF8B504460D46B9
:107DA000164620680090012D01D1012000E000203E
:107DB000024633460121FDA002F002FAF8BD2DE98A
:107DC000FC4106460C46002700200190254605B9D7
:107DD0000125FFF769FF90B1002001AB2A46092178
:107DE0000090304602F060F8012801D0FF2711E032
:107DF000019878B14FF08050ED4908600AE000200A
:107E000003462A4604210090304602F04DF801282E
:107E100000D0FF273846BDE8FC817CB5044600252C
:107E200000200190FFF740FF90B1002001AB024617
:107E300008210090204602F037F8012801D0FF20E9
:107E40007CBD019878B14FF08050D94908600AE0B4
:107E500000200346024603210090204602F024F849
:107E6000012800D0FF252846EAE738B5044600255A
:107E7000FFF71AFF08B1822038BD4FF0FF30002312
:107E80001A4605210090204602F00EF8012800D085
:107E9000FF252846F0E77CB504460D4600200190FA
:107EA000FFF702FF90B101A80023012229460090AC
:107EB000204601F002FF012801D0FF207CBD01987F
:107EC00070B14FF08050BA49086009E000230122E8
:107ED0002946204601F09EFE012801D0FF20EDE753
:107EE0000020EBE7FEB506460F4614460020019041
:107EF0000025601C08B96D1E03E014B1254605B9C4
:107F00000125FFF7D1FE10B18220009016E02B462C
:107F100001AA3946002001F01BFE012806D015B940
:107F2000002000900AE04020009007E0019800281F
:107F300002DA8620009001E0082000909DE807000A
:107F400086E80700FEBD10B50446012000F0E5FC00
:107F500010BDF8B506460C46002000900EB98020F2
:107F6000F8BD0025601C08B96D1E03E014B125465C
:107F700005B90125FFF798FE78B16A460021304621
:107F800000F001FE012801D0FF20E9E7009870B160
:107F90004FF080508649086009E000232A461946C0
:107FA000304600F062FD012801D0FF20D8E7002014
:107FB000D6E738B50446002500200090FFF774FE90
:107FC00070B16946204600F001FD012801D0FF2074
:107FD00038BD009868B14FF080507549086008E0DE
:107FE00000231A461946204600F022FC012800D042
:107FF000FF252846ECE710B50446FFF755FE08B10B
:10800000822010BD204600F032FE0020F9E770B556
:1080100006460D46012D0ED103220021012000F05D
:1080200056FB04462CB100231A461946204600F0A0
:10803000FFFB204670BD0020FCE7F8B506460C4665
:10804000002000900EB98020F8BD0025601C08B902
:108050006D1E03E014B1254605B90125FFF724FE86
:1080600078B16A460021304600F08DFD012801D02C
:10807000FF20E9E7009870B14FF080504C4908604C
:1080800009E000232A461946304600F0EEFC01289C
:1080900001D0FF20D8E70020D6E738B504460025F8
:1080A00000200090FFF700FE70B16946204600F006
:1080B0008DFC012801D0FF2038BD009868B14FF039
:1080C00080503B49086008E000231A4619462046C4
:1080D00000F0AEFB012800D0FF252846ECE710B5E4
:1080E0000446FFF7E1FD08B1822010BD204600F0F4
:1080F000BEFD0020F9E72DE9F04105466868C01C87
:1081000080088700142002F029F904461CB328686F
:10811000A060E76000202061286802F01FF960601D
:108120006068C8B1296801FB07F002F017F9206008
:10813000206848B1002603E0002061688855761C5D
:108140002868B042F8D80BE0606802F038F92046A1
:1081500002F035F9002403E0204602F030F9002453
:108160002046BDE8F0812DE9F04104460027B846DD
:10817000FFF79AFD18B1FEF76DFA074601E002F02D
:10818000BBF8002617E020698519A068A84200D82E
:1081900000256068405D68B9012061684855E16864
:1081A000206805FB0108256108E0000000000000D0
:1081B00004ED00E0761CA068B042E4D800BFFFF7F1
:1081C00073FD18B13846FEF74CFA01E002F0A1F851
:1081D0004046BDE8F08170B505462846FFF7C3FF6D
:1081E00004460CB100202060204670BD10B5024648
:1081F0000B460AB9802010BD0BB98020FBE7106840
:10820000984201D98020F6E71068191AD068B1FBAE
:10821000F0F400FB141008B18020ECE7D068B1FB4B
:10822000F0F19068884201D88020E4E7002054688B
:10823000605400BFDFE770B504460D460022D4E964
:10824000000100F044FA70BD77B581B006461446CF
:1082500000200090254605B90125FFF725FD88B1CE
:1082600000236A4602A9304600F07BFB012802D0B9
:10827000FF2004B070BD009870B14FF08050D2491B
:10828000086009E000232A4602A9304600F0D0FA2F
:10829000012801D0FF20ECE70020EAE72DE9FF41AB
:1082A00007460D4614460295002001903DB98020F6
:1082B00000909DE8070087E80700BDE8FF810020E7
:1082C00003900026601C08B9761E03E014B1264610
:1082D00006B90126FFF7E8FC90B103AA01A92846D8
:1082E00000F051FC012802D11020009001E0002094
:1082F00000900398A0B14FF08050B34908600FE0A0
:108300000023324601A9284600F0AFFB012802D124
:108310001020009004E00EB9002000E04020009002
:108320009DE8070087E8070000BFC6E73EB50446A2
:108330000D46002000900190029020680090606837
:1083400001900C2002F00AF8A1680860A06800689B
:1083500008B900203EBDA068006804600022042126
:10836000206800F0B4F9A16809684860A068006856
:10837000406828B9A168086802F021F80020E9E700
:108380006846FFF7B8FEA16809688860A0680068C1
:10839000806828B9A168086802F011F80020D9E7C0
:1083A000A0680068D6E770B504460E460CB90020F8
:1083B00070BDA068FFF7D7FE05462846F8E72DE90F
:1083C000F04106460F4639463046FFF7ECFF0546BA
:1083D00035B1002402E000202855641C042CFAD397
:1083E0002846BDE8F08113B582B0044614B9802058
:1083F00004B010BD00200190FFF756FC80B10023AF
:1084000001AA03A9606800F0ACFA012801D0FF209E
:10841000EEE7019870B14FF080506B49086009E0B9
:1084200000231A4603A9606800F002FA012801D06F
:10843000FF20DDE70020DBE72DE9FF4107460C4682
:10844000154602943CB9802000909DE8070087E81B
:108450000700BDE8FF81002003900026681C08B9D2
:10846000761E03E015B12E4606B90126FFF71CFC67
:1084700090B103AA01A9606800F085FB012802D130
:108480002020009001E0002000900398A0B14FF060
:1084900080504D4908600FE00023324601A9606812
:1084A00000F0E3FA012802D12020009004E00EB988
:1084B000002000E0402000909DE8070087E80700CA
:1084C00000BFC6E730B504460D460CB9802030BD6C
:1084D0002946A068FFF78AFEF9E710B501F00FFA08
:1084E000012801D001F022FF10BD10B5044620463E
:1084F00000F082FF002010BD10B50446FFF7D4FB4A
:1085000040B1204601F00EF8012806D100072E499F
:10851000086002E0204600F0D6FF002010BD10B534
:1085200000F04EFE002010BD10B500F0A4FD0128A3
:1085300001D1002010BDFF20FCE770B505460C46B8
:1085400026460EB1304600E001200146284600F0E4
:108550003DFE002070BD014600207047FEB5074675
:108560000D461446029535B9802000909DE807001D
:1085700087E80700FEBD0026601C08B9761E03E0F0
:1085800014B1264606B901260123324601A9284620
:1085900000F06BFA012802D11020009004E00EB91F
:1085A000002000E0402000909DE8070087E80700D9
:1085B00000BFDFE701460020704701468120704779
:1085C000024681207047000004ED00E000F1080140
:1085D00041604FF0FF31816000F10801C16001612D
:1085E00000210160704700210161704742684A60C4
:1085F00093688B60936859609160086103685B1CA5
:108600000360704710B502460B685C1C0CB910691A
:1086100007E002F1080000E04068446824689C42DA
:10862000FAD944684C604C68A160886041600A6176
:108630001468641C146010BD01460A69D1E9013058
:108640009860D1E9010358605068884201D1886878
:108650005060002008611068401E1060106870476C
:1086600070B505460E462C4601F046FED4E90F12C1
:10867000206801FB020060600020A0632068A06009
:10868000E06B401E226C216800FB0210E0604FF09E
:10869000FF306064A06476B9206908B9012000E069
:1086A000002080B904F1100001F08EF801280AD1F1
:1086B00001F018FE07E004F11000FFF787FF04F156
:1086C0002400FFF783FF01F024FE012070BD2DE997
:1086D000F04706460D4691464FF000080DB90027B9
:1086E00002E006FB05F0471C07F14C0001F036FEE6
:1086F000044664B10DB9246002E004F14C0020602E
:10870000E663256401212046FFF7AAFFA046404604
:10871000BDE8F08710B5044601F0EEFD11E0606A97
:1087200008B9012000E0002038B904F1240001F06C
:108730004BF818B101F0DCF800E005E0A06C401E39
:10874000A064A06C0028EADC00BF4FF0FF30A064FA
:1087500001F0DFFD01F0D0FD11E0206908B9012032
:1087600000E0002050B904F1100001F02DF808B12C
:1087700001F0BEF8606C401E606400E002E0606CD6
:108780000028EADC00BF4FF0FF30606401F0C1FD5B
:1087900010BD70B5054601F0AFFDA86BE96B8842CE
:1087A00001D1012400E0002401F0B3FD204670BD9A
:1087B0002DE9F04104460E4615460027206C40B9CD
:1087C000206878BB606801F01CF9074600206060F3
:1087D00028E07DB93146226CA0680CF002F8216CCB
:1087E000A0680844A060D4E9011088421AD3206828
:1087F000A06017E03146226CE0680BF0F2FF216CBC
:10880000E068401AE0602168E068884203D2216C89
:108810006068401AE060022D04D1A06B10B1A06B1B
:10882000401EA063A06B401CA0633846BDE8F081E9
:108830002DE9FF4383B0074688461D464FF00009E7
:108840003C4600BF01F058FDA06BE16B884201D3AC
:10885000022D1DD12A4641462046FFF7A9FF0646B4
:10886000606A08B9012000E0002040B904F124004A
:1088700000F0AAFF012805D101F034FD02E00EB19D
:1088800001F030FD01F045FD012007B0BDE8F083A7
:10889000059818B901F03DFD0020F6E7B9F1000F89
:1088A00004D101A800F0F3FF4FF0010901F031FD00
:1088B00000F086FC01F020FD606C401C08B900202F
:1088C0006064A06C401C08B90020A06401F021FD88
:1088D00005A901A800F0E2FFC0B92046FFF759FF43
:1088E00070B104F11000059900F0E5FE2046FFF795
:1088F00011FF00F0C0FB0028A4D101F0F3FCA1E7B8
:108900002046FFF707FF00F0B6FB9BE72046FFF786
:1089100001FF00F0B0FB0020B7E770B505464C2022
:1089200001F01CFD0446D4B1002060602060A0600E
:10893000E060A0630120E06300202064401E6064CA
:10894000A06404F11000FFF741FE04F12400FFF7DA
:108950003DFE00231A4619462046FFF769FF2046D0
:1089600070BD2DE9F0470546894616461F462C4640
:10897000FDF770FE8246A06BE16B884201D3022FA7
:108980001CD13A4649462046FFF712FFA06C401C16
:1089900070B9606A08B9012000E0002058B904F1FC
:1089A000240000F011FF30B12EB10120306002E050
:1089B000A06C401CA0644FF0010801E04FF00008DB
:1089C0005046FDF74EFE4046BDE8F0872DE9F041E8
:1089D00005460E462C46FDF73DFE8046A06BE16B3A
:1089E000884219D2A06B401CA063A06C401C70B9D7
:1089F000606A08B9012000E0002058B904F12400A1
:108A000000F0E2FE30B12EB10120306002E0A06C37
:108A1000401CA064012700E000274046FDF721FE2E
:108A20003846BDE8F08170B5054601F065FCA86BDD
:108A300008B9012400E0002401F06BFC204670BD61
:108A400070B504460D46206C70B1216CE068084496
:108A5000E0606168E068884201D32068E0602846F1
:108A6000226CE1680BF0BDFE70BD2DE9FF4383B0C1
:108A7000054688461E464FF000092C4600BF01F00F
:108A80003BFCA06B80B3E76841462046FFF7D8FF68
:108A9000B6B9A06B401EA063206810B900F0FAFFC1
:108AA0006060206908B9012000E00020B0B904F13D
:108AB000100000F089FE012810D101F013FC0DE038
:108AC000E760606A08B9012000E0002030B904F1D5
:108AD000240000F079FE08B101F004FC01F019FC5B
:108AE000012007B0BDE8F083FFE7059818B901F051
:108AF00010FC0020F5E7B9F1000F04D101A800F047
:108B0000C6FE4FF0010901F004FC00F059FB01F032
:108B1000F3FB606C401C08B900206064A06C401C32
:108B200008B90020A06401F0F4FB05A901A800F039
:108B3000B5FE08BB2046FFF776FFB8B1206830B914
:108B400001F0DAFB606800F0E6FE01F0E2FB04F100
:108B50002400059900F0AFFD2046FFF7DBFD00F093
:108B60008AFA00288BD101F0BDFB88E72046FFF789
:108B7000D1FD00F080FA82E72046FFF7CBFD00F040
:108B80007AFA0020ADE72DE9F047054688461646FB
:108B90002C46FDF75FFD8146A06BE8B141462046BB
:108BA000FFF74EFFA06B401EA063606C401C70B9C5
:108BB000206908B9012000E0002058B904F1100034
:108BC00000F002FE30B12EB10120306002E0606C96
:108BD000401C6064012700E000274846FDF741FD86
:108BE0003846BDE8F0872DE9F047054688462C4613
:108BF000FDF730FD8146A06B38B1E768414620465D
:108C0000FFF71EFFE760012600E000264846FDF75B
:108C100028FD3046BDE8F08770B5044601F06CFBD6
:108C2000A56B01F076FB284670BD70B5044625465D
:108C300001F062FBD5E90E10461A01F06AFB3046DE
:108C400070BD0146886B7047014600200BE02F4A3B
:108C500002EBC00252688A4204D100222B4B43F837
:108C6000302002E0401C0828F1D300BF704770B5E7
:108C7000044625462846FFF7E7FF284601F09FFBFC
:108C800070BD01468A6B0AB9012000E000207047E0
:108C900001468A6BCB6B9A4201D1012000E0002093
:108CA0007047024600200BE0184B53F8303033B9C0
:108CB000164B43F8301003EBC0035A6002E0401C2F
:108CC0000828F1D300BF70472DE9F04105460E4654
:108CD00017462C4601F010FB606C401C08B90020C0
:108CE0006064A06C401C08B90020A06401F011FB76
:108CF000A06B28B93A46314604F1240000F037FD54
:108D00002046FFF707FDBDE8F081000018030020B2
:108D100010B5002407E004EB8401F84A02EB81005F
:108D2000FFF754FC641C072CF5D3F548FFF74EFC05
:108D3000F448FFF74BFCF448FFF748FCF348FFF713
:108D400045FCF348FFF742FCED48F2490860ED4866
:108D5000F149086010BD2DE9F04704460F4615465D
:108D60009946DDF82080002607E0B95D04F1340063
:108D70008155B85D00B902E0761C102EF5D300BF16
:108D8000002143200155072D00D30625E5626564C7
:108D90000020A064201DFFF726FC04F11800FFF757
:108DA00022FC2461C5F10700A06164620020E06438
:108DB00084F85000BDE8F0872DE9F04106460F46E3
:108DC0001FB9B00001F0CAFA00E03846054655B1B7
:108DD000542001F0C3FA04460CB1256304E0284690
:108DE00001F0EDFA00E000242046BDE8F0812DE915
:108DF000FF4F81B0804615469946DDE90E7A284638
:108E00001099FFF7D9FF0446002C4FD0681E216B44
:108E100001EB800B2BF0070B00953A462046119B87
:108E20000299FFF798FF4A464146584601F02AFA50
:108E30002060BAF1000F01D0CAF8004001F05CFADE
:108E4000B6480068401CB5490860B548006840B99C
:108E5000B34804600846006801280CD1FFF758FFAA
:108E600009E0B048006830B9AD480068C06AB8424F
:108E700001D8AB480460AC480068401CAA490860AF
:108E800094F82C1001208840A84909680843A74994
:108E90000860E16A01EB8101984A02EB8100211D23
:108EA000FFF7A4FB012601F034FA01E04FF0FF3692
:108EB000012E09D19B48006830B199480068C06A0A
:108EC000B84201D201F00EFA304605B0BDE8F08F8D
:108ED00090490968096809B9012100E0002121B120
:108EE0004FF0FF31924A116006E08A490968C9686B
:108EF000C8688F4A41681160704770B5054601F037
:108F0000FBF915B98648006800E028460446201D94
:108F1000FFF792FB78B9E06A00EB8000774951F8DF
:108F2000200040B994F82C10012088407F4909683E
:108F300081437E480160A06A18B104F11800FFF770
:108F40007BFB211D7148FFF751FB7A480068401CEC
:108F50007849086074480068401C7349086001F053
:108F6000D8F97048006860B16D480068844202D149
:108F700001F0B8F905E001F0BFF9FFF7A9FF01F032
:108F8000C8F970BD2DE9F04100276B480068002842
:108F900065D16A480068401C684908600846066850
:108FA0008EB95C48D0F800805B4800685949086079
:108FB0005948C0F8008062480068401C6049086059
:108FC000FFF786FF00BF5A48006886423BD300BFC8
:108FD00050480068006808B9012000E0002020B176
:108FE0004FF0FF30524908602CE04A480068C068E2
:108FF000C4686568AE4202D24D48056022E0201D7B
:10900000FFF71AFBA06A18B104F11800FFF714FB70
:1090100094F82C10012088404449096808434349CA
:109020000860E16A01EB8101344A02EB8100211DF5
:10903000FFF7DCFA3A49E06A0968C96A8842C7D38F
:109040000127C5E700BF36480068C06A00EB800012
:109050002A4951F82000012806D9012704E039489F
:109060000068401C374908603748006800B1012794
:109070003846BDE8F08170B5002501F03DF92E4875
:109080000068401E2C49086008460068002874D11A
:1090900022480068002870D024E01B48C068C468DB
:1090A00004F11800FFF7C8FA201DFFF7C5FA94F87D
:1090B0002C10012088401D49096808431B4908609D
:1090C000E16A01EB81010D4A02EB8100211DFFF7EE
:1090D0008DFA1349E06A0968C96A884202D30120FF
:1090E000194908600848006808B9012000E000201C
:1090F0000028D2D01348006840B333E05803002062
:10910000E4030020F80300200C04002020040020C9
:10911000340400207400002078000020800000202B
:10912000700000208C0000209C000020880000209F
:10913000A00000207C000020A4000020840000206B
:109140009800002090000020940000200EE0FFF71F
:1091500019FF10B10120FE490860FE480068401E5A
:10916000FC490860FB4800680028F0D1F848006816
:10917000012802D1012501F0B5F801F0CAF828460E
:1091800070BD10B50446F44800684460F3480068B8
:10919000844207D2F0480168091DF1480068FFF7D2
:1091A00031FA0CE0EC480168091DEE480068FFF751
:1091B00029FAED480068844201D2EB48046010BDF2
:1091C000EA480068401CE949086070472DE9F0470B
:1091D000044688464FF00009FFF7F2FFDF480768B2
:1091E000206800EB08052068B84207D92068A8422B
:1091F0000BD9BD4209D94FF0010906E02068A84209
:1092000001D8BD4201D94FF001092560B9F1000F25
:1092100013D0D1480068001DFFF70EFA50B9CE48B0
:10922000006890F82C1001208840D14909688143DA
:10923000CF4801602846FFF7A4FFFFF71CFF064652
:109240000EB901F04FF8BDE8F08770B5044600266E
:10925000DCB1FFF7B5FFC14800680519BE480068DA
:10926000001DFFF7E9F950B9BB48006890F82C10D1
:1092700001208840BE4909688143BD4801602846F5
:10928000FFF77FFFFFF7F7FE06460EB901F02AF859
:1092900070BD70B5044601F02FF814B9AE480068EF
:1092A00000E020460646F56A01F033F8284670BD16
:1092B0002DE9F0410446FDF7CDF9064614B9A6485C
:1092C000006800E020460746FD6A3046FDF7C9F910
:1092D0002846BDE8F0812DE9F04780460D464FF065
:1092E0000009072D00D3062501F006F8B8F1000F9C
:1092F00002D19948006800E040460446666CAE42E0
:1093000050D0B5420BD99448006884420DD09248A1
:109310000068C06AA84208D84FF0010905E08E48ED
:109320000068844201D14FF00109E76AE16A606C8C
:10933000884200D1E5626564A06900F0004010B980
:10934000C5F10700A06107EB87018A4A02EB8101A2
:109350006069884201D1012000E00020E0B1201DB9
:10936000FFF76AF930B90120B840814909688143A3
:109370007F48016094F82C10012088407C490968DE
:1093800008437B490860E16A01EB8101794A02EBFD
:109390008100211DFFF72AF9B9F1010F01D100F079
:1093A000A1FF00BF00F0B5FFBDE8F0876F4800687F
:1093B00018B10120664908601DE00020644908607A
:1093C0006B480068B0FA80F0C0F11F0101EB810228
:1093D000684B03EB820042685268426000F1080269
:1093E0004368934202D14268526842604268D26840
:1093F000594B1A6000BF704770B5054600F07CFFFE
:1094000015B95548006800E028460446201DFFF7BE
:1094100013F978B9E06A00EB8000564951F8200052
:1094200040B994F82C1001208840514909688143C3
:109430004F480160A06A18B104F11800FFF7FCF86A
:10944000211D4D48FFF7D2F800F063FF4248006845
:10945000844212D14948006810B100F043FF15E082
:109460004548006846490968884203D100203A49C6
:1094700008600BE0FFF79AFF08E04048006828B159
:1094800000F03AFFFFF724FD00F043FF70BD10B578
:10949000014600200A46384C5369A34201D10123FA
:1094A00000E0002373B1374C936AA34201D101233A
:1094B00000E0002333B9936A0BB9012300E00023D5
:1094C00003B1012010BD70B505462C464CB32248AF
:1094D0000068844225D000F00FFF2046FFF7D7FF39
:1094E00001281CD1201DFFF7A7F894F82C100120AB
:1094F00088401F49096808431D490860E16A01EB7B
:1095000081011C4A02EB8100211DFFF76FF812490F
:10951000E06A0968C96A884201D300F0E3FE00F0FE
:10952000F8FE70BD2DE9F041054600262C46FDF7FA
:1095300091F807462046FFF7AAFF012842D10B48C1
:109540000068C8BB0449E06A0968C96A88421BE030
:109550009400002090000020700000208400002073
:109560007800002074000020A0000020A40000204B
:109570008800002058030020340400208C000020C4
:10958000800000200C04002000D30126201DFFF7DE
:1095900053F894F82C1001208840FE4909680843CC
:1095A000FC490860E16A01EB8101FB4A02EB8100A2
:1095B000211DFFF71BF805E0FFE704F11801F7484C
:1095C000FFF714F83846FDF74CF83046BDE8F08157
:1095D00010B50446206B00F0F2FE204600F0EFFECE
:1095E00010BD70B523E0FFF7EBFDED48006808B94A
:1095F000012000E000200546FFF73DFDBDB900F069
:109600007BFEE748C068C468201DFFF715F8E548F1
:109610000068401EE3490860E3480068401EE249D4
:10962000086000F076FE2046FFF7D2FF00BFDE485C
:1096300000680028D7D170BD00BFFFF7D2FFD64821
:1096400000680128F9D900F04DFEF6E71FB50020AB
:1096500000900190029003468022D4A10390D54847
:10966000FFF7C5FB0446012C02D100F092FD044631
:10967000012C0CD1FCF7EEFFA01ECF4908600120A1
:10968000CE4908600020CE49086000F015FE1FBDDD
:1096900010B5FCF7DFFF0020C849086000F021FE8C
:1096A00010BDC749086870470021C54A1068704757
:1096B000BC480068704770B506460C46C148016852
:1096C00018313046FEF79EFFBE480068001DFEF7C9
:1096D000B3FF50B9BB48006890F82C1001208840B7
:1096E000AC4909688143AB480160601C30B9B5489A
:1096F0000168091DB448FEF779FF05E0B04800682D
:1097000005192846FFF73DFD70BD2DE9F0410746DC
:109710000D46144645F00040AA4909688861A948E9
:10972000016818313846FEF761FFA6480068001D41
:10973000FEF782FF50B9A348006890F82C10012072
:10974000884094490968814392480160601C30B99F
:109750009C480168091D9C48FEF748FF05E09848B1
:10976000006806193046FFF70CFDBDE8F0812DE9D1
:10977000F04107460C4615469248016818313846B4
:10978000FEF734FF8F480068001DFEF755FF50B903
:109790008C48006890F82C10012088407D490968A9
:1097A00081437C480160012D06D186480168091D6E
:1097B0008548FEF71BFF05E0814800680619304622
:1097C000FFF7DFFCBDE8F08170B50646F068C468BD
:1097D00004F11800FEF730FF7C480068A8B9201D8E
:1097E000FEF72AFF94F82C10012088406949096887
:1097F000084368490860E16A01EB8101664A02EBAF
:109800008100211DFEF7F2FE04E004F11801634817
:10981000FEF7ECFE6B49E06A0968C96A884204D920
:10982000012501206A49086000E00025284670BD36
:109830002DE9F04105460F4647F000402860EC68EE
:109840002846FEF7F9FE201DFEF7F6FE94F82C10D0
:10985000012088404F49096808434E490860E16A81
:1098600001EB81014C4A02EB8100211DFEF7BEFE97
:109870005449E06A0968C96A884204D9012601206E
:109880005349086000E000263046BDE8F0815149A8
:10989000096801604A4909684160704770B504462B
:1098A0000D4600F029FD464802682868401C08B9AA
:1098B000002619E0474920680968884204D060689A
:1098C000904201D801260FE06068101A296888428A
:1098D00009D228686168511A401A28602046FFF7AB
:1098E000D6FF002600E0012600F013FD304670BDD3
:1098F00001203749086070473249086870472F498E
:10990000096809B9012005E03049096809B9022050
:1099100000E00020704770B505462C46002D6FD042
:109920002849E06A0968C96A884269D2A06900F0DA
:10993000004028B923480068C06AC0F10700A06150
:10994000E16A01EB8101144A02EB810160698842FE
:1099500001D1012000E00020F0B3201DFEF76CFED5
:1099600078B9E06A00EB80000B4951F8200040B95B
:1099700094F82C1001208840064909688143054865
:10998000016010480068C06AE06294F82C10012061
:10999000884022E088000020580300200C040020AA
:1099A00020040020800000207C00002049444C4519
:1099B0000000000039960008A00000208C00002064
:1099C000840000207000002034040020A400002047
:1099D00094000020980000200EE0FE49096808432A
:1099E000FC490860E16A01EB8101FB4A02EB81005E
:1099F000211DFEF7FBFD03E0F8480068C06AE06245
:109A000070BD70B505462C460026ADB3A06C401E57
:109A1000A064616CE06A88422ED0A06C60BB201DFF
:109A2000FEF70AFE78B9E06A00EB8000EA4951F8D7
:109A3000200040B994F82C1001208840E5490968BD
:109A40008143E4480160606CE062E06AC0F10700B5
:109A5000A06194F82C1001208840DE490968084371
:109A6000DC490860E16A01EB8101DB4A02EB81001D
:109A7000211DFEF7BBFD0126304670BDD7490968A0
:109A80008869D6490968C96AC1F10701D34A1268D1
:109A900091617047D148006830B1D049096801F13F
:109AA0004800896C491C0160CC48006870472DE96A
:109AB000F04106460C4600F01FFCC8480068C06C28
:109AC00038BB0120C549096881F850000CB3C34870
:109AD0000068001DFEF7B0FD50B9C048006890F85E
:109AE0002C1001208840BB4909688143B9480160B6
:109AF000601C30B9B9480168091DB948FEF776FD08
:109B000005E0B848006807193846FFF73AFB00F04F
:109B1000E9FB00F0FEFB00F0EFFBB0480068C56C0D
:109B200065B126B10020AD490968C86406E0AB49BB
:109B3000096801F14C00C96C491E01600020A74969
:109B4000096881F8500000F0E4FB2846BDE8F08188
:109B50002DE9F0470746884615461C4600F0CCFB29
:109B60009E48006890F8500002282FD09B49096851
:109B700001F14C00C96CB9430160012097490968A3
:109B800081F8500014B395480068001DFEF754FD9D
:109B900050B99248006890F82C10012088408D49F7
:109BA000096881438B480160601C30B98B480168AB
:109BB000091D8B48FEF71AFD06E08A48006800EB95
:109BC00004094846FFF7DDFA00F08CFB00F0A1FB2A
:109BD00000F092FB1DB181480068C06C28607F488E
:109BE000006890F85000012801D1002608E07B4968
:109BF000096801F14C00C96C21EA080101600126E5
:109C000000207649096881F8500000F082FB304658
:109C1000BDE8F0872DE9F04781460D4616461F4600
:109C20004FF0010A4C4600F067FB0FB1E06C386062
:109C300094F85080022084F85000052E17D2DFE8F7
:109C400006F01503070B0D00E06C2843E0640EE0FE
:109C5000E06C401CE0640AE0E56408E0B8F1020F43
:109C600001D0E56401E04FF0000A00E000BF00BF52
:109C7000B8F1010F1CD1201DFEF7DEFC94F82C106A
:109C80000120884053490968084352490860E16A45
:109C900001EB8101504A02EB8100211DFEF7A6FC79
:109CA0004E49E06A0968C96A884201D900F01AFB86
:109CB00000F02FFB5046BDE8F0872DE9F84F8146B4
:109CC0000D4616461F46DDF828A04FF0010B4C4606
:109CD000FCF7C0FC00900FB1E06C386094F8508045
:109CE000022084F85000052E17D2DFE806F0150395
:109CF000070B0D00E06C2843E0640EE0E06C401CB4
:109D0000E0640AE0E56408E0B8F1020F01D0E56420
:109D100001E04FF0000B00E000BF00BFB8F1010F01
:109D200029D131480068A8B9201DFEF785FC94F8B8
:109D30002C100120884027490968084325490860FC
:109D4000E16A01EB8101244A02EB8100211DFEF74B
:109D50004DFC04E004F118012448FEF747FC1F49BC
:109D6000E06A0968C96A884205D9BAF1000F02D0D1
:109D70000120CAF800000098FCF773FC5846BDE8C3
:109D8000F88F2DE9F04105460E462C46FCF762FCA3
:109D9000804694F85070022084F85000E06C401C1B
:109DA000E064012F35D11048006820BB201DFEF76C
:109DB00043FC94F82C1001208840064909680843A8
:109DC00004490860E16A01EB8101034A02EB81006A
:109DD000211D0DE0880000205803002070000020A5
:109DE0003404002084000020A40000200C04002083
:109DF000FEF7FCFB04E004F118011548FEF7F6FB42
:109E00001449E06A0968C96A884202D90EB1012082
:109E100030604046FCF725FCBDE8F08170B5044693
:109E2000264616B90B48006800E03046064600F0AA
:109E300063FA96F85000022804D1002086F85000FA
:109E4000012500E0002500F064FA284670BD0000FE
:109E50000C040020700000202DE9F04104460D465E
:109E600016461F464FF0000865602461B5420CD8C5
:109E7000F01BA169884202D34FF0010811E0211DB7
:109E8000F3480068FEF7BEFB0BE0BE4204D2BD42C1
:109E900002D34FF0010804E0211DEE480068FEF7F0
:109EA000B1FB4046BDE8F0812DE9FE4305460C4676
:109EB00016461F46DDF828804FF00009E648006886
:109EC00010B3009401960295062C15DAFFF717FDE2
:109ED000022808D1002342466946DF480068FEF7A1
:109EE000A7FC814610E000231A466946DA4800685C
:109EF000FEF79EFC814607E000233A466946D648B5
:109F00000068FEF72EFD81464846BDE8FE832DE938
:109F1000F84326E0CF480068C0680568CD4800686F
:109F2000C068C468201DFEF787FB2046616A884729
:109F3000E069012815D1A0694619AE4207D96660CB
:109F40002461211DC3480068FEF75CFB09E0002086
:109F500003462A46014600902046FFF7A5FF8046AB
:109F600000BFBC480068006808B9012000E000207C
:109F70000028CFD0B7480768B5480068B5490860E1
:109F8000B3480760BDE8F88370B50446FFF789FB66
:109F90000546B2480068854204D2FFF7B8FF0120A9
:109FA000206001E000202060AC480560284670BDBC
:109FB00070B586B04EE0039800284BDB059C6069C5
:109FC00008B9012000E0002010B9201DFEF734FB85
:109FD00002A8FFF7D9FF054603980A2838D2DFE820
:109FE00000F00905072628330608272900BF00BF0F
:109FF00000BF00BF0498A269811803462A46204684
:10A00000FFF72AFF012811D12046616A8847E069DD
:10A0100001280BD1002000900498A1694218002368
:10A0200019462046FFF740FF064600BF11E000BF7B
:10A030000FE000BF0498A061A06941192B462A4691
:10A040002046FFF709FF04E0204600F0B8F900E0E1
:10A0500000BF00BF00231A4603A97F480068FEF72F
:10A0600004FD0028A7D106B070BDF8B505460E4620
:10A0700078480068C068C468201DFEF7DDFAE06912
:10A08000012812D1A06941192B4632462046FFF71C
:10A09000E3FE012809D1002003462A46014600902C
:10A0A0002046FFF701FF074600BF2046616A884748
:10A0B000F8BDF8B505460C46FFF782F86846FFF78D
:10A0C00063FF06460098F0B944B9B54206D8FEF7DA
:10A0D000D2FF31462846FFF7C8FF16E03CB15C4886
:10A0E0000068006808B9012000E000200446A91BB0
:10A0F000224659480068FEF7E7FDFEF7BCFF20B98D
:10A1000000F0F0F801E0FEF7B6FFF8BD0146514A55
:10A11000126812680AB9012200E000220A600A6887
:10A1200022B94C4A1268D268106800E000207047DB
:10A1300008B500BF6846FFF7E9FF044620460099CE
:10A14000FFF7B7FFFFF734FFF4E710B500F0D4F8DE
:10A1500041480068D0B94248FEF738FA4148FEF756
:10A1600035FA3F483B4908603E48394908600022BB
:10A170000C210520FEF7ABFA374908600846006855
:10A1800020B139A134480068FEF78BFD00F0C1F81A
:10A1900010BD1FB50024FFF7D8FF2F48006860B13D
:10A1A00000200623CDE9003002900346802230A132
:10A1B00003903148FEF71BFE0446204604B010BD54
:10A1C0002DE9F04706460D4617469846DDF82090E3
:10A1D0000DB9002410E0282000F0C0F804465CB15E
:10A1E000FFF7B3FF2660A561E761C4F82080C4F8DB
:10A1F0002490201DFEF7F7F92046BDE8F0870146C0
:10A200000A461068704770B50446264600F074F898
:10A21000706908B9012000E0002080F0010500F01D
:10A2200078F8284670BD70B50446264600F064F8FC
:10A23000356A00F06EF8284670BD70B504460D46CC
:10A24000264600F059F8356200F063F870BD000052
:10A25000AC000020A8000020B0000020B4000020C6
:10A26000480400205C040020546D7251000000007E
:10A27000546D72205376630031A10008FCF7EAF9AF
:10A2800000BFFEE7001F4FF080730360001F0160F6
:10A29000001F2E4B036014380260203870472C4892
:10A2A00000684FF47A71B0FBF1F0401E4FF0E021EE
:10A2B000486107200861704710B52648006840F4DF
:10A2C0007000244908600846006840F0704008604B
:10A2D000FFF7E5FF002020490860FCF789F900201E
:10A2E00010BD70474FF080501A491C390860BFF309
:10A2F0004F8FBFF36F8F704710B5FCF7ABF916485F
:10A300000068401C14490860BFF34F8FBFF36F8F84
:10A3100010BD10B510480068401E0F49086008467F
:10A32000006810B90020FCF79CF910BD10B5FCF7CF
:10A3300091F9FEF727FE20B14FF0805005491C39F6
:10A3400008600020FCF78DF910BD00007DA2000818
:10A350006C00002020ED00E0B800002070B504463D
:10A36000002504F0070020B104F00700C0F1080048
:10A370000444FEF725FF1748006820B9164820F06E
:10A3800007001449086015480068204441F2DA715A
:10A39000884210D211480068204410490968884258
:10A3A00009D90C4800680D49096845180B48006830
:10A3B00020440A490860FEF75EFE284670BD7047DB
:10A3C00000200649086070470448006841F2DA71CD
:10A3D000081A7047C000002078040020BC0000204C
:10A3E000704770B5044605F0B6F94FF47A71B0FBCA
:10A3F000F1F5284601F064FD00222146501E01F0CF
:10A40000E9FC002070BD10B54048006840F0100025
:10A410003E490860032001F0CBFC0020FCF74EFE13
:10A42000FCF7C0FD002010BD704710B54FF0FF30A5
:10A430003749C86000200861401EC8600020C8601D
:10A44000FFF7F2FF002010BD32480068401C314980
:10A45000086070472F480068704731B50024FFF747
:10A46000F9FF044600BFFFF7F5FF001B0099884283
:10A47000F9D338BD4FF0E020006920F002004FF022
:10A48000E021086170474FF0E020006940F00200D1
:10A490004FF0E021086170471F4870471F4800686F
:10A4A0001F4991FAA1F1B1FA81F1C84070471B48E8
:10A4B0000068C0F30B0070471848406840F0010086
:10A4C0001649486070471548406820F0010013495C
:10A4D000486070471148406840F002000F494860EA
:10A4E00070470E48406820F002000C4948607047F1
:10A4F0000A48406840F0040008494860704707482F
:10A50000406820F004000549486070470020024080
:10A5100000100240C400002000040001002004E0FC
:10A520000000FFFF70B5044600252068806800F039
:10A530000100F0B12068806820F001002168886087
:10A54000FFF788FF05460EE0FFF784FF401B022857
:10A5500009D9A06A40F01000A062E06A40F0010052
:10A56000E062012070BD2068806800F001000028D2
:10A57000EAD10020F6E770472DE9F04104460027B4
:10A5800000250026A84614B90120BDE8F081A06886
:10A5900010B1606900B100BFA06A30B90020E0626C
:10A5A00084F824002046FDF712F82046FFF7BAFF92
:10A5B0000746A06A00F0100000287DD1002FFCD1D2
:10A5C000A06A20F4885040F00200A062FE4AD4E95C
:10A5D0000001904208D1E069B0F5402F02D14FF45C
:10A5E000002002E0E06900E0E0690843022292FAFC
:10A5F000A2F2B2FA82F2E168914008430643A068F1
:10A60000B0F5807F02D0A068012802D14FF480709D
:10A6100000E0002005436069012816D1E06860B9B8
:10A62000A069401E4FF4604191FAA1F1B1FA81F1A5
:10A63000884040F40060054307E0A06A40F0200035
:10A64000A062E06A40F00100E0622068406820F407
:10A65000694028432168486020688068DB490840D9
:10A66000304321688860A068B0F5807F02D0A06880
:10A67000012802D14FF4807000E00020B0F5807F07
:10A6800009D12069401E4FF4700191FAA1F1B1FA8D
:10A6900081F100FA01F82068C06A20F4700040EAF5
:10A6A00008002168C86220688068C9490840B04233
:10A6B0000AD10020E06200E012E0A06A20F002006F
:10A6C00040F00100A06210E0A06A20F0020040F01B
:10A6D0001000A062E06A40F00100E062012704E09F
:10A6E000A06A40F01000A062012738464DE770478D
:10A6F00070B5044600250CB9012070BDA06A40F079
:10A700000200A0622046FFF70DFF0546002D69D12B
:10A710006FF01F002168086020684068AD4908405C
:10A720002168486020688068AB49084021688860DB
:10A730002068C06800F07F402168C8602068006918
:10A7400000F0404021680861206840696FF30B0009
:10A7500021684861206880696FF30B002168886177
:10A760002068C0696FF30B002168C8612068006A27
:10A770006FF30B00216808622068406A6FF30B00DA
:10A78000216848622068806A6FF30B002168886244
:10A790002068C06A00F07F402168C8622068C06AF3
:10A7A00000F07F402168C8622068006B00F04040E4
:10A7B000216808632068406B00F0404021684863CE
:10A7C0002068806B6FF31500216888632068806BB8
:10A7D0006FF31500216888632046FCF7A0FF002076
:10A7E000E062A06200BF002084F8240000BF284679
:10A7F00083E738B504460025002000902068806873
:10A8000000F0010080BB2068806840F001002168F2
:10A810008860724800687249B0FBF1F0009002E075
:10A820000098401E009000980028F9D1FFF712FE12
:10A83000054613E0FFF70EFE401B02280ED9A06A62
:10A8400040F01000A062E06A40F00100E06200BF4A
:10A85000002084F8240000BF012038BD20688068F3
:10A8600000F001000028E5D00020F6E770B50446AE
:10A87000002500BF94F82400012801D1022070BDFA
:10A88000012084F8240000BF2046FFF7B2FF0546F0
:10A89000002D77D1A06A40F20121884340F48070F6
:10A8A000A06250492068884208D14F48006800F4EF
:10A8B000702008B9012002E0002000E0012078B1FA
:10A8C000A06A20F48010A0622068406800F48060D4
:10A8D00000B3A06A20F4005040F48050A06219E058
:10A8E000A06A40F48010A0623F49091F2068884296
:10A8F00003D03C492068884204D13B48006800F4FA
:10A90000806000E0002028B1A06A20F4005040F4EC
:10A910008050A062A06A00F4805020B1E06A20F06C
:10A920000600E06201E00020E06200BF002084F841
:10A93000240000BFC01E216808602068806800F401
:10A940006020B0F5602F16D126492068884208D1D2
:10A950002548006800F4702008B9012002E00020BA
:10A9600000E0012038B12068806840F4A000216830
:10A9700088600CE006E02068806840F48010216860
:10A98000886004E000BF002084F8240000BF28464F
:10A9900075E770B50446002500BF94F8240001282F
:10A9A00001D1022070BD012084F8240000BF2046A0
:10A9B000FFF7B8FD05462DB9A06A20F4885040F095
:10A9C0000100A06200BF11E0003C0140FDF7E1FF83
:10A9D000FE0E1FFF00003FFFF00601FF6C0000208D
:10A9E00040420F000028014004240140002084F868
:10A9F000240000BF2846D5E7F8B504460D460026DA
:10AA0000002000900027FFF725FD0646206880689B
:10AA100000F4807050B1A06A40F02000A06200BF36
:10AA2000002084F8240000BF0120F8BD20684068A1
:10AA300000F48070F8B92068C06A00F47000D0B9E2
:10AA400012E0681C80B125B1FFF704FD801BA8420D
:10AA50000AD9A06A40F00400A06200BF002084F878
:10AA6000240000BF0320E0E72068006800F0020037
:10AA70000028E6D050E0022005F012F8F7490968F6
:10AA8000B1FBF0F021680969F54A114091B92168DC
:10AA9000C9689211114069B921680969F14A1140E8
:10AAA00031B92168C9689211114009B9142117E020
:10AAB000292115E021680969EA4A114021B9216874
:10AAC000C9689211114041B121680969E64A1140F3
:10AAD00029B92168C968114009B9542100E0FC2155
:10AAE00000FB01F715E0681C80B125B1FFF7B2FC4F
:10AAF000801BA8420AD9A06A40F00400A06200BFEF
:10AB0000002084F8240000BF03208EE70098401C3A
:10AB100000900098B842E6D36FF0120021680860F8
:10AB2000A06A40F40070A0622068806800F4602091
:10AB3000B0F5602F0DD1E06858B9A06A20F480709C
:10AB4000A062A06A00F4805018B9A06A40F0010029
:10AB5000A062002069E72DE9F04104460E46154643
:10AB60000027FFF777FC074613E0681C88B125B182
:10AB7000FFF770FCC01BA8420BD9A06A40F004008C
:10AB8000A06200BF002084F8240000BF0320BDE8BD
:10AB9000F081206800683040B04201D1012000E01F
:10ABA00000200028E1D0A06A40F48030A0626FF05D
:10ABB0000100216808600020E9E770B5044600251F
:10ABC00000BF94F82400012801D1022070BD0120AB
:10ABD00084F8240000BF2046FFF70BFE0546002D39
:10ABE0007DD1A06A40F60161884340F48070A06284
:10ABF0009E492068884208D19D48006800F4702072
:10AC000008B9012002E0002000E0012078B1A06A2C
:10AC100020F48010A0622068406800F4806000B3D7
:10AC2000A06A20F4005040F48050A06219E0A06AAD
:10AC300040F48010A0628E49091F2068884203D02A
:10AC40008A492068884204D18948006800F48060FD
:10AC500000E0002028B1A06A20F4005040F48050A9
:10AC6000A062A06A00F4805020B1E06A20F00600E3
:10AC7000E06201E00020E06200BF002084F82400D0
:10AC800000BFC01E216808602068406840F02000B6
:10AC9000216848602068806800F46020B0F5602F6B
:10ACA00016D172492068884208D17148006800F4C2
:10ACB000702008B9012002E0002000E0012038B136
:10ACC0002068806840F4A000216888600CE006E0FD
:10ACD0002068806840F480102168886004E000BF2C
:10ACE000002084F8240000BF28466FE770B50446B2
:10ACF000002500BF94F82400012801D1022070BD76
:10AD0000012084F8240000BF2046FFF70BFC054615
:10AD10005DB92068406820F0200021684860A06A82
:10AD200020F4885040F00100A06200BF002084F8A9
:10AD3000240000BF2846E2E7704770B505466C6AFC
:10AD4000A06A40F04000A062E06A40F00400E062C7
:10AD50002046FCF7F8F870BD704770B50446656A88
:10AD60002846FCF7EFF870BD704770B505466C6A71
:10AD7000A06A00F05000E0B9A06A40F40070A06240
:10AD80002068806800F46020B0F5602F0DD1E06885
:10AD900058B9A06A20F48070A062A06A00F48050C4
:10ADA00018B9A06A40F00100A0622046FBF7F3FF4B
:10ADB00003E0206A016B2846884770BD2DE9F04109
:10ADC00004460D46164600272949091F2068884277
:10ADD00003D026492068884204D12548006800F441
:10ADE000702000E0002000287ED100BF94F82400ED
:10ADF000012802D10220BDE8F081012084F824005E
:10AE000000BF2046FFF7F5FC0746002F6DD1A06A72
:10AE100040F60161884340F48070A06213492068C5
:10AE2000884208D11248006800F4702008B9012057
:10AE300002E0002000E00120E0B1A06A20F48010D0
:10AE4000A0622068406800F4806068B3A06A20F4C3
:10AE5000005040F48050A06226E000006C0000200A
:10AE60002449922492244912499224000028014046
:10AE700004240140A06A40F48010A062F8492068D0
:10AE8000884203D0F7492068884205D1F448001D64
:10AE9000006800F4806000E0002028B1A06A20F47F
:10AEA000005040F48050A062A06A00F4805020B1AD
:10AEB000E06A20F00600E06201E00020E06200BFEE
:10AEC000002084F8240000BFAFF26110216A88627C
:10AED000AFF27910216AC862AFF2A110216A08634B
:10AEE0006FF00200216801E029E023E0086020689B
:10AEF000806840F4807021688860226802F14C010B
:10AF000033462A46206A01F0B4FC2068806800F4C9
:10AF10006020B0F5602F06D12068806840F4A00062
:10AF2000216888600CE02068806840F48010216807
:10AF3000886005E000BF002084F8240000E00127BD
:10AF4000384658E770B50446002500BF94F8240041
:10AF5000012801D1022070BD012084F8240000BF27
:10AF60002046FFF7DFFA0546ADB92068806820F477
:10AF7000807021688860206A01F0B6FC054635B90A
:10AF8000A06A20F4885040F00100A06203E0A06AAB
:10AF900040F04000A06200BF002084F8240000BF01
:10AFA0002846D8E701460868C06C7047704710B55E
:10AFB00004462068406800F0200020282FD1206837
:10AFC000006800F00200022829D1A06A00F01000F9
:10AFD00018B9A06A40F40070A0622068806800F48C
:10AFE0006020B0F5602F13D1E06888B92068406810
:10AFF00020F0200021684860A06A20F48070A062E0
:10B00000A06A00F4805018B9A06A40F00100A06264
:10B010002046FBF7C0FE6FF0120021680860206830
:10B02000406800F0800080283BD12068006800F074
:10B030000400042835D1A06A00F0100018B9A06AF5
:10B0400040F40050A0622068806800F4E040B0F551
:10B05000E04F0DD02068406800F48060D0B92068CF
:10B06000806800F46020B0F5602F13D1E06888B9E3
:10B070002068406820F0800021684860A06A20F4C1
:10B080008050A062A06A00F4807018B9A06A40F0F5
:10B090000100A062204600F0CDFC6FF00C0021689A
:10B0A00008602068406800F0400040280FD1206808
:10B0B000006800F0010050B1A06A40F48030A06246
:10B0C0002046FFF773FF6FF001002168086010BD94
:10B0D00078B5024600230020009000BF92F82400BB
:10B0E000012801D1022078BD012082F8240000BF90
:10B0F000486807281DD21068446B0879401E4FF439
:10B10000787595FAA5F5B5FA85F568431F2585404C
:10B1100024EA05000C79641E4FF4787696FAA6F6B8
:10B12000B6FA86F674430D68A54028431468606338
:10B130003DE048680D281DD21068046B0879C01FD7
:10B140004FF4787595FAA5F5B5FA85F568431F258E
:10B15000854024EA05000C79E41F4FF4787696FACE
:10B16000A6F6B6FA86F674430D68A540284314681F
:10B1700020631CE01068C46A08790D384FF47875B4
:10B1800095FAA5F5B5FA85F568431F25854024EAAB
:10B1900005000C790D3C4FF4787696FAA6F6B6FACF
:10B1A00086F674430D68A54028431468E062086879
:10B1B0000A281BD31068C46808780A38382595FA1D
:10B1C000A5F5B5FA85F568430725854024EA05000D
:10B1D0000C780A3C382696FAA6F6B6FA86F6744338
:10B1E0008D68A54028431468E06017E01068006986
:10B1F0000C78382595FAA5F5B5FA85F56C43072541
:10B20000A540A8430D78382696FAA6F6B6FA86F633
:10B2100075438C68AC40204314682061086810288E
:10B2200002D0086811282FD10D4C1068A04226D1F9
:10B230001068806800F4000000BB1068806840F46B
:10B2400000001468A060086810281DD10648006836
:10B25000064CB0FBF4F000EB8000400000900AE0E8
:10B2600000240140002801406C00002040420F00F3
:10B270000098401E009000980028F9D104E0906AE0
:10B2800040F020009062012300BF002082F82400DB
:10B2900000BF184627E710B50246224B08689842BF
:10B2A00007D0214B0868984203D0204B0868984289
:10B2B00000D100BF00BF92F82400012801D1022074
:10B2C00010BD012082F8240000BF8868012806D143
:10B2D0001068406840F040001368586005E010684E
:10B2E000406820F0400013685860D1E9000318431B
:10B2F00013685B680E4C2340184313685860C86895
:10B300001368586208691368986200BF002082F8C9
:10B31000240000BF00BFD3E70146886A704701469A
:10B32000C86A704700028000000240000002C000AE
:10B33000E0FD3FFFF8B5044600260020009000BF66
:10B3400094F82400012801D10220F8BD012084F8DE
:10B35000240000BF2046FFF7E5F80646002E62D124
:10B36000A06A20F4885040F00200A062022004F09D
:10B3700097FBFE490968B1FBF0F04000009002E045
:10B380000098401E009000980028F9D12046FFF751
:10B3900030FA2068806840F0080021688860FFF774
:10B3A00059F8054611E0FFF755F8401B0A280CD95B
:10B3B000A06A20F0020040F01000A06200BF002050
:10B3C00084F8240000BF0120BFE72068806800F0F7
:10B3D00008000028E7D12068806840F00400216858
:10B3E0008860FFF737F8054611E0FFF733F8401B98
:10B3F0000A280CD9A06A20F0020040F01000A062D8
:10B4000000BF002084F8240000BF01209DE72068D1
:10B41000806800F004000028E7D1A06A20F0020054
:10B4200040F00100A06200BF002084F8240000BFAB
:10B4300030468AE770B50446002500BF94F8240022
:10B44000012801D1022070BD012084F8240000BF32
:10B450002046FFF7CEF90546002D55D1A06A42F2ED
:10B460000101884340F48050A062C14920688842AD
:10B4700008D1C048006800F4702008B9012002E03B
:10B48000002000E0012020B1A06A20F48010A0621A
:10B4900003E0A06A40F48010A062A06A00F480700B
:10B4A00008B90020E06200BF002084F8240000BF3B
:10B4B000401F216808602068406800F4806010BB6D
:10B4C0002068806800F4E040B0F5E04F15D1A8494D
:10B4D0002068884208D1A748006800F4702008B9A5
:10B4E000012002E0002000E0012030B120688068E7
:10B4F00040F40210216888600BE02068806840F406
:10B5000000402168886004E000BF002084F8240027
:10B5100000BF284697E770B50446002500BF94F8A1
:10B520002400012801D1022070BD012084F82400EC
:10B5300000BFA06A00F4807080B92068406800F401
:10B54000806058B92046FEF7EDFF05465DB9A06A58
:10B5500020F4885040F00100A06204E0A06A40F0AE
:10B560002000A062012500BF002084F8240000BF55
:10B570002846D9E7F8B504460D460020009000277C
:10B58000FEF768FF06462068806B00F44010D0B9D3
:10B5900012E0681C80B125B1FEF75CFF801BA84259
:10B5A0000AD9A06A40F00400A06200BF002084F81D
:10B5B000240000BF0320F8BD2068006800F00400EC
:10B5C0000028E6D050E0022004F06AFA67490968D2
:10B5D000B1FBF0F021680969674A114091B921680F
:10B5E000C9689211114069B921680969634A11401B
:10B5F00031B92168C9689211114009B9142117E0C5
:10B60000292115E0216809695C4A114021B92168A6
:10B61000C9689211114041B121680969584A114025
:10B6200029B92168C968114009B9542100E0FC21F9
:10B6300000FB01F715E0681C80B125B1FEF70AFF99
:10B64000801BA8420AD9A06A40F00400A06200BF93
:10B65000002084F8240000BF0320ACE70098401CC1
:10B6600000900098B842E6D36FF00E0021680860A1
:10B67000A06A40F40050A0622068806800F4E040B6
:10B68000B0F5E04F0DD02068406800F48060A0B9AC
:10B690002068806800F46020B0F5602F0DD1E0686C
:10B6A00058B9A06A20F48050A062A06A00F48070AB
:10B6B00018B9A06A40F00100A06200207BE770B5D5
:10B6C0000446002500BF94F82400012801D102207F
:10B6D00070BD012084F8240000BF2046FFF789F8E0
:10B6E0000546002D68D1A06A42F20101884340F46A
:10B6F0008050A0621E492068884208D11D48006819
:10B7000000F4702008B9012002E0002000E00120D0
:10B7100020B1A06A20F48010A06203E0A06A40F487
:10B720008010A062A06A00F4807008B90020E06276
:10B7300000BF002084F8240000BF401F216808607B
:10B740002068406840F080002168486020684068B8
:10B7500000F4806040BB2068806800F4E040B0F5F1
:10B76000E04F22D10249206888420BE06C000020A3
:10B7700000280140042401402449922492244912C3
:10B780004992240008D1FD48006800F4702008B9EF
:10B79000012002E0002000E0012030B12068806834
:10B7A00040F40210216888600BE02068806840F453
:10B7B00000402168886004E000BF002084F8240075
:10B7C00000BF284684E770B50446002500BF94F802
:10B7D0002400012801D1022070BD012084F824003A
:10B7E00000BFA06A00F48070B0B92068406800F41F
:10B7F000806088B92046FEF795FE05468DB9206821
:10B80000406820F0800021684860A06A20F48850D9
:10B8100040F00100A06204E0A06A40F02000A062B5
:10B82000012500BF002084F8240000BF2846D3E78C
:10B83000F0B58DB004460E461746002500BF94F8BB
:10B840002400012802D102200DB0F0BD012084F8AF
:10B85000240000BFCA480190019830B10198806867
:10B8600000F46020B0F5602F0AD0A06A40F02000FC
:10B87000A06200BF002084F8240000BF0120E3E79D
:10B880002046FEF7B6FF05461DB901A8FEF7B1FF39
:10B890000546002D46D1A06ABA49084040F48070A0
:10B8A000A0622068406800F4806028B1A06A20F49B
:10B8B000005040F48050A06200BF002084F82400B3
:10B8C00000BFE062B048216A8862B048216AC8625D
:10B8D000AF48216A08636FF00200216808602068A1
:10B8E000806840F4807021688860226802F14C0111
:10B8F0003B463246206A00F0BCFF2068806800F4B6
:10B900006020B0F5602F06D12068806840F4A00068
:10B91000216888600BE02068806840F4801021680E
:10B92000886004E000BF002084F8240000BF28469F
:10B930008AE730B58DB00446002500BF94F8240096
:10B94000012802D102200DB030BD012084F824006E
:10B9500000BF2046FEF7E6FD0546002D3AD1884897
:10B960000190019850B9A06A40F04000A06200BF69
:10B97000002084F8240000BF0120E4E701A8FEF7BE
:10B98000D1FD054655B1A06A40F01000A06200BF8D
:10B99000002084F8240000BF0120D4E720688068DC
:10B9A00020F48070216888602068406820F470204E
:10B9B00021684860206A00F097FF054635B9A06A03
:10B9C00020F4885040F00100A06203E0A06A40F03B
:10B9D0004000A06200BF002084F8240000BF284679
:10B9E000B1E70246002001290FD0022909D003291E
:10B9F00004D0042908D11368986C09E01368586CC6
:10BA000006E01368186C03E000BF1368D86B00BF32
:10BA100000BF7047014600200A68D06C574A121DCB
:10BA2000126802F4807222B9554A4C32126840EA18
:10BA300002407047704778B502460023002000900E
:10BA4000906800B100BF00BF92F82400012801D126
:10BA5000022078BD012082F8240000BF9068D0B990
:10BA60004868012811D14FF4787494FAA4F4B4FA18
:10BA700084F404EB44040868A0401468A46B6FF3DA
:10BA8000150420431468A0634EE0906A40F0200043
:10BA90009062012348E00C694868A0422FD84C68A6
:10BAA0000869001BC0F103004FF4787494FAA4F401
:10BAB000B4FA84F460431F24844044F440141068B2
:10BAC000806BA0434D680C69641BC4F103044FF400
:10BAD000787595FAA5F5B5FA85F56C430D6805FA04
:10BAE00004F40D696D1E4FF4401696FAA6F6B6FAE8
:10BAF00086F6B5402C4320431468A06314E04C68DC
:10BB00000869001BC0F103004FF4787494FAA4F4A0
:10BB1000B4FA84F460431F24844044F44014106851
:10BB2000806BA0431468A0631068806800F0010077
:10BB3000A8B91068806847F20104A043154D146845
:10BB4000AC4208D1CC69B4F5C04F02D14FF4804467
:10BB500002E0CC6900E0CC6920431468A0608869E9
:10BB600001281ED1C869B0F5E04F15D110684068B2
:10BB700040F480601468606013E000000424014019
:10BB800000280140FEFDEFFF6BAD00085BAD000833
:10BB90003BAD0008003C0140906A40F020009062FC
:10BBA0000123486901280DD1886930B910684068BF
:10BBB00040F480501468606004E0906A40F0200017
:10BBC0009062012308680A281BD31068C4680878AB
:10BBD0000A38382595FAA5F5B5FA85F5684307259D
:10BBE000854024EA05000C780A3C382696FAA6F629
:10BBF000B6FA86F674438D68A54028431468E06061
:10BC000017E0106800690C78382595FAA5F5B5FAA3
:10BC100085F56C430725A540A8430D78382696FA8C
:10BC2000A6F6B6FA86F675438C68AC4020431468D5
:10BC300020610868102802D00868112805D1106812
:10BC4000806840F400001468A0604868012806D0AD
:10BC500002280DD0032814D004281BD11BE0106843
:10BC600040696FF30B00CC682043146860611BE0EF
:10BC7000106880696FF30B00CC6820431468A061E2
:10BC800012E01068C0696FF30B00CC6820431468A1
:10BC9000E06109E000BF1068006A6FF30B00CC6838
:10BCA00020431468206200BF00BF0868102802D03B
:10BCB0000868112827D1324C1068A0421ED11068A4
:10BCC000806800F40000F0B91068806840F400005B
:10BCD0001468A0600868102815D12A4800682A4C0A
:10BCE000B0FBF4F000EB80004000009002E0009810
:10BCF000401E009000980028F9D104E0906A40F0BE
:10BD000020009062012300BF002082F8240000BFC1
:10BD100018469EE610B58CB00246002300BF92F88C
:10BD20002400012802D102200CB010BD012082F8AD
:10BD3000240000BF154800901068806800F00100E2
:10BD400088B90098806800F0010060B90C4C106858
:10BD5000A04208D11068406820F470200C6820438D
:10BD60001468606004E0906A40F020009062012353
:10BD700000BF002082F8240000BF1846D4E700006E
:10BD8000002401406C00002040420F0000280140C8
:10BD900010B5002807DA0A07140EA94A00F00F03AD
:10BDA0001B1FD45403E00A07130EA64A135410BDF8
:10BDB00000BF00F00702A24B0C3B19684FF6FF03CF
:10BDC0001940A14B0B4343EA02219D4B0C3B1960E8
:10BDD00000BF70472DE9F05F80460D4616460027EC
:10BDE00000F027F9074639462A46334601F0070096
:10BDF000C0F1070ABAF1040F02D94FF0040A01E0BA
:10BE0000C0F1070AD14600F1040ABAF1070F02D2C5
:10BE10004FF0000A01E0A0F1030AD4464FF0010AF6
:10BE20000AFA09FAAAF1010A0AEA020A0AFA0CFA5B
:10BE30004FF0010B0BFA0CFBABF1010B0BEA030B00
:10BE40004AEA0B0421464046FFF7A2FFBDE8F09FF7
:10BE500000BF00F01F02012191404209920002F14F
:10BE6000E022C2F8001100BF704700BF00F01F02BF
:10BE700001219140754A430942F8231000BF7047E1
:10BE800000BF00BF00BF00BF00BFBFF34F8F00BFA8
:10BE900000BF00BF6A480C38006800F4E0606A49DF
:10BEA0000843001D66490C39086000BF00BF00BF91
:10BEB000BFF34F8F00BF00BF00BF00BF00BFFDE753
:10BEC00070B504462546681EB0F1807F01D301207D
:10BED0000FE0681E4FF0E02148610F214FF0FF3066
