:020000040800F2
:10640000800F0020CD650008896700088B670008B1
:106410008F67000893670008976700080000000076
:10642000000000000000000000000000DF65000820
:106430009B67000800000000E36500089D670008F6
:10644000E7650008E7650008E7650008E7650008FC
:10645000E7650008E7650008E7650008E7650008EC
:10646000E7650008E7650008E7650008E7650008DC
:10647000E7650008E7650008E7650008E7650008CC
:10648000AF670008BB670008E7650008E76500081C
:10649000E7650008E7650008E7650008E7650008AC
:1064A000E7650008E7650008E7650008E76500089C
:1064B000E7650008E7650008E7650008E76500088C
:1064C000E7650008E7650008E7650008E76500087C
:1064D000E7650008E7650008A5670008E7650008AC
:1064E000E7650008E7650008E7650008E76500085C
:1064F000E7650008E7650008E7650008E76500084C
:10650000E7650008E7650008E7650008E76500083B
:10651000E7650008E7650008E7650008E76500082B
:10652000E7650008E7650008E7650008E76500081B
:1065300000F002F800F03AF80AA090E8000C82445B
:106540008344AAF10107DA4501D100F02FF8AFF238
:10655000090EBAE80F0013F0010F18BFFB1A43F041
:10B53000322803D1122084F8390002E0012084F877
:10B5400039002046FBF7EAFB70BDF7B50446154607
:10B55000002794F83970012F01D0122F3CD10198A7
:10B5600000B10DB90120FEBD00BF94F838000128DC
:10B5700001D10220F7E7012084F8380000BF0198CC
:10B58000A062A5850020E06394F83900122803D159
:10B59000322084F8390002E0222084F83900C748BC
:10B5A000616B8862C648616BC862C348616B08639F
:10B5B00001AE32682368191D2B46606BFCF78EF8CC
:10B5C0002068406940F040002168486100BF0020C9
:10B5D00084F8380000BFC6E70220C4E7014600BF78
:10B5E00091F83800012801D102207047012081F82C
:10B5F000380000BF91F83900122806D10868406968
:10B6000020F080000A6850611CE091F8390022287F
:10B6100006D10868406920F040000A68506111E0D6
:10B6200091F83900322806D10868406920F0C0003E
:10B630000A68506106E000BF002081F8380000BFB2
:10B640000120D2E700BF002081F8380000BF00BF12
:10B65000CBE708B5014600BF91F83800012801D1B9
:10B66000022008BD012081F8380000BF91F83900A0
:10B67000122806D10868406940F080000A685061CD
:10B680002EE091F8390022280FD100BF0868006829
:10B69000009008684068009000BF00BF08684069DB
:10B6A00040F040000A6850611AE091F839003228F1
:10B6B0000FD100BF086800680090086840680090DB
:10B6C00000BF00BF0868406940F0C0000A685061D0
:10B6D00006E000BF002081F8380000BF0120C0E76D
:10B6E00000BF002081F8380000BF00BFB9E710B5E7
:10B6F00004462068406920F0C00021684861206B42
:10B7000010B1206BFCF734F8606B10B1606BFCF784
:10B710002FF8012084F83900002010BD10B5044630
:10B720002068C06820F040002168C86094F83900A3
:10B73000322803D1222084F8390002E0012084F865
:10B7400039002046FBF7E5FA002010BD10B5014690
:10B75000002391F83930122B01D0322B2CD188687C
:10B76000B0F5805F0FD10A6A1088C0F308000C683A
:10B770006060086918B9086A801C086209E0086AF4
:10B78000401C086205E00C6A601C086220780C68A6
:10B790006060C88C401E80B2C88458B90868C06810
:10B7A00020F080000C68E0600868C06840F040004D
:10B7B0000C68E060002010BD0220FCE770B5044674
:10B7C000002694F83960222E01D0322E52D1A06882
:10B7D000B0F5805F13D1A56A206940B92068406840
:10B7E000C0F308002880A06A801CA06219E02068CD
:10B7F0004068C0B22880A06A401CA06211E02069A5
:10B8000038B920684068C1B2A26A501CA0621170A9
:10B8100007E02068406800F07F01A26A501CA06227
:10B820001170E08D401E80B2E08508BB2068C068C2
:10B8300020F020002168C86094F83900322803D134
:10B84000122084F839000EE02068C06820F480706F
:10B850002168C8602068406920F0010021684861C3
:10B86000012084F839002046FBF758FA002070BD0B
:10B870000020FCE70220FAE7F8B504460025002680
:10B880002068006800F001052068C06800F4807638
:10B8900025B11EB1E06B40F00100E0632068006854
:10B8A000C0F340052068406900F001067DB109E061
:10B8B00029B4000819B40008F5B300080DB5000854
:10B8C000FDB400081EB1E06B40F00400E0632068A6
:10B8D0000068C0F3800525B11EB1E06B40F00200A6
:10B8E000E06320680068C0F3C00525B11EB1E06BBD
:10B8F00040F00800E06320680068C0F3401520684D
:10B90000C06800F020061DB116B12046FFF756FFB3
:10B9100020680068C0F3C0152068C06800F0800689
:10B920001DB116B12046FFF711FF20680068C0F373
:10B9300080152068C06800F040061DB116B1204691
:10B94000FFF7ECFEE06B70B100BF2068006800906C
:10B9500020684068009000BF00BF012084F83900D3
:10B960002046FBF7F9F9F8BD10B504466D4920688B
:10B97000884207D06C492068884203D06B49206810
:10B98000884200D104E040F256516948FAF769FE56
:10B9900000BF94F83800012801D1022010BD012019
:10B9A00084F8380000BF022084F839002068C0689D
:10B9B00040F001002168C860012084F8390000BF10
:10B9C000002084F8380000BF00BFE7E710B5044648
:10B9D00054492068884207D053492068884203D0E0
:10B9E00052492068884200D104E040F27151504829
:10B9F000FAF737FE00BF94F83800012801D1022081
:10BA000010BD012084F8380000BF022084F83900FE
:10BA10002068C06840F002002168C860012084F8F6
:10BA2000390000BF002084F8380000BF00BFE7E7FE
:10BA300010B504463B492068884207D03A4920683F
:10BA4000884203D039492068884200D104E040F29E
:10BA50008C513748FAF705FE00BF94F838000128EA
:10BA600001D1022010BD012084F8380000BF02205F
:10BA700084F839002068C06820F002002168C8609E
:10BA8000012084F8390000BF002084F8380000BF8E
:10BA900000BFE7E7014600BF91F83800012801D157
:10BAA00002207047012081F8380000BF022081F891
:10BAB00039000868C06820F00C0040F008000A68EF
:10BAC000D060012081F8390000BF002081F83800E3
:10BAD00000BF00BFE5E7014600BF91F8380001282C
:10BAE00001D102207047012081F8380000BF0220F8
:10BAF00081F839000868C06820F00C00001D0A6851
:10BB0000D060012081F8390000BF002081F83800A2
:10BB100000BF00BFE6E7014691F8390070470146D3
:10BB2000C86B7047003801400044004000480040A6
:10BB300018BE0008B2F120030AD5C2F1200320FA92
:10BB400002F001FA03F321FA02F140EA0300704720
:10BB500021FA03F04FF000017047704770477047BB
:10BB6000754600F02BF8AE4605006946534620F0B6
:10BB70000700854618B020B5FAF736FDBDE820402D
:10BB80004FF000064FF000074FF000084FF0000B99
:10BB900021F00701AC46ACE8C009ACE8C009ACE84C
:10BBA000C009ACE8C0098D46704710B50446AFF334
:10BBB00000802046BDE81040FAF701BD00487047FC
:10BBC0002009002001491820ABBEFEE72600020034
:10BBD0007047000000000000000001020304060797
:10BBE0000809000000000102030400002E2E5C433F
:10BBF0006F6D6D6F6E5352435C44726976657273FC
:10BC00005C53544D3332463178785F48414C5F4441
:10BC100072697665725C5372635C73746D333266FD
:10BC20003178785F68616C5F636F727465782E63DA
:10BC3000000000002E2E5C436F6D6D6F6E535243FB
:10BC40005C447269766572735C53544D333246318D
:10BC500078785F48414C5F4472697665725C5372D4
:10BC6000635C73746D3332663178785F68616C5FE2
:10BC7000646D612E630000002E2E5C436F6D6D6F4E
:10BC80006E5352435C447269766572735C53544DD3
:10BC90003332463178785F48414C5F44726976654B
:10BCA000725C5372635C73746D3332663178785FA3
:10BCB00068616C5F666C6173682E63002E2E5C4356
:10BCC0006F6D6D6F6E5352435C447269766572732B
:10BCD0005C53544D3332463178785F48414C5F4471
:10BCE00072697665725C5372635C73746D3332662D
:10BCF0003178785F68616C5F666C6173685F6578E6
:10BD00002E6300002E2E5C436F6D6D6F6E53524399
:10BD10005C447269766572735C53544D33324631BC
:10BD200078785F48414C5F4472697665725C537203
:10BD3000635C73746D3332663178785F68616C5F11
:10BD40006770696F2E6300002E2E5C436F6D6D6F00
:10BD50006E5352435C447269766572735C53544D02
:10BD60003332463178785F48414C5F44726976657A
:10BD7000725C5372635C73746D3332663178785FD2
:10BD800068616C5F7077722E630000002E2E5C433A
:10BD90006F6D6D6F6E5352435C447269766572735A
:10BDA0005C53544D3332463178785F48414C5F44A0
:10BDB00072697665725C5372635C73746D3332665C
:10BDC0003178785F68616C5F7263632E6300000096
:10BDD0002E2E5C436F6D6D6F6E5352435C447269DF
:10BDE000766572735C53544D3332463178785F48D0
:10BDF000414C5F4472697665725C5372635C737424
:10BE00006D3332663178785F68616C5F7263635F4F
:10BE100065782E63000000002E2E5C436F6D6D6F01
:10BE20006E5352435C447269766572735C53544D31
:10BE30003332463178785F48414C5F4472697665A9
:10BE4000725C5372635C73746D3332663178785F01
:10BE500068616C5F756172742E6300007CBE0008BF
:10BE600000000020340000006C650008B0BE00082F
:10BE7000340000204C0F000088650008000000001E
:10BE80000000000000000000000000004F4B0045D3
:10BE900052524F520000000000000000000000005D
:10BEA000000000000000000000A24A0400000000A2
:040000050800653159
:00000001FF
