:020000040800F2
:1000000090130020CD010008B1050008B3050008D9
:10001000B7050008BB050008BF0500080000000088
:10002000000000000000000000000000DF010008E8
:10003000C305000800000000E3010008C505000832
:10004000E7010008E7010008E7010008E7010008F0
:10005000E7010008E7010008E7010008E7010008E0
:10006000E7010008E7010008E7010008E7010008D0
:10007000E7010008E7010008E7010008E7010008C0
:10008000D7050008E3050008E7010008E7010008BC
:10009000E7010008E7010008E7010008E7010008A0
:1000A000E7010008E7010008E7010008E701000890
:1000B000E7010008E7010008E7010008E701000880
:1000C000E7010008E7010008E7010008E701000870
:1000D000E7010008E7010008CD050008E701000876
:1000E000E7010008E7010008E7010008E701000850
:1000F000E7010008E7010008E7010008E701000840
:10010000E7010008E7010008E7010008E70100082F
:10011000E7010008E7010008E7010008E70100081F
:10012000E7010008E7010008E7010008E70100080F
:1001300000F002F800F03AF80AA090E8000C8244BF
:100140008344AAF10107DA4501D100F02FF8AFF29C
:10015000090EBAE80F0013F0010F18BFFB1A43F0A5
:1001600001031847204B0000404B0000103A24BF09
:1001700078C878C1FAD8520724BF30C830C144BF0C
:1001800004680C607047000000230024002500264E
:10019000103A28BF78C1FBD8520728BF30C148BFEA
:1001A0000B6070471FB51FBD10B510BD04F024FDD6
:1001B0001146FFF7F7FF00F095F804F042FD03B495
:1001C000FFF7F2FF03BC04F049FD00000948804737
:1001D00009480047FEE7FEE7FEE7FEE7FEE7FEE729
:1001E000FEE7FEE7FEE7FEE704480549054A064B41
:1001F000704700007D0D000831010008900D0020BF
:1002000090130020900F0020900F002010B54FF4A5
:100210000061984802F09EFB08B9012000E0002030
:1002200084004FF48061934802F094FB08B90120E8
:1002300000E0002044EA40044FF400418E4802F000
:1002400089FB08B9012000E000202043401C10BDBC
:1002500000B585B000BF8948806940F00400874937
:1002600088610846806900F00400009000BF00BF6C
:1002700000BF0846806940F0100088610846806928
:1002800000F01000009000BF00BF02200490800327
:100290000190002002900120039001A9764802F00D
:1002A0004BF94FF4806001900020029001200390F0
:1002B00001A9704802F040F94FF40060019000205D
:1002C00002900120039001A96A4802F035F940200C
:1002D000019001200290039001A9674802F02CF9D7
:1002E00005B000BD00F09DF9022000F0D9FA18B960
:1002F00001206349087008E0012000F0D1FA20B91C
:1003000000F0B1F908B100F0DAF900F0C4FD00F036
:1003100002F9FFF79DFFFFF779FF5A49087000F0D7
:10032000EBFA594800F0FFFA0021072000F08CFC9E
:100330005348007808B900F0B9FC94E000F096FC4E
:100340004F48007801280AD100F054F9012806D15D
:1003500072B65521022000F076F900F0A3FE4B485A
:10036000007801287FD100204849087000F08FFBF9
:1003700035286AD006DC322812D0332819D0342828
:100380006BD124E0362844D0372831D0802864D17E
:1003900072B65521022000F056F900F083FE61E0AC
:1003A00000F0ADF90021072000F04EFC00F07EFCCB
:1003B00058E000F099FB401D84B20021204600F077
:1003C00043FC642000F091FD00F070FC4AE000F076
:1003D000B2F930B90021072000F036FC00F066FCCD
:1003E00005E00021072000F02FFC00F06BFC39E055
:1003F00000F039FA30B90021072000F025FC00F0A8
:1004000055FC05E00021072000F01EFC00F05AFC1E
:1004100028E000F069FB051200F066FBC4B2002181
:10042000072000F011FC2146284600F02BF905209A
:1004300000F05BFD2146164800F099FB052000F016
:1004400054FD204600F04FF90CE000F02FFC052091
:1004500000F04BFD00F02AF904E00021072000F035
:10046000F3FB00BF00BF69E710B54021024802F06E
:100470007FFA10BD0010014000080140001002404A
:1004800000000020380000205C0C00202500002027
:100490004400002008B500BF4348806940F00100D7
:1004A000414988610846806900F00100009000BF62
:1004B00000BF032000F08EFD002211466FF00B00FC
:1004C00000F09AFD002211466FF00A0000F094FD42
:1004D000002211466FF0090000F08EFD0022114647
:1004E000501F00F089FD00221146101F00F084FD0E
:1004F00000220F21901E00F07FFD00220F21501ED0
:1005000000F07AFD2948406820F0E0602749486003
:1005100008BD00BFFEE710B594B009200A904FF463
:1005200080300B9000200C9001200E901090022043
:100530001190C10312914FF4E01113910AA802F037
:1005400096FB08B1FFF7E5FF0F200590022006900B
:10055000002007904FF4806008900020099002214D
:1005600005A803F00BF808B1FFF7D3FF01200190B5
:100570004002029001A803F067FA08B1FFF7C9FF33
:1005800003F09BF94FF47A71B0FBF1F4204600F0D0
:10059000A9FD042000F046FE00220F21501E00F0AD
:1005A0002BFD14B010BD00000010024000000140FF
:1005B000704700BFFEE700BFFEE700BFFEE700BFD9
:1005C000FEE7704710B500F087FC10BD10B5084875
:1005D00004F0DFF910BD10B50549486B01F044F98E
:1005E00010BD10B50249086B01F03EF910BD0000C6
:1005F0005C0C002010B5AF48007830B90120AD493F
:10060000087000F06FFCAC49086000F06BFCAA4970
:100610000968401AB0F57A7F01D9012010BD002089
:10062000FCE708B502F0EDF900BFA448C06940F04E
:100630000060A249C8610846C06900F000600090EF
:1006400000BF00BF08BD00229D4A02EB80028BB2B2
:100650001360704710B572B655210120FFF7F3FF04
:1006600000F020FD10BD10B596490A1D002006E0DF
:100670000B68954CA34201D1431CD8B2091D91428D
:10068000F6D310BD70B502464FF0006505EB822031
:1006900000EB8104002306E005688C4E46F82350E9
:1006A0005D1CEBB2001DA042F6D370BD10B572B652
:1006B00000210120FFF7C7FF00F0F4FC10BD70B56A
:1006C000804C241D8248204040F000608149086031
:1006D000656881480560206880F3088800BF7E480F
:1006E0000068804770BD0146002005E00022774B7E
:1006F00043F82020421CD0B28842F7DB704710B587
:1007000001F0FEFB0020754908607548886067208D
:10071000C8607449714801F050FC18B101F023FC25
:100720007149086001F0FBFB6648001D6F490860D5
:100730006D48006810BD2DE9F0416D480088401FEC
:1007400087B2042400205CE0C21700EB9272921082
:100750005E4B53F82230C21C2244DFF898C11CF8CB
:10076000022043EA02620146C31700EB93739B1019
:10077000DFF858C14CF82320C21700EB9272921098
:10078000634653F82230821C2244DFF868C11CF80B
:10079000022043EA0242C31700EB93739B10DFF879
:1007A0002CC14CF82320C21700EB927292106346C2
:1007B00053F82230421C2244DFF838C11CF80220D2
:1007C00043EA0222C31700EB93739B10DFF8FCC0CF
:1007D0004CF82320C21700EB92729210634653F834
:1007E00022200319DFF80CC11CF803301A43C31789
:1007F00000EB93739B10DFF8D4C04CF82320011D4D
:1008000088B2B842A0DB01F07BFB002537480068C6
:10081000C61918E02D4850F8258042460023334879
:100820000168022001F021FA58B930480068001D23
:100830002E4908600020254941F82500681C85B232
:1008400000E004E000BF29480068B042E2D300BFE6
:1008500001F065FB25480068B04202D30020BDE8E6
:10086000F0810120FBE770B5164C251D01F048FB17
:100870000BE0154E324600232146022001F0F5F927
:1008800008B9241D00E002E000BFAC42F1D300BF74
:1008900001F045FBAC4201D3002070BD0120FCE714
:1008A000014600220020064A02EB8102136898B23A
:1008B00070470000140000201800002000100240C3
:1008C000006C0040FC630008443322114400002007
:1008D00080FFFF1F08ED00E004000020440400201A
:1008E000006000080C00002010000020080000201C
:1008F000300000205404002010B5F848F849086082
:100900004FF4614048600021F5488160C160016199
:100910000C21416100218161C16103F0F1FA08B14C
:10092000FFF7F7FD10BD10B586B0044600BFED48D7
:10093000806940F00400EB4988610846806900F056
:100940000400019000BF00BF00BF0846806940F06E
:10095000040088610846806900F00400019000BF2F
:1009600000BF00BF0846806940F004008861084667
:10097000806900F00400019000BF00BF00BF08467E
:10098000C06940F40030C8610846C06900F4003016
:10099000019000BF00BF00BF0846406940F0010061
:1009A00048610846406900F00100019000BF00BFA7
:1009B000042002900220039001200490032005905F
:1009C00002A9C94801F0B8FD082002900020039058
:1009D000049002A9C44801F0AFFD0220029001205A
:1009E000039004900320059002A9BF4801F0A4FDE4
:1009F00001220021262000F0FFFA262000F03AFB19
:100A0000BA48BB490860102048600021B84881609E
:100A10008021C1600021016141618161C16100F0FB
:100A20002BFC00BFB2482063446200BFAF481438BB
:100A3000B0490860002048600021AE4881608021F4
:100A4000C16000210161416181614FF40051C161C8
:100A500000F012FC00BFA7486063446200BF01229F
:100A60000621112000F0C8FA112000F003FB00223B
:100A70000621102000F0C0FA102000F0FBFA06B0AA
:100A800010BD10B50221984801F072FF10BD10B5DD
:100A9000FF23AA22012116E0022905DA9648405CCC
:100AA000AA2801D0184610BD022907D19248405CFF
:100AB000924C2478A04201D01846F4E78E48405C5E
:100AC0004240481C81B28E480088401E8842E3DCC8
:100AD0008B480088401E8849085C904201D0184627
:100AE000E1E78548C078DEE78348407982490979A3
:100AF00040EA01207047002004E00021814A11549F
:100B0000411CC8B20828F8DB7047002004E000212F
:100B1000794A1154411C88B2794909888842F6DB28
:100B2000704700207849088070477047F0B5054647
:100B30000E46059C0021AA20724F38706F4800783D
:100B40007870384684706C48C078B8700020F870AF
:100B500038717871B87100BF04E06A4F3F5C79402A
:100B6000471CB8B20728F8DB6648C171F0BD70B504
:100B700005460C4600200CE00021644A1154002276
:100B8000624B411C5A54811C5A54C11C5A54011DB9
:100B900088B2B0EB840FEFDB002034E00146C217CF
:100BA00000EB9272921015F82220584B1B5C1A43EE
:100BB000564B1A54C21700EB9272921035F822303D
:100BC000524E421CB25C42EA1322D3B2421CB354CE
:100BD000C21700EB9272921055F82230821CB25C60
:100BE00042EA1342D3B2821CB354C21700EB927292
:100BF000921055F82230C21CB25C42EA1363C21C48
:100C0000B354011D88B2B0EB840FC7DBFFF739FF87
:100C1000A2003E49324803F0AFFC002000F065F925
:100C200070BD10B5FFF72DFF082236492C4803F0A0
:100C3000A3FC002000F059F910BD10B50122344981
:100C4000274803F00FFD10BD70B504460D46FFF7B1
:100C50005CFF2B480480FFF764FFFFF7EEFF70BDD9
:100C600010B500F03FF92B49086010BD10B52648BB
:100C7000008800280CDD00F035F926490968401A83
:100C8000B0F57A7F04D300201F490880FFF73DFFAD
:100C900010BD10B500F026F91E490968884204D934
:100CA000002019490880FFF730FF10BD10B5FFF78D
:100CB000E8FE022218490A4803F05EFC002000F01A
:100CC00014F910BD10B5FFF7DCFE052213490448E6
:100CD00003F052FC002000F008F910BD0044004071
:100CE0005C0C00200010024000080140800002401F
:100CF000D40C00209C0C002054040020380000205C
:100D00003000002027000020320000205908002079
:100D100026000020340000201C0000201F000020BE
:100D200010B50446FFF7ADFE10BD10B504460E48E1
:100D300000780E490E4A128888540D48008808B978
:100D4000FFF78EFF0A480088401C094908800846C2
:100D5000008808490988884202D1012006490870A4
:100D6000FFF76BFF10BD70472600002054040020E1
:100D700032000020300000202500002034480068A8
:100D800040F0010032490860084640683149084097
:100D90002F494860084600682F4908402C490860E0
:100DA0000846006820F4802008600846406820F467
:100DB000FE0048604FF41F008860C80327490860A0
:100DC000704710B5002100200022214B5B6803F022
:100DD0000C0121B1042906D0082928D107E0204BB5
:100DE000204C236027E01E4B1E4C236023E0184B51
:100DF0005B6803F47010164B5B6803F480320223C7
:100E000003EB904022B9184B4343164C23600DE08E
:100E10000F4B5B6803F4003323B1134B4343114C76
:100E2000236003E00E4B43430E4C236003E00C4B66
:100E30000C4C236000BF00BF054B5B68C3F303137A
:100E40000A4CE15C074B1B68CB40064C236010BD8D
:100E5000001002400000FFF8FFFFF6FE08ED00E082
:100E600000127A003C00002000093D006A4C000896
:100E7000704770B5044602F020FD4FF47A71B0FB64
:100E8000F1F5284600F02EF900222146501E00F010
:100E9000B3F8002070BD10B54048006840F0100065
:100EA0003E490860032000F095F80020FFF7E1FFBD
:100EB000FFF7F0FA002010BD704710B54FF0FF307B
:100EC0003749C86000200861401EC8600020C86023
:100ED000FFF7F2FF002010BD32480068401C314986
:100EE000086070472F480068704731B50024FFF74D
:100EF000F9FF044600BFFFF7F5FF001B0099884289
:100F0000F9D338BD4FF0E020006920F002004FF027
:100F1000E021086170474FF0E020006940F00200D6
:100F20004FF0E021086170471F4870471F48006874
:100F30001F4991FAA1F1B1FA81F1C84070471B48ED
:100F40000068C0F30B0070471848406840F001008B
:100F50001649486070471548406820F00100134961
:100F6000486070471148406840F002000F494860EF
:100F700070470E48406820F002000C4948607047F6
:100F80000A48406840F00400084948607047074834
:100F9000406820F004000549486070470020024086
:100FA000001002404000002000040001002004E086
:100FB0000000FFFF10B5002807DA0A07140EA94A3F
:100FC00000F00F031B1FD45403E00A07130EA64AB8
:100FD000135410BD00BF00F00702A24B0C3B196870
:100FE0004FF6FF031940A14B0B4343EA02219D4BEF
:100FF0000C3B196000BF70472DE9F05F80460D463D
:101000001646002700F027F9074639462A46334698
:1010100001F00700C0F1070ABAF1040F02D94FF03E
:10102000040A01E0C0F1070AD14600F1040ABAF14E
:10103000070F02D24FF0000A01E0A0F1030AD446E4
:101040004FF0010A0AFA09FAAAF1010A0AEA020AA9
:101050000AFA0CFA4FF0010B0BFA0CFBABF1010B87
:101060000BEA030B4AEA0B0421464046FFF7A2FFB6
:10107000BDE8F09F00BF00F01F020121914042092E
:10108000920002F1E022C2F8001100BF704700BFD9
:1010900000F01F0201219140754A430942F82310D4
:1010A00000BF704700BF00BF00BF00BF00BFBFF35D
:1010B0004F8F00BF00BF00BF6A480C38006800F4C3
:1010C000E0606A490843001D66490C39086000BFAA
:1010D00000BF00BFBFF34F8F00BF00BF00BF00BF06
:1010E00000BFFDE770B504462546681EB0F1807F5D
:1010F00001D301200FE0681E4FF0E02148610F216D
:101100004FF0FF30FFF756FF00204FF0E0218861DD
:1011100007200861002070BD10B500F09CF810BDDC
:101120002DE9F04304462046002808DA4D4F00F030
:101130000F0CACF1040C17F80C703F0902E04A4F99
:101140003F5C3F093D460E4606F00700C0F1070828
:10115000B8F1040F02D94FF0040801E0C0F107080C
:10116000C44600F10408B8F1070F02D24FF000089E
:1011700001E0A0F10308474625FA07F84FF00109FE
:1011800009FA0CF9A9F1010908EA0908C2F8008076
:101190004FF0010808FA07F8A8F1010808EA050865
:1011A000C3F8008000BFBDE8F08300BF00F01F025D
:1011B000012191402E4A8032430942F8231000BF9A
:1011C000704710B501460846294A8032430952F853
:1011D000232000F01F040123A3401A400AB101227A
:1011E00000E00022104610BD00BF00F01F020121E8
:1011F0009140204A430942F8231000BF704710B5C0
:10120000014608461B4A8032430952F8232000F069
:101210001F040123A3401A400AB1012200E000226A
:10122000104610BD042808D14FF0E021096941F0B3
:1012300004014FF0E022116107E04FF0E02109695D
:1012400021F004014FF0E02211617047704710B5A2
:10125000FFF7FCFF10BD03480C380068C0F3022004
:101260007047000018ED00E000E400E00000FA051F
:1012700080E100E080E200E00146002209B901209F
:10128000704791F8210010B9002081F82000022059
:1012900081F821000868026843F6F0708243D1E9C2
:1012A00001031843CB6818430B6918434B69184373
:1012B0008B691843CB691843024308680260002019
:1012C0004863012081F821000020D9E7014609B9CF
:1012D0000120704791F82100022801D10120F8E790
:1012E0000868006820F001000A68106000200A68A1
:1012F00010600A6850600A6890600A68D060F74A17
:101300000868904201D1022027E0F44A14320868AC
:10131000904201D1202020E0F04A28320868904213
:1013200001D1401519E0ED4A3C320868904202D1E3
:101330004FF4005011E0E94A50320868904202D15F
:101340004FF4003009E0E54A64320868904202D167
:101350004FF4001001E04FF00070E04A083A50608E
:10136000DE4A0868904201D1082027E0DB4A1432A7
:101370000868904201D1802020E0D84A28320868CD
:10138000904201D1C01419E0D44A3C32086890421E
:1013900002D14FF4004011E0D04A50320868904228
:1013A00002D14FF4002009E0CC4A64320868904230
:1013B00002D14FF4000001E04FF00060C74A083A44
:1013C0005060C64A0868904201D1042027E0C34A11
:1013D00014320868904201D1402020E0BF4A2832F0
:1013E0000868904201D1001519E0BC4A3C320868F7
:1013F000904202D14FF4804011E0B84A5032086860
:10140000904202D14FF4802009E0B44A6432086867
:10141000904202D14FF4800001E04FF08060AF4A6B
:10142000083A50600020486381F8210000BF81F82D
:10143000200000BF00BF4CE710B50468636044683B
:10144000102C04D10468A2600468E16003E0046821
:10145000A1600468E26010BD2DE9F04104460D462C
:1014600016461F4600BF94F82000012802D1022032
:10147000BDE8F081012084F8200000BF022084F83C
:1014800021002068006820F00100216808603B46C8
:10149000324629462046FFF7CFFF2068006840F01B
:1014A0000100216808600020E2E72DE9F0410446D0
:1014B0000D4616461F4600BF94F82000012802D1B1
:1014C0000220BDE8F081012084F8200000BF022046
:1014D00084F821002068006820F00100216808607D
:1014E0003B46324629462046FFF7A6FF20680068A3
:1014F00040F00200216808602068006840F00400A5
:10150000216808602068006840F0080021680860D1
:101510002068006840F00100216808600020D0E7E2
:1015200070B5044600252068006820F0010021689D
:101530000860FFF7D7FC054613E0FFF7D3FC401B1C
:10154000B0F57A7F0DD9606B40F020006063032016
:1015500084F8210000BF002084F8200000BF032091
:1015600070BD2068006800F001000028E5D101206E
:1015700084F8210000BF002084F8200000BF00BFD5
:10158000EEE72DE9F04104460E4615464FF00008FF
:101590007EBB52492068884201D1022027E04F4992
:1015A00014312068884201D1202020E04B492831A5
:1015B0002068884201D1401519E048493C31206833
:1015C000884202D14FF4005011E044495031206864
:1015D000884202D14FF4003009E04049643120686C
:1015E000884202D14FF4001001E04FF0007007462E
:1015F0002FE0FFE739492068884201D1042027E025
:10160000364914312068884201D1402020E0334916
:1016100028312068884201D1001519E02F493C315A
:101620002068884202D14FF4804011E02B495031AC
:101630002068884202D14FF4802009E027496431B4
:101640002068884202D14FF4800001E04FF08060B2
:101650000746FFF747FC80468DE0204808380068C1
:101660001E4A2168914201D1082127E01B4A143209
:101670002168914201D1802120E0184A2832216856
:10168000914201D1C91419E0144A3C3221689142B7
:1016900002D14FF4004111E0104A503221689142CA
:1016A00002D14FF4002109E00C4A643221689142D2
:1016B00002D14FF4000101E04FF000610840E0B3B7
:1016C00006492068884201D1082029E003491431E5
:1016D0002068884204D1802022E0000008000240F7
:1016E000F9492068884201D1C01419E0F649143143
:1016F0002068884202D14FF4004011E0F2492831BD
:101700002068884202D14FF4002009E0EE493C31C4
:101710002068884202D14FF4000001E04FF00060E1
:10172000E94930394860606B40F001006063042093
:1017300084F8210000BF002000E005E084F82000CC
:1017400000BF0120BDE8F081681CA0B12DB1FFF7FA
:10175000C9FBA0EB0800A8420DD9606B40F0200047
:101760006063032084F8210000BF002084F820007B
:1017700000BF0320E6E7D44830380068384000282E
:101780003FF46BAFA6BBD04928392068884201D10D
:10179000022026E0CC4914392068884201D120205B
:1017A0001FE0C9492068884201D1401519E0C649A7
:1017B00014312068884202D14FF4005011E0C24930
:1017C00028312068884202D14FF4003009E0BE4938
:1017D0003C312068884202D14FF4001001E04FF004
:1017E0000070B94930394860012084F8210034E0A4
:1017F000FFE7B54928392068884201D1042026E056
:10180000B14914392068884201D140201FE0AE4917
:101810002068884201D1001519E0AB4914312068D5
:10182000884202D14FF4804011E0A7492831206856
:10183000884202D14FF4802009E0A3493C3120685E
:10184000884202D14FF4800001E04FF080609E4951
:1018500030394860112084F8210000BF002084F84E
:10186000200000BF00BF6DE710B504469648303831
:101870000068954A283A2168914201D1082126E062
:10188000914A143A2168914201D180211FE08E4A89
:101890002168914201D1C91419E08B4A14322168A0
:1018A000914202D14FF4004111E0874A2832216869
:1018B000914202D14FF4002109E0834A3C32216871
:1018C000914202D14FF4000101E04FF00061084065
:1018D00000284DD020680068C0F3C00088B320689D
:1018E000006820F0080021680860774928392068DE
:1018F000884201D1082027E07349143920688842C2
:1019000001D1802020E070492068884201D1C014B4
:101910001AE06D4914312068884202D14FF400402A
:1019200012E0694928312068884202D14FF4002032
:101930000AE065493C312068884203D14FF4000039
:1019400002E015E04FF000605F4930394860606B9D
:1019500040F001006063042084F8210000BF0020F3
:1019600084F8200000BF206B10B12046216B88470F
:10197000554830380068544A283A2168914201D1CC
:10198000042126E0504A143A2168914201D14021B5
:101990001FE04D4A2168914201D1091519E04A4AD8
:1019A00014322168914202D14FF4804111E0464A3D
:1019B00028322168914202D14FF4802109E0424A45
:1019C0003C322168914202D14FF4800101E04FF096
:1019D0008061084098B320680068C0F3800070B34D
:1019E0002068006800F0200028B92068006820F016
:1019F000040021680860344928392068884201D1F0
:101A0000042027E0304914392068884201D1402061
:101A100020E02D492068884201D100151AE02A49AA
:101A200014312068884202D14FF4804012E02649E8
:101A300028312068884203D14FF480200AE014E066
:101A400021493C312068884202D14FF4800001E0F6
:101A50004FF080601C4930394860112084F8210023
:101A6000E06A10B12046E16A8847174830380068BC
:101A7000154A283A2168914201D1022128E0124AF0
:101A8000143A2168914201D1202121E00E4A2168B7
:101A9000914201D149151BE00B4A14322168914251
:101AA00002D14FF4005113E0074A283221689142D5
:101AB00002D14FF400310BE0034A3C3221689142DD
:101AC00004D14FF4001103E0300002404FF00071E8
:101AD000084098B320680068C0F3400070B32068E5
:101AE000006800F0200028B92068006820F002009B
:101AF0002168086024492068884201D1022028E03A
:101B0000214914312068884201D1202021E01E495A
:101B100028312068884201D140151AE01A493C3129
:101B20002068884202D14FF4005012E0164950312B
:101B30002068884203D14FF400300AE01BE01249CC
:101B400064312068884202D14FF4001001E04FF068
:101B500000700D4908394860606B6063012084F8AB
:101B6000210000BF002084F8200000BFA06A10B14F
:101B70002046A16A884710BD014691F821007047B0
:101B80000146486B7047000008000240F748C068F3
:101B900000F0100028B1F648C06940F00200F44996
:101BA000C861F248C06800F0040028B1F048C0697C
:101BB00040F00100EE49C861EC48C06900F0010046
:101BC00068B1EB48C06940F00400E949C86100BF52
:101BD000E648C06920F00100E449C86100BF00BFC9
:101BE0001420E249C86000BF704770B50446FFF793
:101BF00079F9054609E0601C38B124B1FFF772F9A4
:101C0000401BA04201D9032070BDD848C06800F035
:101C100001000028EFD1D548C06800F0200020B1B5
:101C200000BF2020D149C86000BFD048C06800F084
:101C3000100048B9CD48C06900F0010020B9CB4878
:101C4000C06800F0040018B1FFF7A0FF0120DBE737
:101C50000020D9E70022C64BDA61C44A126942F07B
:101C60000102C24B1A61018070472DE9FE4F054603
:101C70008B4617469846012600240020029000BF9C
:101C8000BB48007E012802D10220BDE8FE8F012062
:101C9000B749087600BF4CF25030FFF7A6FF064662
:101CA00086BB012D02D10120029006E0022D02D157
:101CB0000220029001E00420029000241EE0220194
:101CC000B946C2464846514602F080FF80B20190B4
:101CD000022000FB04B000900199FFF7BBFF4CF21B
:101CE0005030FFF782FF0646A048006920F001004F
:101CF0009E49086106B104E0601CC4B202988442A7
:101D0000DDDB00BF00BF00209949087600BF3046E8
:101D1000BBE72DE9F04106460F4614461D464FF03D
:101D2000000800BF9248007E012802D10220BDE8D1
:101D3000F08101208E49087600BF8C48006940F48C
:101D4000A0508A4908618A48876004614561012E74
:101D500005D1032086490870012048600CE0022E5E
:101D600005D10420824908700220486004E0052063
:101D70007F49087004204860A1B23846FFF76AFF27
:101D80004046D4E77047704710B500247748C068D4
:101D900000F0100020B97548C06800F0040068B178
:101DA000734884684FF0FF3071498860FFF7EEFE9A
:101DB0002046FFF7E8FF00206D4908706B48C068B7
:101DC00000F02000002828D000BF20206749C8600C
:101DD00000BF6748007800287ED065480078012859
:101DE00027D163484068401E614948600846406802
:101DF000A0B1084684682046FFF7C4FF5C488068AD
:101E000000F580645A4884605848006920F0020058
:101E100056490861204600F0B1F85DE04FF0FF3010
:101E2000044653498860002008702046FFF7AAFF47
:101E300052E04F48007802280CD14C48006920F04D
:101E400004004A4908610020FFF79CFF0020484930
:101E5000087041E046484068401E454948600846D1
:101E60004068D8B108468068801C8860084684684D
:101E700008694969000C40EA0140090C3C4A1061BC
:101E800051613A48006920F0010038490861106941
:101E9000526981B22046FFF7DDFE1DE0344800782C
:101EA000032804D132498868FFF76CFF0EE0304800
:101EB0000078042805D12E498968881EFFF762FF43
:101EC00004E02B498968881FFFF75CFF4FF0FF3063
:101ED00027498860002008702548007878B9234891
:101EE000006920F00700214908610846006920F4D4
:101EF000A050086100BF00201D49087600BF10BD3A
:101F00001A48006900F0800028B11A481749486053
:101F10001948486001E0012070470020FCE71348A1
:101F2000006940F0800011490861002070470F48A7
:101F3000006900F4007028B90E480C4988600E480A
:101F4000886001E0012070470020FCE70748006935
:101F500020F40070054908610020704710B5FFF7B4
:101F6000A1F8002010BD0248C0697047002002405F
:101F7000100D002023016745AB89EFCD0021FE4AFB
:101F8000D161FE49096941F00201FC4A1161114623
:101F90004861096941F04001116170470021F64A2A
:101FA000D161F649096941F00401F44A1161114611
:101FB000096941F04001116170472DE9F041044683
:101FC0000E460127002500BFEB48007E012802D104
:101FD0000220BDE8F0810120E749087600BF2068B3
:101FE000022813D14CF25030FFF7FFFD90BB0120C7
:101FF000FFF7D4FF4CF25030FFF7F7FD0746DF48FC
:10200000006920F00400DD49086123E04CF2503003
:10201000FFF7EBFDF0B94FF0FF303060A56812E03C
:102020002846FFF7ABFF4CF25030FFF7DEFD0746C6
:10203000D248006920F00200D04908610FB1356034
:1020400007E005F58065D4E9021001EB8020A84285
:10205000E6D800BF00BF0020C749087600BF384659
:10206000B7E770B50446002500BFC348007E0128CD
:1020700001D1022070BD0120BF49087600BF08468B
:10208000007808B10120F5E7BC48006940F4A05091
:10209000BA4908612068022805D1B749087060680C
:1020A000FFF77CFF09E00120B3490870E068486051
:1020B000A0688860A068FFF761FF2846DAE770B57E
:1020C000054600244CF25030FFF78FFD04465CBB00
:1020D0000020A949C861A948006940F02000A7492B
:1020E00008610846006940F0400008614CF2503039
:1020F000FFF77BFD0446A148006920F020009F49BE
:1021000008618CB90846006940F0100008619C48DD
:1021100005804CF25030FFF768FD0446974800698F
:1021200020F0100095490861204670BDA5200021CF
:10213000924AD26902F00201022901D1002000E096
:10214000A520704770B5A5250124FFF7EFFFC5B2A4
:102150004CF25030FFF749FD0446ECB900208649A7
:10216000C8618648006940F020008449086108463B
:10217000006940F0400008614CF25030FFF735FD37
:1021800004467E48006920F020007C4908611CB9A3
:102190002846FFF794FF0446204670BD70B50446FC
:1021A0000D4601264CF25030FFF71FFD0646A6B93A
:1021B00000207149C8617148006940F010006F4902
:1021C000086125804CF25030FFF70FFD06466B4842
:1021D000006920F0100069490861304670BD70B593
:1021E000044600254CF25030FFF7FFFC0546C5B908
:1021F00000206149C8616148006940F010005F49F2
:10220000086144F088005E49891C08804CF2503017
:10221000FFF7EBFC05465948006920F010005749CC
:102220000861284670BD5548006A70472DE9F0479F
:10223000044600254FF6FF763746B046B146FFF715
:10224000F2FF0443E6B2C4F30727C4F307484FEA9A
:1022500014694CF25030FFF7C8FC0546002D51D1EF
:102260004549C861FFF76EFF0546002D4AD1434836
:10227000006940F0100041490861FF2E0BD0404832
:102280000830008830433E49083108804CF2503015
:10229000FFF7ABFC05466DB9FF2F0BD038480A306D
:1022A0000088384336490A3108804CF25030FFF735
:1022B0009CFC05467DB9B8F1FF0F0CD030480C30BE
:1022C000008840EA08002E490C3108804CF250305A
:1022D000FFF78BFC05467DB9B9F1FF0F0CD02848FC
:1022E0000E30008840EA090025490E3108804CF282
:1022F0005030FFF77AFC05462048006920F01000B6
:102300001E4908612846BDE8F0872DE9F0470446DC
:1023100000254FF6FF763746B046B146FFF783FFFC
:10232000C0432043C443E6B2C4F30727C4F30748BD
:102330004FEA14694CF25030FFF757FC0546002D68
:1023400056D10D49C861FFF7FDFE0546002D4FD15E
:102350000A48006940F0100008490861FF2E12D0B9
:1023600007480830008830400549083108804CF2A1
:102370005030FFF73AFC05E0100D0020002002402D
:1023800000F8FF1F05465DB9FF2F09D06748008898
:102390003840664908804CF25030FFF726FC05466D
:1023A0007DB9B8F1FF0F0CD06048801C008800EAAE
:1023B00008005E49891C08804CF25030FFF715FC7C
:1023C00005467DB9B9F1FF0F0CD05848001D0088B3
:1023D00000EA09005549091D08804CF25030FFF70A
:1023E00004FC05465248006920F01000504908617D
:1023F0002846BDE8F08770B50446012500BF4D486A
:10240000007E012801D1022070BD012049490876D3
:1024100000BF207800F0010098B16068012804D165
:10242000A068FFF772FF054603E0A068FFF7FEFE15
:10243000054635B100BF00203E49087600BF28465A
:10244000E2E7207800F0020002280BD1207CFFF7A1
:1024500036FE054635B100BF00203649087600BF7C
:102460002846D1E7207800F0040004280BD1607CD6
:10247000FFF7B5FE054635B100BF00202D490876AF
:1024800000BF2846C0E7207800F0080008280CD1DB
:10249000217E6069FFF782FE054635B100BF00204E
:1024A0002449087600BF2846AEE700BF0020214936
:1024B000087600BF2846A7E71D48C06900F01C0049
:1024C000042191FAA1F1B1FA81F1C840704710B529
:1024D000044607202060FFF7A6FEA060FFF726FE57
:1024E0002074FFF7E9FF607410BD014600200F4A19
:1024F000921F91420CD10E4AD26902F47F324FF4FE
:102500007F3393FAA3F3B3FA83F322FA03F00BE0D9
:10251000074AD26902F07F724FF07F7393FAA3F3F8
:10252000B3FA83F322FA03F0704700000AF8FF1FA2
:1025300000200240100D00202DE9F847034600243A
:10254000002000258446002700226EE14FF001089C
:1025500008FA02F4D1F8008008EA0400A0427DD114
:10256000DFF860A4D1F80480A8EB0A09D0453AD07E
:1025700014DCB8F1030F50D009DCB8F1000F31D0F2
:10258000B8F1010F1CD0B8F1020F49D120E0B8F129
:10259000110F18D0B8F1120F42D11EE0B9F5881F03
:1025A00025D006DCB9F5803F20D0B9F5801F37D1A2
:1025B0001AE0B9F5001F18D0B9F5041F30D117E0A3
:1025C000D1F80CC02DE0D1F80C8008F1040C28E003
:1025D000D1F80C8008F1080C23E0D1F80C8008F148
:1025E0000C0C1EE000BF00BF00BF00BF00BF00BF5B
:1025F000D1F80880B8F1000F02D14FF0040C0BE0C5
:10260000D1F80880B8F1010F03D14FF0080C1C611C
:1026100002E04FF0080C5C6103E04FF0000C00E0BA
:1026200000BF00BFFF2801D8984601E003F104086D
:102630004646FF2802D84FEA820803E0A2F10808C4
:102640004FEA88084746D6F800804FF00F0909FA8C
:1026500007F928EA09080CFA07F900E088E048EAD7
:102660000908C6F80080D1F8048008F08058B8F155
:10267000805F7DD100BFDFF85083D8F8188048F024
:102680000108DFF84493C9F81880C846D8F81880C4
:1026900008F00108CDF8008000BF00BF4FEAB9384C
:1026A0004FEA920958F829504FEA82784FEA187990
:1026B0004FF00F0808FA09F825EA0805DFF80C833F
:1026C000434502D14FF0000816E0DFF8048343458C
:1026D00002D14FF001080FE0DFF8F882434502D144
:1026E0004FF0020808E0DFF8F082434502D14FF0D6
:1026F000030801E04FF004084FEA82794FEA1979A4
:1027000008FA09F848EA0505DFF8D0824FEA92098D
:1027100048F82950D1F8048008F48038B8F5803F93
:102720000AD1DFF8BC82D8F8008048EA0008DFF858
:10273000B092C9F8008009E0DFF8A482D8F80080E0
:1027400028EA0008DFF89892C9F80080D1F80480E0
:1027500008F40038B8F5003F10D1DFF8848208F1A2
:102760000408D8F8008048EA0008DFF8749200E016
:102770005AE009F10409C9F800800DE0DFF8608231
:1027800008F10408D8F8008028EA0008DFF8509221
:1027900009F10409C9F80080D1F8048008F4801810
:1027A000B8F5801F0ED1DFF8388208F10808D8F894
:1027B000008048EA0008DFF8289209F10809C9F802
:1027C00000800DE0DFF8188208F10808D8F80080D2
:1027D00028EA0008DFF8089209F10809C9F8008022
:1027E000D1F8048008F40018B8F5001F0ED1DFF806
:1027F000F08108F10C08D8F8008048EA0008DFF8FA
:10280000E09109F10C09C9F800800DE0DFF8D081F2
:1028100008F10C08D8F8008028EA0008DFF8C09119
:1028200009F10C09C9F80080521C102AFFF48EAE81
:10283000BDE8F8872DE9F04102460B460020002153
:10284000002400267FE00127874007EA03010029D2
:1028500078D0FF2901D8174600E0171D3D46FF2913
:1028600001D8870002E0A0F10807BF003E462F68AC
:102870004FF00F0C0CFA06FC27EA0C074FF0040C83
:102880000CFA06FC47EA0C072F60D7688F43D76025
:10289000524F4FEA900C57F82C4087074FEA177CAD
:1028A0000F2707FA0CF73C40484FBA4201D10027E6
:1028B0000FE0474FBA4201D101270AE0454FBA4223
:1028C00001D1022705E0444FBA4201D1032700E0BD
:1028D00004274FEA807C4FEA1C7C07FA0CF7A742DA
:1028E00030D187074FEA177C0F2707FA0CF43B4FCC
:1028F0004FEA900C57F82C70A743DFF8E0C04FEA7E
:1029000090084CF82870364F3F688F43DFF8D0C0EE
:10291000CCF800700CF104073F688F430CF1040CF5
:10292000CCF800700CF104073F688F430CF1040CE5
:10293000CCF800700CF104073F688F430CF1040CD5
:10294000CCF80070401C23FA00F7002F7FF47BAF17
:10295000BDE8F081024693680B400BB1012000E016
:10296000002070470AB1016101E00B040361704768
:10297000C2684A40C260704708B502464FF48030D2
:102980000090009808430090009890619161009831
:10299000906190690090906900F4803008B1002047
:1029A00008BD0120FCE7704710B504460C48143000
:1029B0000068204028B10A48143004602046FFF720
:1029C000F2FF10BD0000111000100240000801408D
:1029D000000C0140001001400014014008000140BB
:1029E0000004014020BF00BF70478848006940F0E4
:1029F0008050864908610846006920F080500861CF
:102A000070470120010291FAA1F1B1FA81F1804AE7
:102A100042F82100704700204FF4807191FAA1F133
:102A2000B1FA81F17A4A42F8210070477949096880
:102A300021F0E00102681143764A11607649096885
:102A400021F48031744A1160111F096821F480312A
:102A5000121F116070490831096821F480316E4AF3
:102A600008321160111F096821F48031121F1160B2
:102A7000416801F48031B1F5803F07D16649091FF3
:102A8000096841F48031644A121F1160416801F401
:102A90000031B1F5003F05D15F49096841F480314B
:102AA0005D4A1160017901F0010139B15A49091DEE
:102AB000096841F48031584A121D1160017901F012
:102AC0000201022907D154490831096841F48031D3
:102AD000514A0832116070470120102191FAA1F18A
:102AE000B1FA81F14A4A42F82100704700201021D2
:102AF00091FAA1F1B1FA81F1454A42F821007047FB
:102B0000012190FAA0F2B2FA82F2414B03EB820269
:102B1000C2F880107047002190FAA0F2B2FA82F257
:102B20003B4B03EB8202C2F8801070473B4A1268AD
:102B300022F00402394B1A60012901D130BF02E0B2
:102B400040BF20BF20BF704770B504460D463148D6
:102B5000006820F002002F4908600846006820F055
:102B60000100204308602D48006840F004002B4914
:102B70000860012D01D130BF04E040BFFFF732FFF4
:102B8000FFF730FF2548006820F004002349086063
:102B900070BD2048006840F002001E4908601F48D0
:102BA000006840F004001D49086000BF00BF30BF4E
:102BB00070471A48006840F00200184908607047E2
:102BC0001648006820F00200144908607047134856
:102BD000006840F010001149086070470F48006815
:102BE00020F010000D4908607047704710B50A4882
:102BF0001030006800F4803030B1FFF7F6FF4FF47A
:102C0000803005491031086010BD000000100240FE
:102C100000000E42007000400404014010ED00E08E
:102C2000F948406820F00300F7494860084600680A
:102C3000F6490840F44908600846006820F48020FE
:102C40000860002048600846006820F0F800102165
:102C5000F82292FAA2F2B2FA82F291400843EA49CB
:102C6000086000208860EA48EA490860704738B583
:102C700004460025207800F0010000287ED0E248BC
:102C8000406800F00C0004280CD0DF48406800F0D9
:102C90000C00082837D1DC48406800F48030B0F5DB
:102CA000803F30D12020010391FAA1F1B1FA81F1E6
:102CB00008430121B1EB601F02D1D34800680FE047
:102CC0002020010391FAA1F1B1FA81F10843022118
:102CD000B1EB601F02D1CC48006A01E0CA48406AEB
:102CE00020210A0392FAA2F2B2FA82F2114301F011
:102CF0001F020121914008400028BFD060680028D1
:102D00003CD1012038BD00BF6068B0F5803F06D1DE
:102D1000BD48006840F48030BB49086028E0606826
:102D200058B9B948006820F48030B74908600846AF
:102D3000006820F4802008601AE06068B0F5A02FD9
:102D40000BD1B148006840F48020AF4908600846C4
:102D5000006840F4803008600AE0AB48006820F466
:102D60008030A94908600846006820F48020086087
:102D700000BF6068C8B3FEF7B5F800E06DE0054637
:102D800006E0FEF7AFF8401B642801D90320B9E73D
:102D90002020010391FAA1F1B1FA81F10843012148
:102DA000B1EB601F02D1984800680FE020200103BA
:102DB00091FAA1F1B1FA81F108430221B1EB601F50
:102DC00002D19148006A01E08F48406A20210A033D
:102DD00092FAA2F2B2FA82F2114301F01F0201212B
:102DE000914008400028CCD037E0FFE7FEF77AF8A2
:102DF000054606E0FEF776F8401B642801D903205B
:102E000080E72020010391FAA1F1B1FA81F1084392
:102E10000121B1EB601F02D17B4800680FE0202048
:102E2000010391FAA1F1B1FA81F108430221B1EB5A
:102E3000601F02D17448006A01E07348406A202193
:102E40000A0392FAA2F2B2FA82F2114301F01F02CF
:102E50000121914008400028CCD1207800F00200E8
:102E600002284ED16848406800F00C0050B1664816
:102E7000406800F00C00082844D16348406800F422
:102E8000803078BB2020022191FAA1F1B1FA81F1C2
:102E900008430121B1EB601F02D15B4800680FE0DD
:102EA0002020022191FAA1F1B1FA81F10843022117
:102EB000B1EB601F02D15448006A01E05248406AF9
:102EC0002021022292FAA2F2B2FA82F2114301F018
:102ED0001F0201219140084028B12069012802D039
:102EE00001200FE70EE04848006820F0F800F822C3
:102EF00092FAA2F2B2FA82F2616991400843424921
:102F000008609BE0206970B3012090FAA0F1B1FA4B
:102F100081F1414A42F82100FDF7E4FF054606E051
:102F2000FDF7E0FF401B022801D90320EAE620203C
:102F3000022191FAA1F1B1FA81F108430121B1EB2B
:102F4000601F02D13048006810E02020022191FA71
:102F5000A1F1B1FA81F108430221B1EB601F03D165
:102F60002948006A02E01EE02748406A2021022228
:102F700092FAA2F2B2FA82F2114301F01F02012189
:102F8000914008400028CBD01F48006820F0F8008E
:102F9000F82292FAA2F2B2FA82F2616991400843F1
:102FA000194908604AE00020012191FAA1F1B1FA23
:102FB00081F1194A42F82100FDF794FF054606E029
:102FC000FDF790FF401B022801D903209AE620203C
:102FD000022191FAA1F1B1FA81F108430121B1EB8B
:102FE000601F02D1084800681AE02020022191FAEF
:102FF000A1F1B1FA81F108430221B1EB601F0DD1BB
:103000000148006A0CE0000000100240FFFFF6FEDD
:1030100000127A003C00002000004242F548406A5D
:103020002021022292FAA2F2B2FA82F2114301F0B6
:103030001F020121914008400028C1D1207800F0F2
:103040000800082846D1A06980B3012191FAA1F0B7
:10305000B0FA80F0E84A02EB8000C0F88014FDF777
:1030600041FF054606E0FDF73DFF401B022801D960
:10307000032047E66020022191FAA1F1B1FA81F123
:1030800008430121B1EB601F02D1DA48006810E06B
:103090006020022191FAA1F1B1FA81F108430221E5
:1030A000B1EB601F03D1D348006A02E013E0D148BE
:1030B000406A6021022292FAA2F2B2FA82F211432D
:1030C00001F01F020121914008400028CBD00120CF
:1030D000FDF70BFF41E00020012191FAA1F1B1FAC7
:1030E00081F1C54A02EB8101C1F88004FDF7FAFEC7
:1030F000054606E0FDF7F6FE401B022801D9032035
:1031000000E66020022191FAA1F1B1FA81F10843B1
:103110000121B1EB601F02D1B64800680FE06020CA
:10312000022191FAA1F1B1FA81F108430221B1EB38
:10313000601F02D1AF48006A01E0AE48406A6021DA
:10314000022292FAA2F2B2FA82F2114301F01F02B5
:103150000121914008400028CCD1207800F00400E3
:10316000042875D100BFA348C06940F08050A14930
:10317000C8610846C06900F08050009000BF00BFE1
:103180009E48006840F480709C490860FDF7AAFEE4
:10319000054606E0FDF7A6FE401B642801D9032082
:1031A000B0E59648006800F480700028F2D000BFB7
:1031B000E068012806D18F48006A40F001008D497F
:1031C000086227E0E06858B98A48006A20F00100E8
:1031D000884908620846006A20F00400086219E085
:1031E000E06805280BD18348006A40F0040081495B
:1031F00008620846006A40F0010008620AE07D4863
:10320000006A20F001007B4908620846006A20F04D
:103210000400086200BFE068D0B3FDF763FE054616
:1032200008E0FDF75FFE401B41F28831884201D97A
:10323000032067E54020022191FAA1F1B1FA81F162
:1032400008430121B1EB601F03D16A48006810E018
:1032500058E04020022191FAA1F1B1FA81F108432E
:103260000221B1EB601F02D16248006A01E06148AF
:10327000406A4021022292FAA2F2B2FA82F211438B
:1032800001F01F020121914008400028C9D039E017
:10329000FFE7FDF727FE054608E0FDF723FE401B8C
:1032A00041F28831884201D903202BE540200221D8
:1032B00091FAA1F1B1FA81F108430121B1EB601F4C
:1032C00002D14C4800680FE04020022191FAA1F1A0
:1032D000B1FA81F108430221B1EB601F02D14548E8
:1032E000006A01E04348406A4021022292FAA2F2B9
:1032F000B2FA82F2114301F01F020121914008400D
:103300000028CAD1E069002873D03A48406800F02C
:103310000C00082874D0E069022872D100204FF018
:10332000807191FAA1F1B1FA81F1334A42F821009A
:10333000FDF7D8FD054606E0FDF7D4FD401B022849
:1033400001D90320DEE42020010591FAA1F1B1FAB0
:1033500081F108430121B1EB601F02D125480068CB
:103360000FE02020010591FAA1F1B1FA81F10843A3
:103370000221B1EB601F02D11E48006A01E01D4826
:10338000406A20210A0592FAA2F2B2FA82F21143AF
:1033900001F01F020121914008400028CCD1206A91
:1033A000B0F5803F07D11348406820F40030A16891
:1033B000084310494860D4E9080108430D494968A9
:1033C00021F4741108430B4948600121080690FA62
:1033D000A0F0B0FA80F0084A42F82010FDF782FD14
:1033E00005460FE0FDF77EFD401B02280AD90320A9
:1033F00088E478E000100240000042420070004083
:103400006FE02CE02020010591FAA1F1B1FA81F1E1
:1034100008430121B1EB601F02D1FA4800680FE0B8
:103420002020010591FAA1F1B1FA81F108430221AE
:10343000B1EB601F02D1F348006A01E0F148406A35
:1034400020210A0592FAA2F2B2FA82F2114301F0A7
:103450001F020121914008400028C3D043E0002012
:103460004FF0807191FAA1F1B1FA81F1E64A42F888
:103470002100FDF737FD054606E0FDF733FD401B53
:10348000022801D903203DE42020010591FAA1F191
:10349000B1FA81F108430121B1EB601F02D1D94893
:1034A00000680FE02020010591FAA1F1B1FA81F145
:1034B00008430221B1EB601F02D1D248006A01E04B
:1034C000D048406A20210A0592FAA2F2B2FA82F2AA
:1034D000114301F01F020121914008400028CCD186
:1034E00001E001200EE400200CE4F0B585B00FF2FD
:1034F0001C3C9CE8E01001A8A0E8E010C7A52D68DE
:10350000009500210024002200230020BD4D6968A1
:1035100001F00C056DB3042D02D0082D28D101E077
:10352000BF4828E001F470154FF4701696FAA6F61D
:10353000B6FA86F6F54001AE735D01F4803595B1BB
:10354000B04D6D6805F400354FF4003696FAA6F6D6
:10355000B6FA86F6F5401DF80540B14DB5FBF4F519
:1035600005FB03F202E0AF4D03FB05F2104602E05B
:1035700000BFAB4800BF00BF05B0F0BD70B504464A
:103580000D460026A848006800F00700A8420ED2A9
:10359000A548006820F007002843A34908600846B2
:1035A000006800F00700A84201D0012070BD20781B
:1035B00000F00200022807D19248406820F0F00095
:1035C000A16808438F494860207800F00100002876
:1035D0007CD0606801282DD12020010391FAA1F14F
:1035E000B1FA81F108430121B1EB601F02D1854896
:1035F00000680FE02020010391FAA1F1B1FA81F1F6
:1036000008430221B1EB601F02D17E48006A01E04D
:103610007C48406A20210A0392FAA2F2B2FA82F2AE
:10362000114301F01F02012191400840002860D1A0
:103630000120BBE7606802282CD12020010591FA07
:10364000A1F1B1FA81F108430121B1EB601F02D170
:103650006C4800680FE02020010591FAA1F1B1FA51
:1036600081F108430221B1EB601F02D16548006A75
:1036700001E06448406A20210A0592FAA2F2B2FAF7
:1036800082F2114301F01F0201219140084078BBF2
:1036900001208BE72020022191FAA1F1B1FA81F1FA
:1036A00008430121B1EB601F02D15648006810E0C9
:1036B0002020022191FAA1F1B1FA81F108430221FF
:1036C000B1EB601F03D14F48006A02E054E04D485F
:1036D000406A2021022292FAA2F2B2FA82F2114347
:1036E00001F01F0201219140084008B901205DE767
:1036F000FFE74448406820F00300616808434149FF
:103700004860FDF7EFFB06466068012810D108E02D
:10371000FDF7E8FB801B41F28831884201D9032084
:1037200044E73848406800F00C000428F0D123E05A
:103730006068022810D108E0FDF7D4FB801B41F23D
:103740008831884201D9032030E72E48406800F0D4
:103750000C000828F0D10FE008E0FDF7C3FB801B48
:1037600041F28831884201D903201FE7254840688B
:1037700000F00C000028F0D12B48006800F0070092
:10378000A8420ED92848006820F00700284326499F
:1037900008600846006800F00700A84201D0012038
:1037A00004E7207800F00400042807D11548406899
:1037B00020F4E060E168084312494860207800F096
:1037C0000800082808D10F48406820F4605021699B
:1037D00040EAC1000B494860FFF787FE0949496884
:1037E00001F0F001F02292FAA2F2B2FA82F2D14094
:1037F0000E4A515CC8400E4908600020FDF739FBB5
:103800000020D3E6001002400000424202030405FB
:10381000060708090A0B0C0D0E0F1010010200001C
:1038200000127A0000093D00002002406A4C0008A6
:103830003C00002070B586B005460C4616460020B8
:1038400002900390049005900220039003200590BD
:10385000002004904FF48070029000BF744880698B
:1038600040F00400724988610846806900F0040055
:10387000019000BF00BF02A96E48FEF75DFE6C48D4
:10388000406820F0E06020436949486006B070BDA0
:103890000120C10491FAA1F1B1FA81F1664A42F81E
:1038A0002100704700204FF4002191FAA1F1B1FAF4
:1038B00081F1614A42F82100704760480068704712
:1038C00000B5FFF7FAFF5A49496801F4E0614FF487
:1038D000E06292FAA2F2B2FA82F2D140584A515C06
:1038E000C84000BD00B5FFF7E8FF5149496801F441
:1038F00060514FF4605292FAA2F2B2FA82F2D140D1
:103900004F4A515CC84000BD0F2101604849096819
:1039100001F48021B1F5802F03D14FF4A021416043
:103920000CE04349096801F48031B1F5803F03D1CF
:103930004FF48031416001E0002141603C49496819
:1039400001F4003181603A49096801F0010111B1C7
:103950000121016101E0002101613549096801F09F
:10396000F801F82292FAA2F2B2FA82F2D140416151
:103970002F49096A01F00401042902D10521C1601F
:1039800009E02B49096A01F0010111B10121C1606F
:1039900001E00021C1602649496A01F0010111B12D
:1039A0000121816101E0002181612149096801F063
:1039B0008071B1F1807F02D10221C16101E001215A
:1039C000C1611B49496801F48032026218494968A3
:1039D00001F47012426270470F220260144A52686A
:1039E00002F003024260124A526802F0F002826062
:1039F0000F4A526802F4E062C2600D4A526802F453
:103A00006052D20802610F4A126802F007020A608F
:103A10007047704710B50648806800F08000802825
:103A200004D1FFF7F6FF80200149887210BD000025
:103A30000010024000080140000042423C0000200B
:103A40007A4C000800200240F8B504460026002504
:103A5000207800F00100002877D000BFAD48C06991
:103A600040F08050AB49C8610846C06900F0805002
:103A7000009000BF00BFA848006840F48070A649CD
:103A80000860FDF72FFA064606E0FDF72BFA801BCB
:103A9000642801D90320F8BD9F48006800F48070B5
:103AA0000028F2D09B48006A00F44075002D5ED0DB
:103AB000A08800F44070A84259D09648006A20F4CB
:103AC00040750120010491FAA1F1B1FA81F1934A04
:103AD00002EB8101C1F8000400204FF4803191FA1B
:103AE000A1F1B1FA81F102EB8101C1F8000489482A
:103AF000056205F0010048B3FDF7F4F9064608E059
:103B0000FDF7F0F9801B41F28831884201D903208A
:103B1000C1E74020022191FAA1F1B1FA81F10843F5
:103B20000121B1EB601F02D17A48006811E040200A
:103B3000022191FAA1F1B1FA81F108430221B1EB1E
:103B4000601F04D17348006A03E018E00FE0714879
:103B5000406A4021022292FAA2F2B2FA82F21143A2
:103B600001F01F020121914008400028C8D0694897
:103B7000006A20F440706168084366490862207852
:103B800000F00200022807D16248406820F440405B
:103B9000A16808435F494860207800F010001028B1
:103BA00007D15C48406820F48000E1680843594927
:103BB000486000206FE7002101220260554A126A26
:103BC00002F440714160026842F002020260514A10
:103BD000526802F440428260026842F010020260C1
:103BE0004C4A526802F48002C26070472DE9F043EB
:103BF00085B006464AA30FCB01AC0FC44CA00068A9
:103C000000900024A046A14600250027012E3DD0AB
:103C1000022E65D0102E77D13E484468006800F02F
:103C2000807068B304F470104FF4701191FAA1F130
:103C3000B1FA81F1C84001A90F5C04F48030A0B151
:103C40003448406800F40030710391FAA1F1B1FAF0
:103C500081F1C8401DF8009004F4803040B135482F
:103C6000B0FBF9F000FB07F502E0334807FB00F575
:103C70002848406800F48000B0F5800F01D1A846C4
:103C800003E068000321B0FBF1F83EE02148046A3C
:103C900004F44070B0F5807F05D104F0020010B14B
:103CA0004FF400481BE004F44070B0F5007F07D1EA
:103CB0001848406A00F0020010B149F640480EE092
:103CC00004F44070B0F5407F07D11248006800F45A
:103CD000003010B14FF2244801E04FF0000814E02A
:103CE000FFF700FE01460B48406800F440404FF4E7
:103CF000804292FAA2F2B2FA82F2D040401C400016
:103D0000B1FBF0F801E0FFE700BF00BF404605B09F
:103D1000BDE8F08300100240007000400000424205
:103D200002030405060708090A0B0C0D0E0F1010FC
:103D30000102000000127A0000093D002DE9F04167
:103D4000044600252068006920F44050E1680843DB
:103D5000216808612169A0680843616940EA01059A
:103D60002068C06841F20C61884328432168C8601C
:103D70002068406920F44070A169084321684861C7
:103D8000FE49206888425CD1FFF7ACFD00EBC00122
:103D900001EB001061688900B0FBF1F6FFF7A2FDAE
:103DA00000EBC00101EB001061688900B0FBF1F08D
:103DB0006421B0FBF1F000EBC00101EB0010A6EBB9
:103DC0008000322101EB00106421B0FBF1F000F023
:103DD000F006FFF787FD00EBC00101EB0010616802
:103DE0008900B0FBF1F06421B0FBF1F006EB0016A6
:103DF000FFF778FD00EBC00101EB0010616889005E
:103E0000B0FBF1F7FFF76EFD00EBC00101EB001016
:103E100061688900B0FBF1F06421B0FBF1F000EBC8
:103E2000C00101EB0010A7EB8000322101EB001074
:103E30006421B0FBF1F000F00F003044216888608D
:103E40005BE0FFF73DFD00EBC00101EB0010616896
:103E50008900B0FBF1F6FFF733FD00EBC00101EB89
:103E6000001061688900B0FBF1F06421B0FBF1F053
:103E700000EBC00101EB0010A6EB8000322101EB4A
:103E800000106421B0FBF1F000F0F006FFF718FD20
:103E900000EBC00101EB001061688900B0FBF1F09C
:103EA0006421B0FBF1F006EB0016FFF709FD00EB13
:103EB000C00101EB001061688900B0FBF1F7FFF76A
:103EC000FFFC00EBC00101EB001061688900B0FB52
:103ED000F1F06421B0FBF1F000EBC00101EB001048
:103EE000A7EB8000322101EB00106421B0FBF1F060
:103EF00000F00F00304421688860BDE8F081704711
:103F000010B504460CB9012010BDA06900B100E055
:103F100000BF94F8390028B9002084F83800204602
:103F2000FCF701FD022084F839002068C06820F405
:103F300000502168C8602046FFF700FF2068006934
:103F400020F49040216808612068406920F02A0030
:103F5000216848612068C06840F400502168C8604A
:103F60000020E063012084F839000020CCE710B580
:103F700004460CB9012010BD94F8390028B900207E
:103F800084F838002046FCF7CEFC022084F8390083
:103F90002068C06820F400502168C8602046FFF700
:103FA000CDFE2068006920F49040216808612068F7
:103FB000406920F02200216848612068406940F093
:103FC0000800216848612068C06840F400502168FA
:103FD000C8600020E063012084F839000020CAE7AF
:103FE00070B504460D460CB9012070BD94F8390037
:103FF00028B9002084F838002046FCF794FC022001
:1040000084F839002068C06820F400502168C86036
:104010002046FFF793FE2068006920F400602168C5
:1040200008612068406920F02A0021684861206802
:10403000006940F48040216808612068006920F030
:1040400020002843216808612068C06840F40050BF
:104050002168C8600020E063012084F83900002056
:10406000C3E770B504460D4616460CB9012070BD75
:1040700094F8390028B9002084F838002046FCF76D
:1040800052FC022084F839002068C06820F40050F7
:104090002168C8602046FFF751FE2068006920F4BF
:1040A0009040216808612068406920F02A0021685A
:1040B00048612068006920F00F00284321680861EA
:1040C0002068C06820F4006030432168C860206820
:1040D000C06840F400502168C8600020E0630120FF
:1040E00084F839000020C2E7704710B504460CB9C7
:1040F000012010BD022084F839002068C06820F437
:1041000000502168C86000202168C86021680861EB
:10411000216848612046FFF7E7FF0020E06384F84C
:10412000390000BF84F8380000BF00BFE1E72DE987
:10413000F04104460E4617461D464FF00008FCF7B6
:10414000D1FE80467FBB30E0681C68B32DB1FCF720
:10415000C9FEA0EB0800A84227D92068C06820F05B
:1041600080002168C8602068C06820F020002168B5
:10417000C8602068C06820F4807001E00038014009
:104180002168C8602068406920F00100216848610A
:10419000012084F8390000BF002084F8380000BFF7
:1041A0000320BDE8F0810BE0FFE7206800683040A5
:1041B000B04201D1012000E000200028C4D035E049
:1041C0002AE0681C40B32DB1FCF78CFEA0EB080080
:1041D000A84221D92068C06820F080002168C8600A
:1041E0002068C06820F020002168C8602068C0688E
:1041F00020F480702168C8602068406920F00100C8
:1042000021684861012084F8390000BF002084F84B
:10421000380000BF0320C4E7206800683040B04287
:1042200001D1012000E000200028CAD10020B8E719
:104230002DE9F04704460D46164699464FF0000812
:1042400094F83980B8F1010F02D0B8F1220F65D18E
:1042500005B116B90120BDE8F08700BF94F8380019
:10426000012801D10220F6E7012084F8380000BFC0
:104270000020E06394F83900222803D1322084F82A
:10428000390002E0122084F83900A684E68428E090
:10429000E08C401EE084A068B0F5805F14D14B46EE
:1042A000002280212046FFF742FF08B10320D2E719
:1042B0002F463888C0F3080021684860206908B993
:1042C000AD1C0EE06D1C0CE04B4600228021204608
:1042D000FFF72DFF08B10320BDE715F8010B21689A
:1042E0004860E08C0028D3DC4B4600224021204669
:1042F000FFF71DFF08B10320ADE794F8390032281D
:1043000003D1222084F8390002E0012084F839002A
:1043100000BF002084F8380000BF9CE702209AE725
:104320002DE9F04704460D46164699464FF0000821
:1043300094F83980B8F1010F02D0B8F1120F69D1A9
:1043400005B116B90120BDE8F08700BF94F8380028
:10435000012801D10220F6E7012084F8380000BFCF
:104360000020E06394F83900122803D1322084F849
:10437000390002E0222084F83900A685E68535E080
:10438000E08D401EE085A068B0F5805F18D14B46F7
:10439000002220212046FFF7CAFE08B10320D2E701
:1043A0002F46206930B920684068C0F30800388083
:1043B000AD1C1BE020684068C0B238806D1C15E061
:1043C0004B46002220212046FFF7B1FE08B1032012
:1043D000B9E7206920B92068406805F8010B05E0BD
:1043E0002068406800F07F0005F8010BE08D002890
:1043F000C6DC94F83900322803D1122084F8390041
:1044000002E0012084F8390000BF002084F8380061
:1044100000BF98E7022096E730B50346002493F8E2
:104420003940012C01D0222C2BD101B10AB9012035
:1044300030BD00BF93F83800012801D10220F7E712
:10444000012083F8380000BF19629A84DA840020C2
:10445000D86393F83900222803D1322083F8390039
:1044600002E0122083F8390000BF002083F83800F2
:1044700000BF1868C06840F080001D68E860002038
:10448000D6E70220D4E730B50346002493F839403C
:10449000012C01D0122C37D101B10AB9012030BD55
:1044A00000BF93F83800012801D10220F7E701206E
:1044B00083F8380000BF99629A85DA850020D863B6
:1044C00093F83900122803D1322083F8390002E032
:1044D000222083F8390000BF002083F8380000BF95
:1044E0001868C06840F480701D68E860186840690A
:1044F00040F001001D6868611868C06840F0200045
:104500001D68E8600020CAE70220C8E7704770B560
:1045100005466C6A0020E085E084012084F83900BB
:10452000E06B40F01000E0632046FCF71CFC70BD1F
:10453000704770B50446656A2846FFF7F9FF70BDFD
:10454000704770B505466C6A2868006800F0200066
:1045500070B90020E0842068406920F08000216864
:1045600048612068C06840F040002168C86002E0EF
:104570002046FCF7D5FB70BDF7B50446154600276D
:1045800094F83970012F01D0222F41D1019800B148
:104590000DB90120FEBD00BF94F83800012801D1FB
:1045A0000220F7E7012084F8380000BF019820625C
:1045B000A584E5840020E06394F83900222803D123
:1045C000322084F8390002E0122084F83900FE48D5
:1045D000216B8862FD48216BC862FD48216B08632E
:1045E00001AE23681A1D31682B46206BFCF75DFF76
:1045F0006FF04000216808602068406940F080004A
:104600002168486100BF002084F8380000BFC1E77E
:104610000220BFE7704770B50446656A2846FFF779
:10462000F9FF70BD704770B505466C6A2868006870
:1046300000F0200090B90020E0852068406920F05B
:1046400040002168486194F83900322803D11220D3
:1046500084F8390002E0012084F839002046FCF794
:1046600064FB70BDF7B504461546002794F8397011
:10467000012F01D0122F3CD1019800B10DB90120BA
:10468000FEBD00BF94F83800012801D10220F7E7F1
:10469000012084F8380000BF0198A062A5850020A1
:1046A000E06394F83900122803D1322084F83900ED
:1046B00002E0222084F83900C648616B8862C6484F
:1046C000616BC862C248616B086301AE32682368DF
:1046D000191D2B46606BFCF7E8FE2068406940F02E
:1046E00040002168486100BF002084F8380000BF06
:1046F000C6E70220C4E7014600BF91F83800012850
:1047000001D102207047012081F8380000BF91F8E4
:104710003900122806D10868406920F080000A6834
:1047200050611CE091F83900222806D108684069E0
:1047300020F040000A68506111E091F839003228F9
:1047400006D10868406920F0C0000A68506106E0A0
:1047500000BF002081F8380000BF0120D2E700BF71
:10476000002081F8380000BF00BFCBE708B5014644
:1047700000BF91F83800012801D1022008BD0120B6
:1047800081F8380000BF91F83900122806D1086876
:10479000406940F080000A6850612EE091F83900CD
:1047A00022280FD100BF08680068009008684068A0
:1047B000009000BF00BF0868406940F040000A68F0
:1047C00050611AE091F8390032280FD100BF086813
:1047D0000068009008684068009000BF00BF08684B
:1047E000406940F0C0000A68506106E000BF002048
:1047F00081F8380000BF0120C0E700BF002081F829
:10480000380000BF00BFB9E710B504462068406912
:1048100020F0C00021684861206B10B1206BFCF7CC
:104820007FFE606B10B1606BFCF77AFE012084F8AC
:104830003900002010BD10B504462068C06820F083
:1048400040002168C86094F83900322803D1222042
:1048500084F8390002E0012084F839002046FCF792
:104860005FFA002010BD10B50146002391F83930E1
:10487000122B01D0322B2CD18868B0F5805F0FD17C
:104880000A6A1088C0F308000C686060086918B9EB
:10489000086A801C086209E0086A401C086205E09A
:1048A0000C6A601C086220780C686060C88C401E2E
:1048B00080B2C88458B90868C06820F080000C68CD
:1048C000E0600868C06840F040000C68E0600020CC
:1048D00010BD0220FCE770B50446002694F839604C
:1048E000222E01D0322E52D1A068B0F5805F13D1B4
:1048F000A56A206940B920684068C0F30800288094
:10490000A06A801CA06219E020684068C0B22880BC
:10491000A06A401CA06211E0206938B92068406894
:10492000C1B2A26A501CA062117007E02068406802
:1049300000F07F01A26A501CA0621170E08D401E41
:1049400080B2E08508BB2068C06820F020002168A4
:10495000C86094F83900322803D1122084F8390055
:104960000EE02068C06820F480702168C86020686C
:10497000406920F0010021684861012084F8390075
:104980002046FCF7D2F9002070BD0020FCE7022091
:10499000FAE7F8B50446002500262068006800F014
:1049A00001052068C06800F4807625B11EB1E06B77
:1049B00040F00100E06320680068C0F34005206813
:1049C000406900F0010609E043450008334500084E
:1049D0000F450008274600081746000825B11EB1FC
:1049E000E06B40F00400E06320680068C0F38005DD
:1049F00025B11EB1E06B40F00200E0632068006862
:104A0000C0F3C00525B11EB1E06B40F00800E063C3
:104A100020680068C0F340152068C06800F02006D8
:104A20001DB116B12046FFF756FF20680068C0F39D
:104A3000C0152068C06800F080061DB116B1204680
:104A4000FFF711FF20680068C0F380152068C06878
:104A500000F040061DB116B12046FFF7ECFEE06BFA
:104A600070B100BF20680068009020684068009026
:104A700000BF00BF012084F839002046FCF773F91D
:104A8000F8BD014600BF91F83800012801D102208D
:104A90007047012081F8380000BF022081F83900FA
:104AA0000868C06840F001000A68D060012081F801
:104AB000390000BF002081F8380000BF00BFE7E7E1
:104AC000014600BF91F83800012801D1022070474B
:104AD000012081F8380000BF022081F83900086801
:104AE000C06840F002000A68D060012081F83900F7
:104AF00000BF002081F8380000BF00BFE7E7014693
:104B000000BF91F83800012801D102207047012030
:104B100081F8380000BF022081F839000868C068B9
:104B200020F002000A68D060012081F8390000BF3F
:104B3000002081F8380000BF00BFE7E7014600BF52
:104B400091F83800012801D102207047012081F836
:104B5000380000BF022081F839000868C06820F0E2
:104B60000C0040F008000A68D060012081F839008C
:104B700000BF002081F8380000BF00BFE5E7014614
:104B800000BF91F83800012801D1022070470120B0
:104B900081F8380000BF022081F839000868C06839
:104BA00020F00C00001D0A68D060012081F8390057
:104BB00000BF002081F8380000BF00BFE6E70146D3
:104BC00091F8390070470146C86B7047B2F1200375
:104BD0000AD5C2F1200320FA02F001FA03F321FA08
:104BE00002F140EA0300704721FA03F04FF00001A0
:104BF0007047704770477047754600F02BF8AE4617
:104C000005006946534620F00700854618B020B5D8
:104C1000FBF7EAFABDE820404FF000064FF000072E
:104C20004FF000084FF0000B21F00701AC46ACE854
:104C3000C009ACE8C009ACE8C009ACE8C0098D46C1
:104C4000704710B50446AFF300802046BDE8104021
:104C5000FBF7B5BA00487047300D00200149182015
:104C6000ABBEFEE726000200704700000000000017
:104C70000000010203040607080900000000010209
:104C800003040000A44C00080000002044000000C1
:104C90006C010008E84C0008440000204C130000A0
:104CA0008801000800000000000000000000000073
:104CB00000000000000000000000000000000000F4
:104CC0004F4B004552524F520000000000000000C0
:104CD00000000000000000000000000000000000D4
:084CE00000A24A0400000000DC
:0400000508000131BD
:00000001FF
